{
  "_format": "hh-sol-artifact-1",
  "contractName": "MulX20",
  "sourceName": "contracts/MulX20.sol",
  "abi": [
    {
      "inputs": [
        {
          "internalType": "string",
          "name": "getName",
          "type": "string"
        },
        {
          "internalType": "string",
          "name": "getSymbol",
          "type": "string"
        }
      ],
      "stateMutability": "nonpayable",
      "type": "constructor"
    },
    {
      "anonymous": false,
      "inputs": [
        {
          "indexed": true,
          "internalType": "address",
          "name": "owner",
          "type": "address"
        },
        {
          "indexed": true,
          "internalType": "address",
          "name": "spender",
          "type": "address"
        },
        {
          "indexed": false,
          "internalType": "uint256",
          "name": "oldAmount",
          "type": "uint256"
        },
        {
          "indexed": false,
          "internalType": "uint256",
          "name": "amount",
          "type": "uint256"
        }
      ],
      "name": "Approval",
      "type": "event"
    },
    {
      "anonymous": false,
      "inputs": [
        {
          "indexed": true,
          "internalType": "address",
          "name": "from",
          "type": "address"
        },
        {
          "indexed": true,
          "internalType": "address",
          "name": "to",
          "type": "address"
        },
        {
          "indexed": false,
          "internalType": "uint256",
          "name": "amount",
          "type": "uint256"
        }
      ],
      "name": "Transfer",
      "type": "event"
    },
    {
      "anonymous": false,
      "inputs": [
        {
          "indexed": true,
          "internalType": "address",
          "name": "spender",
          "type": "address"
        },
        {
          "indexed": true,
          "internalType": "address",
          "name": "from",
          "type": "address"
        },
        {
          "indexed": true,
          "internalType": "address",
          "name": "to",
          "type": "address"
        },
        {
          "indexed": false,
          "internalType": "uint256",
          "name": "amount",
          "type": "uint256"
        }
      ],
      "name": "Transfer",
      "type": "event"
    },
    {
      "inputs": [
        {
          "internalType": "address",
          "name": "",
          "type": "address"
        },
        {
          "internalType": "address",
          "name": "",
          "type": "address"
        }
      ],
      "name": "_allowances",
      "outputs": [
        {
          "internalType": "uint256",
          "name": "",
          "type": "uint256"
        }
      ],
      "stateMutability": "view",
      "type": "function"
    },
    {
      "inputs": [],
      "name": "_decimals",
      "outputs": [
        {
          "internalType": "uint8",
          "name": "",
          "type": "uint8"
        }
      ],
      "stateMutability": "view",
      "type": "function"
    },
    {
      "inputs": [],
      "name": "_name",
      "outputs": [
        {
          "internalType": "string",
          "name": "",
          "type": "string"
        }
      ],
      "stateMutability": "view",
      "type": "function"
    },
    {
      "inputs": [],
      "name": "_symbol",
      "outputs": [
        {
          "internalType": "string",
          "name": "",
          "type": "string"
        }
      ],
      "stateMutability": "view",
      "type": "function"
    },
    {
      "inputs": [],
      "name": "_totalSupply",
      "outputs": [
        {
          "internalType": "uint256",
          "name": "",
          "type": "uint256"
        }
      ],
      "stateMutability": "view",
      "type": "function"
    },
    {
      "inputs": [
        {
          "internalType": "address",
          "name": "owner",
          "type": "address"
        },
        {
          "internalType": "address",
          "name": "spender",
          "type": "address"
        }
      ],
      "name": "allowance",
      "outputs": [
        {
          "internalType": "uint256",
          "name": "",
          "type": "uint256"
        }
      ],
      "stateMutability": "view",
      "type": "function"
    },
    {
      "inputs": [
        {
          "internalType": "address",
          "name": "spender",
          "type": "address"
        },
        {
          "internalType": "uint256",
          "name": "amount",
          "type": "uint256"
        }
      ],
      "name": "approve",
      "outputs": [
        {
          "internalType": "bool",
          "name": "",
          "type": "bool"
        }
      ],
      "stateMutability": "nonpayable",
      "type": "function"
    },
    {
      "inputs": [
        {
          "internalType": "address",
          "name": "account",
          "type": "address"
        }
      ],
      "name": "balanceOf",
      "outputs": [
        {
          "internalType": "uint256",
          "name": "",
          "type": "uint256"
        }
      ],
      "stateMutability": "view",
      "type": "function"
    },
    {
      "inputs": [],
      "name": "decimals",
      "outputs": [
        {
          "internalType": "uint8",
          "name": "",
          "type": "uint8"
        }
      ],
      "stateMutability": "view",
      "type": "function"
    },
    {
      "inputs": [],
      "name": "name",
      "outputs": [
        {
          "internalType": "string",
          "name": "",
          "type": "string"
        }
      ],
      "stateMutability": "view",
      "type": "function"
    },
    {
      "inputs": [],
      "name": "symbol",
      "outputs": [
        {
          "internalType": "string",
          "name": "",
          "type": "string"
        }
      ],
      "stateMutability": "view",
      "type": "function"
    },
    {
      "inputs": [],
      "name": "totalSupply",
      "outputs": [
        {
          "internalType": "uint256",
          "name": "",
          "type": "uint256"
        }
      ],
      "stateMutability": "view",
      "type": "function"
    },
    {
      "inputs": [
        {
          "internalType": "address",
          "name": "recipient",
          "type": "address"
        },
        {
          "internalType": "uint256",
          "name": "amount",
          "type": "uint256"
        }
      ],
      "name": "transfer",
      "outputs": [
        {
          "internalType": "bool",
          "name": "",
          "type": "bool"
        }
      ],
      "stateMutability": "nonpayable",
      "type": "function"
    },
    {
      "inputs": [
        {
          "internalType": "address",
          "name": "sender",
          "type": "address"
        },
        {
          "internalType": "address",
          "name": "recipient",
          "type": "address"
        },
        {
          "internalType": "uint256",
          "name": "amount",
          "type": "uint256"
        }
      ],
      "name": "transferFrom",
      "outputs": [
        {
          "internalType": "bool",
          "name": "",
          "type": "bool"
        }
      ],
      "stateMutability": "nonpayable",
      "type": "function"
    }
  ],
  "bytecode": "0x60806040523480156200001157600080fd5b50604051620017b6380380620017b6833981810160405281019062000037919062000331565b81600390805190602001906200004f929190620000e4565b50806004908051906020019062000068929190620000e4565b506012600560006101000a81548160ff021916908360ff1602179055506a52b7d2dcc80cd2e40000006002819055506002546000803373ffffffffffffffffffffffffffffffffffffffff1673ffffffffffffffffffffffffffffffffffffffff1681526020019081526020016000208190555050506200041b565b828054620000f290620003e5565b90600052602060002090601f01602090048101928262000116576000855562000162565b82601f106200013157805160ff191683800117855562000162565b8280016001018555821562000162579182015b828111156200016157825182559160200191906001019062000144565b5b50905062000171919062000175565b5090565b5b808211156200019057600081600090555060010162000176565b5090565b6000604051905090565b600080fd5b600080fd5b600080fd5b600080fd5b6000601f19601f8301169050919050565b7f4e487b7100000000000000000000000000000000000000000000000000000000600052604160045260246000fd5b620001fd82620001b2565b810181811067ffffffffffffffff821117156200021f576200021e620001c3565b5b80604052505050565b60006200023462000194565b9050620002428282620001f2565b919050565b600067ffffffffffffffff821115620002655762000264620001c3565b5b6200027082620001b2565b9050602081019050919050565b60005b838110156200029d57808201518184015260208101905062000280565b83811115620002ad576000848401525b50505050565b6000620002ca620002c48462000247565b62000228565b905082815260208101848484011115620002e957620002e8620001ad565b5b620002f68482856200027d565b509392505050565b600082601f830112620003165762000315620001a8565b5b815162000328848260208601620002b3565b91505092915050565b600080604083850312156200034b576200034a6200019e565b5b600083015167ffffffffffffffff8111156200036c576200036b620001a3565b5b6200037a85828601620002fe565b925050602083015167ffffffffffffffff8111156200039e576200039d620001a3565b5b620003ac85828601620002fe565b9150509250929050565b7f4e487b7100000000000000000000000000000000000000000000000000000000600052602260045260246000fd5b60006002820490506001821680620003fe57607f821691505b60208210811415620004155762000414620003b6565b5b50919050565b61138b806200042b6000396000f3fe608060405234801561001057600080fd5b50600436106100ea5760003560e01c80633eaaf86b1161008c578063a9059cbb11610066578063a9059cbb14610263578063b09f126614610293578063d28d8852146102b1578063dd62ed3e146102cf576100ea565b80633eaaf86b146101f757806370a082311461021557806395d89b4114610245576100ea565b806318160ddd116100c857806318160ddd1461016d57806323b872dd1461018b578063313ce567146101bb57806332424aa3146101d9576100ea565b8063024c2ddd146100ef57806306fdde031461011f578063095ea7b31461013d575b600080fd5b61010960048036038101906101049190610c47565b6102ff565b6040516101169190610ca0565b60405180910390f35b610127610324565b6040516101349190610d54565b60405180910390f35b61015760048036038101906101529190610da2565b6103b6565b6040516101649190610dfd565b60405180910390f35b6101756103cd565b6040516101829190610ca0565b60405180910390f35b6101a560048036038101906101a09190610e18565b6103d7565b6040516101b29190610dfd565b60405180910390f35b6101c3610546565b6040516101d09190610e87565b60405180910390f35b6101e161055d565b6040516101ee9190610e87565b60405180910390f35b6101ff610570565b60405161020c9190610ca0565b60405180910390f35b61022f600480360381019061022a9190610ea2565b610576565b60405161023c9190610ca0565b60405180910390f35b61024d6105be565b60405161025a9190610d54565b60405180910390f35b61027d60048036038101906102789190610da2565b610650565b60405161028a9190610dfd565b60405180910390f35b61029b6106cc565b6040516102a89190610d54565b60405180910390f35b6102b961075a565b6040516102c69190610d54565b60405180910390f35b6102e960048036038101906102e49190610c47565b6107e8565b6040516102f69190610ca0565b60405180910390f35b6001602052816000526040600020602052806000526040600020600091509150505481565b60606003805461033390610efe565b80601f016020809104026020016040519081016040528092919081815260200182805461035f90610efe565b80156103ac5780601f10610381576101008083540402835291602001916103ac565b820191906000526020600020905b81548152906001019060200180831161038f57829003601f168201915b5050505050905090565b60006103c333848461086f565b6001905092915050565b6000600254905090565b60006103e48484846109d5565b8273ffffffffffffffffffffffffffffffffffffffff168473ffffffffffffffffffffffffffffffffffffffff163373ffffffffffffffffffffffffffffffffffffffff167fd1398bee19313d6bf672ccb116e51f4a1a947e91c757907f51fbb5b5e56c698f856040516104589190610ca0565b60405180910390a46000600160008673ffffffffffffffffffffffffffffffffffffffff1673ffffffffffffffffffffffffffffffffffffffff16815260200190815260200160002060003373ffffffffffffffffffffffffffffffffffffffff1673ffffffffffffffffffffffffffffffffffffffff16815260200190815260200160002054905082811015610524576040517f08c379a000000000000000000000000000000000000000000000000000000000815260040161051b90610fa2565b60405180910390fd5b61053a853385846105359190610ff1565b61086f565b60019150509392505050565b6000600560009054906101000a900460ff16905090565b600560009054906101000a900460ff1681565b60025481565b60008060008373ffffffffffffffffffffffffffffffffffffffff1673ffffffffffffffffffffffffffffffffffffffff168152602001908152602001600020549050919050565b6060600480546105cd90610efe565b80601f01602080910402602001604051908101604052809291908181526020018280546105f990610efe565b80156106465780601f1061061b57610100808354040283529160200191610646565b820191906000526020600020905b81548152906001019060200180831161062957829003601f168201915b5050505050905090565b600061065d3384846109d5565b8273ffffffffffffffffffffffffffffffffffffffff163373ffffffffffffffffffffffffffffffffffffffff167fddf252ad1be2c89b69c2b068fc378daa952ba7f163c4a11628f55a4df523b3ef846040516106ba9190610ca0565b60405180910390a36001905092915050565b600480546106d990610efe565b80601f016020809104026020016040519081016040528092919081815260200182805461070590610efe565b80156107525780601f1061072757610100808354040283529160200191610752565b820191906000526020600020905b81548152906001019060200180831161073557829003601f168201915b505050505081565b6003805461076790610efe565b80601f016020809104026020016040519081016040528092919081815260200182805461079390610efe565b80156107e05780601f106107b5576101008083540402835291602001916107e0565b820191906000526020600020905b8154815290600101906020018083116107c357829003601f168201915b505050505081565b6000600160008473ffffffffffffffffffffffffffffffffffffffff1673ffffffffffffffffffffffffffffffffffffffff16815260200190815260200160002060008373ffffffffffffffffffffffffffffffffffffffff1673ffffffffffffffffffffffffffffffffffffffff16815260200190815260200160002054905092915050565b600073ffffffffffffffffffffffffffffffffffffffff168373ffffffffffffffffffffffffffffffffffffffff1614156108df576040517f08c379a00000000000000000000000000000000000000000000000000000000081526004016108d690611097565b60405180910390fd5b600073ffffffffffffffffffffffffffffffffffffffff168273ffffffffffffffffffffffffffffffffffffffff16141561094f576040517f08c379a000000000000000000000000000000000000000000000000000000000815260040161094690611129565b60405180910390fd5b80600160008573ffffffffffffffffffffffffffffffffffffffff1673ffffffffffffffffffffffffffffffffffffffff16815260200190815260200160002060008473ffffffffffffffffffffffffffffffffffffffff1673ffffffffffffffffffffffffffffffffffffffff16815260200190815260200160002081905550505050565b600073ffffffffffffffffffffffffffffffffffffffff168373ffffffffffffffffffffffffffffffffffffffff161415610a45576040517f08c379a0000000000000000000000000000000000000000000000000000000008152600401610a3c906111bb565b60405180910390fd5b600073ffffffffffffffffffffffffffffffffffffffff168273ffffffffffffffffffffffffffffffffffffffff161415610ab5576040517f08c379a0000000000000000000000000000000000000000000000000000000008152600401610aac9061124d565b60405180910390fd5b60008060008573ffffffffffffffffffffffffffffffffffffffff1673ffffffffffffffffffffffffffffffffffffffff16815260200190815260200160002054905081811015610b3b576040517f08c379a0000000000000000000000000000000000000000000000000000000008152600401610b32906112df565b60405180910390fd5b8181610b479190610ff1565b6000808673ffffffffffffffffffffffffffffffffffffffff1673ffffffffffffffffffffffffffffffffffffffff16815260200190815260200160002081905550816000808573ffffffffffffffffffffffffffffffffffffffff1673ffffffffffffffffffffffffffffffffffffffff1681526020019081526020016000206000828254610bd791906112ff565b9250508190555050505050565b600080fd5b600073ffffffffffffffffffffffffffffffffffffffff82169050919050565b6000610c1482610be9565b9050919050565b610c2481610c09565b8114610c2f57600080fd5b50565b600081359050610c4181610c1b565b92915050565b60008060408385031215610c5e57610c5d610be4565b5b6000610c6c85828601610c32565b9250506020610c7d85828601610c32565b9150509250929050565b6000819050919050565b610c9a81610c87565b82525050565b6000602082019050610cb56000830184610c91565b92915050565b600081519050919050565b600082825260208201905092915050565b60005b83811015610cf5578082015181840152602081019050610cda565b83811115610d04576000848401525b50505050565b6000601f19601f8301169050919050565b6000610d2682610cbb565b610d308185610cc6565b9350610d40818560208601610cd7565b610d4981610d0a565b840191505092915050565b60006020820190508181036000830152610d6e8184610d1b565b905092915050565b610d7f81610c87565b8114610d8a57600080fd5b50565b600081359050610d9c81610d76565b92915050565b60008060408385031215610db957610db8610be4565b5b6000610dc785828601610c32565b9250506020610dd885828601610d8d565b9150509250929050565b60008115159050919050565b610df781610de2565b82525050565b6000602082019050610e126000830184610dee565b92915050565b600080600060608486031215610e3157610e30610be4565b5b6000610e3f86828701610c32565b9350506020610e5086828701610c32565b9250506040610e6186828701610d8d565b9150509250925092565b600060ff82169050919050565b610e8181610e6b565b82525050565b6000602082019050610e9c6000830184610e78565b92915050565b600060208284031215610eb857610eb7610be4565b5b6000610ec684828501610c32565b91505092915050565b7f4e487b7100000000000000000000000000000000000000000000000000000000600052602260045260246000fd5b60006002820490506001821680610f1657607f821691505b60208210811415610f2a57610f29610ecf565b5b50919050565b7f45524332303a207472616e7366657220616d6f756e742065786365656473206160008201527f6c6c6f77616e6365000000000000000000000000000000000000000000000000602082015250565b6000610f8c602883610cc6565b9150610f9782610f30565b604082019050919050565b60006020820190508181036000830152610fbb81610f7f565b9050919050565b7f4e487b7100000000000000000000000000000000000000000000000000000000600052601160045260246000fd5b6000610ffc82610c87565b915061100783610c87565b92508282101561101a57611019610fc2565b5b828203905092915050565b7f45524332303a20617070726f76652066726f6d20746865207a65726f2061646460008201527f7265737300000000000000000000000000000000000000000000000000000000602082015250565b6000611081602483610cc6565b915061108c82611025565b604082019050919050565b600060208201905081810360008301526110b081611074565b9050919050565b7f45524332303a20617070726f766520746f20746865207a65726f20616464726560008201527f7373000000000000000000000000000000000000000000000000000000000000602082015250565b6000611113602283610cc6565b915061111e826110b7565b604082019050919050565b6000602082019050818103600083015261114281611106565b9050919050565b7f45524332303a207472616e736665722066726f6d20746865207a65726f20616460008201527f6472657373000000000000000000000000000000000000000000000000000000602082015250565b60006111a5602583610cc6565b91506111b082611149565b604082019050919050565b600060208201905081810360008301526111d481611198565b9050919050565b7f45524332303a207472616e7366657220746f20746865207a65726f206164647260008201527f6573730000000000000000000000000000000000000000000000000000000000602082015250565b6000611237602383610cc6565b9150611242826111db565b604082019050919050565b600060208201905081810360008301526112668161122a565b9050919050565b7f45524332303a207472616e7366657220616d6f756e742065786365656473206260008201527f616c616e63650000000000000000000000000000000000000000000000000000602082015250565b60006112c9602683610cc6565b91506112d48261126d565b604082019050919050565b600060208201905081810360008301526112f8816112bc565b9050919050565b600061130a82610c87565b915061131583610c87565b9250827fffffffffffffffffffffffffffffffffffffffffffffffffffffffffffffffff0382111561134a57611349610fc2565b5b82820190509291505056fea2646970667358221220a8ebde35e6103728b284ef87f84b9c6533aac405ea3edd220beecd8f346029f264736f6c634300080a0033",
  "linkReferences": {},
  "deployedLinkReferences": {}
}