{
  "_format": "hh-sol-artifact-1",
  "contractName": "MulX721",
  "sourceName": "contracts/MulX721.sol",
  "abi": [
    {
      "inputs": [],
      "stateMutability": "nonpayable",
      "type": "constructor"
    },
    {
      "anonymous": false,
      "inputs": [
        {
          "indexed": true,
          "internalType": "address",
          "name": "owner",
          "type": "address"
        },
        {
          "indexed": true,
          "internalType": "address",
          "name": "approved",
          "type": "address"
        },
        {
          "indexed": true,
          "internalType": "uint256",
          "name": "tokenId",
          "type": "uint256"
        }
      ],
      "name": "Approval",
      "type": "event"
    },
    {
      "anonymous": false,
      "inputs": [
        {
          "indexed": true,
          "internalType": "address",
          "name": "owner",
          "type": "address"
        },
        {
          "indexed": true,
          "internalType": "address",
          "name": "operator",
          "type": "address"
        },
        {
          "indexed": false,
          "internalType": "bool",
          "name": "approved",
          "type": "bool"
        }
      ],
      "name": "ApprovalForAll",
      "type": "event"
    },
    {
      "anonymous": false,
      "inputs": [
        {
          "indexed": false,
          "internalType": "uint256",
          "name": "_fromTokenId",
          "type": "uint256"
        },
        {
          "indexed": false,
          "internalType": "uint256",
          "name": "_toTokenId",
          "type": "uint256"
        }
      ],
      "name": "BatchMetadataUpdate",
      "type": "event"
    },
    {
      "anonymous": false,
      "inputs": [
        {
          "indexed": false,
          "internalType": "uint256",
          "name": "_tokenId",
          "type": "uint256"
        }
      ],
      "name": "MetadataUpdate",
      "type": "event"
    },
    {
      "anonymous": false,
      "inputs": [
        {
          "indexed": true,
          "internalType": "address",
          "name": "previousOwner",
          "type": "address"
        },
        {
          "indexed": true,
          "internalType": "address",
          "name": "newOwner",
          "type": "address"
        }
      ],
      "name": "OwnershipTransferred",
      "type": "event"
    },
    {
      "anonymous": false,
      "inputs": [
        {
          "indexed": true,
          "internalType": "address",
          "name": "from",
          "type": "address"
        },
        {
          "indexed": true,
          "internalType": "address",
          "name": "to",
          "type": "address"
        },
        {
          "indexed": true,
          "internalType": "uint256",
          "name": "tokenId",
          "type": "uint256"
        }
      ],
      "name": "Transfer",
      "type": "event"
    },
    {
      "inputs": [
        {
          "internalType": "uint256",
          "name": "",
          "type": "uint256"
        }
      ],
      "name": "NftPrice",
      "outputs": [
        {
          "internalType": "uint256",
          "name": "",
          "type": "uint256"
        }
      ],
      "stateMutability": "view",
      "type": "function"
    },
    {
      "inputs": [
        {
          "internalType": "address",
          "name": "to",
          "type": "address"
        },
        {
          "internalType": "uint256",
          "name": "tokenId",
          "type": "uint256"
        }
      ],
      "name": "approve",
      "outputs": [],
      "stateMutability": "nonpayable",
      "type": "function"
    },
    {
      "inputs": [
        {
          "internalType": "address",
          "name": "_owner",
          "type": "address"
        }
      ],
      "name": "balanceOf",
      "outputs": [
        {
          "internalType": "uint256",
          "name": "",
          "type": "uint256"
        }
      ],
      "stateMutability": "view",
      "type": "function"
    },
    {
      "inputs": [],
      "name": "getAllNftList",
      "outputs": [
        {
          "components": [
            {
              "internalType": "uint256",
              "name": "nftTokenId",
              "type": "uint256"
            },
            {
              "internalType": "string",
              "name": "nftTokenURI",
              "type": "string"
            }
          ],
          "internalType": "struct MulX721.NftTokenData[]",
          "name": "",
          "type": "tuple[]"
        }
      ],
      "stateMutability": "view",
      "type": "function"
    },
    {
      "inputs": [
        {
          "internalType": "uint256",
          "name": "tokenId",
          "type": "uint256"
        }
      ],
      "name": "getApproved",
      "outputs": [
        {
          "internalType": "address",
          "name": "",
          "type": "address"
        }
      ],
      "stateMutability": "view",
      "type": "function"
    },
    {
      "inputs": [
        {
          "internalType": "uint256",
          "name": "_tokenId",
          "type": "uint256"
        }
      ],
      "name": "getNftPrice",
      "outputs": [
        {
          "internalType": "uint256",
          "name": "",
          "type": "uint256"
        }
      ],
      "stateMutability": "view",
      "type": "function"
    },
    {
      "inputs": [
        {
          "internalType": "address",
          "name": "_nftTokenOwner",
          "type": "address"
        }
      ],
      "name": "getNftTokenList",
      "outputs": [
        {
          "components": [
            {
              "internalType": "uint256",
              "name": "nftTokenId",
              "type": "uint256"
            },
            {
              "internalType": "string",
              "name": "nftTokenURI",
              "type": "string"
            }
          ],
          "internalType": "struct MulX721.NftTokenData[]",
          "name": "",
          "type": "tuple[]"
        }
      ],
      "stateMutability": "view",
      "type": "function"
    },
    {
      "inputs": [
        {
          "internalType": "uint256",
          "name": "tokenId",
          "type": "uint256"
        }
      ],
      "name": "getOwnerOfTokenId",
      "outputs": [
        {
          "internalType": "address",
          "name": "",
          "type": "address"
        }
      ],
      "stateMutability": "view",
      "type": "function"
    },
    {
      "inputs": [],
      "name": "getTokenId",
      "outputs": [
        {
          "internalType": "uint256",
          "name": "",
          "type": "uint256"
        }
      ],
      "stateMutability": "view",
      "type": "function"
    },
    {
      "inputs": [
        {
          "internalType": "address",
          "name": "owner",
          "type": "address"
        },
        {
          "internalType": "address",
          "name": "operator",
          "type": "address"
        }
      ],
      "name": "isApprovedForAll",
      "outputs": [
        {
          "internalType": "bool",
          "name": "",
          "type": "bool"
        }
      ],
      "stateMutability": "view",
      "type": "function"
    },
    {
      "inputs": [
        {
          "internalType": "uint256",
          "name": "",
          "type": "uint256"
        }
      ],
      "name": "metadataURIs",
      "outputs": [
        {
          "internalType": "string",
          "name": "",
          "type": "string"
        }
      ],
      "stateMutability": "view",
      "type": "function"
    },
    {
      "inputs": [
        {
          "internalType": "address",
          "name": "recipient",
          "type": "address"
        },
        {
          "internalType": "string",
          "name": "tokenURI",
          "type": "string"
        },
        {
          "internalType": "uint256",
          "name": "_nftPrice",
          "type": "uint256"
        }
      ],
      "name": "mintNFT",
      "outputs": [
        {
          "internalType": "uint256",
          "name": "",
          "type": "uint256"
        },
        {
          "internalType": "uint256",
          "name": "",
          "type": "uint256"
        }
      ],
      "stateMutability": "nonpayable",
      "type": "function"
    },
    {
      "inputs": [],
      "name": "name",
      "outputs": [
        {
          "internalType": "string",
          "name": "",
          "type": "string"
        }
      ],
      "stateMutability": "view",
      "type": "function"
    },
    {
      "inputs": [],
      "name": "owner",
      "outputs": [
        {
          "internalType": "address",
          "name": "",
          "type": "address"
        }
      ],
      "stateMutability": "view",
      "type": "function"
    },
    {
      "inputs": [
        {
          "internalType": "uint256",
          "name": "tokenId",
          "type": "uint256"
        }
      ],
      "name": "ownerOf",
      "outputs": [
        {
          "internalType": "address",
          "name": "",
          "type": "address"
        }
      ],
      "stateMutability": "view",
      "type": "function"
    },
    {
      "inputs": [],
      "name": "renounceOwnership",
      "outputs": [],
      "stateMutability": "nonpayable",
      "type": "function"
    },
    {
      "inputs": [
        {
          "internalType": "address",
          "name": "from",
          "type": "address"
        },
        {
          "internalType": "address",
          "name": "to",
          "type": "address"
        },
        {
          "internalType": "uint256",
          "name": "tokenId",
          "type": "uint256"
        }
      ],
      "name": "safeTransferFrom",
      "outputs": [],
      "stateMutability": "nonpayable",
      "type": "function"
    },
    {
      "inputs": [
        {
          "internalType": "address",
          "name": "from",
          "type": "address"
        },
        {
          "internalType": "address",
          "name": "to",
          "type": "address"
        },
        {
          "internalType": "uint256",
          "name": "tokenId",
          "type": "uint256"
        },
        {
          "internalType": "bytes",
          "name": "data",
          "type": "bytes"
        }
      ],
      "name": "safeTransferFrom",
      "outputs": [],
      "stateMutability": "nonpayable",
      "type": "function"
    },
    {
      "inputs": [
        {
          "internalType": "address",
          "name": "operator",
          "type": "address"
        },
        {
          "internalType": "bool",
          "name": "approved",
          "type": "bool"
        }
      ],
      "name": "setApprovalForAll",
      "outputs": [],
      "stateMutability": "nonpayable",
      "type": "function"
    },
    {
      "inputs": [
        {
          "internalType": "uint256",
          "name": "_tokenId",
          "type": "uint256"
        },
        {
          "internalType": "uint256",
          "name": "_price",
          "type": "uint256"
        }
      ],
      "name": "setNftPrice",
      "outputs": [
        {
          "internalType": "uint256",
          "name": "",
          "type": "uint256"
        }
      ],
      "stateMutability": "nonpayable",
      "type": "function"
    },
    {
      "inputs": [
        {
          "internalType": "address",
          "name": "tokenAddress",
          "type": "address"
        }
      ],
      "name": "setToken",
      "outputs": [
        {
          "internalType": "bool",
          "name": "",
          "type": "bool"
        }
      ],
      "stateMutability": "nonpayable",
      "type": "function"
    },
    {
      "inputs": [
        {
          "internalType": "bytes4",
          "name": "interfaceId",
          "type": "bytes4"
        }
      ],
      "name": "supportsInterface",
      "outputs": [
        {
          "internalType": "bool",
          "name": "",
          "type": "bool"
        }
      ],
      "stateMutability": "view",
      "type": "function"
    },
    {
      "inputs": [],
      "name": "symbol",
      "outputs": [
        {
          "internalType": "string",
          "name": "",
          "type": "string"
        }
      ],
      "stateMutability": "view",
      "type": "function"
    },
    {
      "inputs": [
        {
          "internalType": "address",
          "name": "_owner",
          "type": "address"
        },
        {
          "internalType": "uint256",
          "name": "_index",
          "type": "uint256"
        }
      ],
      "name": "tokenOfOwnerByIndex",
      "outputs": [
        {
          "internalType": "uint256",
          "name": "",
          "type": "uint256"
        }
      ],
      "stateMutability": "view",
      "type": "function"
    },
    {
      "inputs": [
        {
          "internalType": "uint256",
          "name": "tokenId",
          "type": "uint256"
        }
      ],
      "name": "tokenURI",
      "outputs": [
        {
          "internalType": "string",
          "name": "",
          "type": "string"
        }
      ],
      "stateMutability": "view",
      "type": "function"
    },
    {
      "inputs": [],
      "name": "totalSupply",
      "outputs": [
        {
          "internalType": "uint256",
          "name": "",
          "type": "uint256"
        }
      ],
      "stateMutability": "view",
      "type": "function"
    },
    {
      "inputs": [
        {
          "internalType": "address",
          "name": "from",
          "type": "address"
        },
        {
          "internalType": "address",
          "name": "to",
          "type": "address"
        },
        {
          "internalType": "uint256",
          "name": "tokenId",
          "type": "uint256"
        }
      ],
      "name": "transferFrom",
      "outputs": [],
      "stateMutability": "nonpayable",
      "type": "function"
    },
    {
      "inputs": [
        {
          "internalType": "address",
          "name": "newOwner",
          "type": "address"
        }
      ],
      "name": "transferOwnership",
      "outputs": [],
      "stateMutability": "nonpayable",
      "type": "function"
    }
  ],
  "bytecode": "0x60806040523480156200001157600080fd5b506040518060400160405280600681526020017f4d794e46547300000000000000000000000000000000000000000000000000008152506040518060400160405280600481526020017f4d4e465400000000000000000000000000000000000000000000000000000000815250816000908051906020019062000096929190620001b5565b508060019080519060200190620000af929190620001b5565b505050620000d2620000c6620000e760201b60201c565b620000ef60201b60201c565b67016345785d8a0000600a81905550620002ca565b600033905090565b6000600760009054906101000a900473ffffffffffffffffffffffffffffffffffffffff16905081600760006101000a81548173ffffffffffffffffffffffffffffffffffffffff021916908373ffffffffffffffffffffffffffffffffffffffff1602179055508173ffffffffffffffffffffffffffffffffffffffff168173ffffffffffffffffffffffffffffffffffffffff167f8be0079c531659141344cd1fd0a4f28419497f9722a3daafe3b4186f6b6457e060405160405180910390a35050565b828054620001c39062000294565b90600052602060002090601f016020900481019282620001e7576000855562000233565b82601f106200020257805160ff191683800117855562000233565b8280016001018555821562000233579182015b828111156200023257825182559160200191906001019062000215565b5b50905062000242919062000246565b5090565b5b808211156200026157600081600090555060010162000247565b5090565b7f4e487b7100000000000000000000000000000000000000000000000000000000600052602260045260246000fd5b60006002820490506001821680620002ad57607f821691505b60208210811415620002c457620002c362000265565b5b50919050565b61369880620002da6000396000f3fe608060405234801561001057600080fd5b50600436106101c45760003560e01c806370a08231116100f95780639b934b5211610097578063b88d4fde11610071578063b88d4fde14610568578063c87b56dd14610584578063e985e9c5146105b4578063f2fde38b146105e4576101c4565b80639b934b52146104fe578063a22cb4651461051c578063af9030a114610538576101c4565b80637a61013f116100d35780637a61013f146104625780637bf0989a146104925780638da5cb5b146104c257806395d89b41146104e0576101c4565b806370a08231146103f8578063715018a6146104285780637a336a4814610432576101c4565b806318160ddd1161016657806342842e0e1161014057806342842e0e1461034c57806348688b3c146103685780634ed5c558146103985780636352211e146103c8576101c4565b806318160ddd146102e257806323b872dd146103005780632f745c591461031c576101c4565b8063081812fc116101a2578063081812fc1461023557806308598df014610265578063095ea7b314610296578063144fa6d7146102b2576101c4565b8063010a38f5146101c957806301ffc9a7146101e757806306fdde0314610217575b600080fd5b6101d1610600565b6040516101de91906123b7565b60405180910390f35b61020160048036038101906101fc919061243e565b610611565b60405161020e9190612486565b60405180910390f35b61021f610672565b60405161022c919061253a565b60405180910390f35b61024f600480360381019061024a9190612588565b610704565b60405161025c91906125f6565b60405180910390f35b61027f600480360381019061027a9190612772565b61074a565b60405161028d9291906127e1565b60405180910390f35b6102b060048036038101906102ab919061280a565b6107bb565b005b6102cc60048036038101906102c7919061284a565b6108d3565b6040516102d99190612486565b60405180910390f35b6102ea610961565b6040516102f791906123b7565b60405180910390f35b61031a60048036038101906103159190612877565b610972565b005b6103366004803603810190610331919061280a565b6109d2565b60405161034391906123b7565b60405180910390f35b61036660048036038101906103619190612877565b610ab1565b005b610382600480360381019061037d9190612588565b610ad1565b60405161038f91906125f6565b60405180910390f35b6103b260048036038101906103ad9190612588565b610ae3565b6040516103bf919061253a565b60405180910390f35b6103e260048036038101906103dd9190612588565b610b83565b6040516103ef91906125f6565b60405180910390f35b610412600480360381019061040d919061284a565b610c0a565b60405161041f91906123b7565b60405180910390f35b610430610c8e565b005b61044c60048036038101906104479190612588565b610ca2565b60405161045991906123b7565b60405180910390f35b61047c600480360381019061047791906128ca565b610cba565b60405161048991906123b7565b60405180910390f35b6104ac60048036038101906104a79190612588565b610ce3565b6040516104b991906123b7565b60405180910390f35b6104ca610d00565b6040516104d791906125f6565b60405180910390f35b6104e8610d2a565b6040516104f5919061253a565b60405180910390f35b610506610dbc565b6040516105139190612a62565b60405180910390f35b61053660048036038101906105319190612ab0565b610e9e565b005b610552600480360381019061054d919061284a565b610eb4565b60405161055f9190612a62565b60405180910390f35b610582600480360381019061057d9190612b91565b610f94565b005b61059e60048036038101906105999190612588565b610ff6565b6040516105ab919061253a565b60405180910390f35b6105ce60048036038101906105c99190612c14565b611109565b6040516105db9190612486565b60405180910390f35b6105fe60048036038101906105f9919061284a565b61119d565b005b600061060c6008611221565b905090565b6000634906490660e01b7bffffffffffffffffffffffffffffffffffffffffffffffffffffffff1916827bffffffffffffffffffffffffffffffffffffffffffffffffffffffff1916148061066b575061066a8261122f565b5b9050919050565b60606000805461068190612c83565b80601f01602080910402602001604051908101604052809291908181526020018280546106ad90612c83565b80156106fa5780601f106106cf576101008083540402835291602001916106fa565b820191906000526020600020905b8154815290600101906020018083116106dd57829003601f168201915b5050505050905090565b600061070f82611311565b6004600083815260200190815260200160002060009054906101000a900473ffffffffffffffffffffffffffffffffffffffff169050919050565b60008061075561135c565b61075f60086113da565b600061076b6008611221565b905061077786826113f0565b610781818661160e565b83600c60008381526020019081526020016000208190555080600c6000838152602001908152602001600020549250925050935093915050565b60006107c682610b83565b90508073ffffffffffffffffffffffffffffffffffffffff168373ffffffffffffffffffffffffffffffffffffffff161415610837576040517f08c379a000000000000000000000000000000000000000000000000000000000815260040161082e90612d27565b60405180910390fd5b8073ffffffffffffffffffffffffffffffffffffffff166108566116b9565b73ffffffffffffffffffffffffffffffffffffffff16148061088557506108848161087f6116b9565b611109565b5b6108c4576040517f08c379a00000000000000000000000000000000000000000000000000000000081526004016108bb90612db9565b60405180910390fd5b6108ce83836116c1565b505050565b60006108dd61135c565b600073ffffffffffffffffffffffffffffffffffffffff168273ffffffffffffffffffffffffffffffffffffffff16141561091757600080fd5b81600960006101000a81548173ffffffffffffffffffffffffffffffffffffffff021916908373ffffffffffffffffffffffffffffffffffffffff16021790555060019050919050565b600061096d6008611221565b905090565b61098361097d6116b9565b8261177a565b6109c2576040517f08c379a00000000000000000000000000000000000000000000000000000000081526004016109b990612e4b565b60405180910390fd5b6109cd83838361180f565b505050565b60006109dd83610c0a565b8210610a1e576040517f08c379a0000000000000000000000000000000000000000000000000000000008152600401610a1590612edd565b60405180910390fd5b600080600190505b610a2e610961565b8111610aa4578473ffffffffffffffffffffffffffffffffffffffff16610a5482610b83565b73ffffffffffffffffffffffffffffffffffffffff161415610a915783821415610a82578092505050610aab565b8180610a8d90612f2c565b9250505b8080610a9c90612f2c565b915050610a26565b5060009150505b92915050565b610acc83838360405180602001604052806000815250610f94565b505050565b6000610adc82610b83565b9050919050565b600b6020528060005260406000206000915090508054610b0290612c83565b80601f0160208091040260200160405190810160405280929190818152602001828054610b2e90612c83565b8015610b7b5780601f10610b5057610100808354040283529160200191610b7b565b820191906000526020600020905b815481529060010190602001808311610b5e57829003601f168201915b505050505081565b600080610b8f83611b09565b9050600073ffffffffffffffffffffffffffffffffffffffff168173ffffffffffffffffffffffffffffffffffffffff161415610c01576040517f08c379a0000000000000000000000000000000000000000000000000000000008152600401610bf890612fc1565b60405180910390fd5b80915050919050565b600080600090506000600190505b610c20610961565b8111610c84578373ffffffffffffffffffffffffffffffffffffffff16610c4682610b83565b73ffffffffffffffffffffffffffffffffffffffff161415610c71578180610c6d90612f2c565b9250505b8080610c7c90612f2c565b915050610c18565b5080915050919050565b610c9661135c565b610ca06000611b46565b565b600c6020528060005260406000206000915090505481565b6000610cc461135c565b81600c6000858152602001908152602001600020819055905092915050565b6000600c6000838152602001908152602001600020549050919050565b6000600760009054906101000a900473ffffffffffffffffffffffffffffffffffffffff16905090565b606060018054610d3990612c83565b80601f0160208091040260200160405190810160405280929190818152602001828054610d6590612c83565b8015610db25780601f10610d8757610100808354040283529160200191610db2565b820191906000526020600020905b815481529060010190602001808311610d9557829003601f168201915b5050505050905090565b60606000610dca6008611221565b905060008167ffffffffffffffff811115610de857610de7612647565b5b604051908082528060200260200182016040528015610e2157816020015b610e0e6122e1565b815260200190600190039081610e065790505b50905060005b82811015610e95576000600182610e3e9190612fe1565b90506000610e4b82610ff6565b9050604051806040016040528083815260200182815250848481518110610e7557610e74613037565b5b602002602001018190525050508080610e8d90612f2c565b915050610e27565b50809250505090565b610eb0610ea96116b9565b8383611c0c565b5050565b60606000610ec183610c0a565b905060008167ffffffffffffffff811115610edf57610ede612647565b5b604051908082528060200260200182016040528015610f1857816020015b610f056122e1565b815260200190600190039081610efd5790505b50905060005b82811015610f89576000610f3286836109d2565b90506000610f3f82610ff6565b9050604051806040016040528083815260200182815250848481518110610f6957610f68613037565b5b602002602001018190525050508080610f8190612f2c565b915050610f1e565b508092505050919050565b610fa5610f9f6116b9565b8361177a565b610fe4576040517f08c379a0000000000000000000000000000000000000000000000000000000008152600401610fdb90612e4b565b60405180910390fd5b610ff084848484611d79565b50505050565b606061100182611311565b600060066000848152602001908152602001600020805461102190612c83565b80601f016020809104026020016040519081016040528092919081815260200182805461104d90612c83565b801561109a5780601f1061106f5761010080835404028352916020019161109a565b820191906000526020600020905b81548152906001019060200180831161107d57829003601f168201915b5050505050905060006110ab611dd5565b90506000815114156110c1578192505050611104565b6000825111156110f65780826040516020016110de9291906130a2565b60405160208183030381529060405292505050611104565b6110ff84611dec565b925050505b919050565b6000600560008473ffffffffffffffffffffffffffffffffffffffff1673ffffffffffffffffffffffffffffffffffffffff16815260200190815260200160002060008373ffffffffffffffffffffffffffffffffffffffff1673ffffffffffffffffffffffffffffffffffffffff16815260200190815260200160002060009054906101000a900460ff16905092915050565b6111a561135c565b600073ffffffffffffffffffffffffffffffffffffffff168173ffffffffffffffffffffffffffffffffffffffff161415611215576040517f08c379a000000000000000000000000000000000000000000000000000000000815260040161120c90613138565b60405180910390fd5b61121e81611b46565b50565b600081600001549050919050565b60007f80ac58cd000000000000000000000000000000000000000000000000000000007bffffffffffffffffffffffffffffffffffffffffffffffffffffffff1916827bffffffffffffffffffffffffffffffffffffffffffffffffffffffff191614806112fa57507f5b5e139f000000000000000000000000000000000000000000000000000000007bffffffffffffffffffffffffffffffffffffffffffffffffffffffff1916827bffffffffffffffffffffffffffffffffffffffffffffffffffffffff1916145b8061130a575061130982611e54565b5b9050919050565b61131a81611ebe565b611359576040517f08c379a000000000000000000000000000000000000000000000000000000000815260040161135090612fc1565b60405180910390fd5b50565b6113646116b9565b73ffffffffffffffffffffffffffffffffffffffff16611382610d00565b73ffffffffffffffffffffffffffffffffffffffff16146113d8576040517f08c379a00000000000000000000000000000000000000000000000000000000081526004016113cf906131a4565b60405180910390fd5b565b6001816000016000828254019250508190555050565b600073ffffffffffffffffffffffffffffffffffffffff168273ffffffffffffffffffffffffffffffffffffffff161415611460576040517f08c379a000000000000000000000000000000000000000000000000000000000815260040161145790613210565b60405180910390fd5b61146981611ebe565b156114a9576040517f08c379a00000000000000000000000000000000000000000000000000000000081526004016114a09061327c565b60405180910390fd5b6114b7600083836001611eff565b6114c081611ebe565b15611500576040517f08c379a00000000000000000000000000000000000000000000000000000000081526004016114f79061327c565b60405180910390fd5b6001600360008473ffffffffffffffffffffffffffffffffffffffff1673ffffffffffffffffffffffffffffffffffffffff16815260200190815260200160002060008282540192505081905550816002600083815260200190815260200160002060006101000a81548173ffffffffffffffffffffffffffffffffffffffff021916908373ffffffffffffffffffffffffffffffffffffffff160217905550808273ffffffffffffffffffffffffffffffffffffffff16600073ffffffffffffffffffffffffffffffffffffffff167fddf252ad1be2c89b69c2b068fc378daa952ba7f163c4a11628f55a4df523b3ef60405160405180910390a461160a600083836001611f05565b5050565b61161782611ebe565b611656576040517f08c379a000000000000000000000000000000000000000000000000000000000815260040161164d9061330e565b60405180910390fd5b8060066000848152602001908152602001600020908051906020019061167d9291906122fb565b507ff8e1a15aba9398e019f0b49df1a4fde98ee17ae345cb5f6b5e2c27f5033e8ce7826040516116ad91906123b7565b60405180910390a15050565b600033905090565b816004600083815260200190815260200160002060006101000a81548173ffffffffffffffffffffffffffffffffffffffff021916908373ffffffffffffffffffffffffffffffffffffffff160217905550808273ffffffffffffffffffffffffffffffffffffffff1661173483610b83565b73ffffffffffffffffffffffffffffffffffffffff167f8c5be1e5ebec7d5bd14f71427d1e84f3dd0314c0f7b2291e5b200ac8c7c3b92560405160405180910390a45050565b60008061178683610b83565b90508073ffffffffffffffffffffffffffffffffffffffff168473ffffffffffffffffffffffffffffffffffffffff1614806117c857506117c78185611109565b5b8061180657508373ffffffffffffffffffffffffffffffffffffffff166117ee84610704565b73ffffffffffffffffffffffffffffffffffffffff16145b91505092915050565b8273ffffffffffffffffffffffffffffffffffffffff1661182f82610b83565b73ffffffffffffffffffffffffffffffffffffffff1614611885576040517f08c379a000000000000000000000000000000000000000000000000000000000815260040161187c906133a0565b60405180910390fd5b600073ffffffffffffffffffffffffffffffffffffffff168273ffffffffffffffffffffffffffffffffffffffff1614156118f5576040517f08c379a00000000000000000000000000000000000000000000000000000000081526004016118ec90613432565b60405180910390fd5b6119028383836001611eff565b8273ffffffffffffffffffffffffffffffffffffffff1661192282610b83565b73ffffffffffffffffffffffffffffffffffffffff1614611978576040517f08c379a000000000000000000000000000000000000000000000000000000000815260040161196f906133a0565b60405180910390fd5b6004600082815260200190815260200160002060006101000a81549073ffffffffffffffffffffffffffffffffffffffff02191690556001600360008573ffffffffffffffffffffffffffffffffffffffff1673ffffffffffffffffffffffffffffffffffffffff168152602001908152602001600020600082825403925050819055506001600360008473ffffffffffffffffffffffffffffffffffffffff1673ffffffffffffffffffffffffffffffffffffffff16815260200190815260200160002060008282540192505081905550816002600083815260200190815260200160002060006101000a81548173ffffffffffffffffffffffffffffffffffffffff021916908373ffffffffffffffffffffffffffffffffffffffff160217905550808273ffffffffffffffffffffffffffffffffffffffff168473ffffffffffffffffffffffffffffffffffffffff167fddf252ad1be2c89b69c2b068fc378daa952ba7f163c4a11628f55a4df523b3ef60405160405180910390a4611b048383836001611f05565b505050565b60006002600083815260200190815260200160002060009054906101000a900473ffffffffffffffffffffffffffffffffffffffff169050919050565b6000600760009054906101000a900473ffffffffffffffffffffffffffffffffffffffff16905081600760006101000a81548173ffffffffffffffffffffffffffffffffffffffff021916908373ffffffffffffffffffffffffffffffffffffffff1602179055508173ffffffffffffffffffffffffffffffffffffffff168173ffffffffffffffffffffffffffffffffffffffff167f8be0079c531659141344cd1fd0a4f28419497f9722a3daafe3b4186f6b6457e060405160405180910390a35050565b8173ffffffffffffffffffffffffffffffffffffffff168373ffffffffffffffffffffffffffffffffffffffff161415611c7b576040517f08c379a0000000000000000000000000000000000000000000000000000000008152600401611c729061349e565b60405180910390fd5b80600560008573ffffffffffffffffffffffffffffffffffffffff1673ffffffffffffffffffffffffffffffffffffffff16815260200190815260200160002060008473ffffffffffffffffffffffffffffffffffffffff1673ffffffffffffffffffffffffffffffffffffffff16815260200190815260200160002060006101000a81548160ff0219169083151502179055508173ffffffffffffffffffffffffffffffffffffffff168373ffffffffffffffffffffffffffffffffffffffff167f17307eab39ab6107e8899845ad3d59bd9653f200f220920489ca2b5937696c3183604051611d6c9190612486565b60405180910390a3505050565b611d8484848461180f565b611d9084848484611f0b565b611dcf576040517f08c379a0000000000000000000000000000000000000000000000000000000008152600401611dc690613530565b60405180910390fd5b50505050565b606060405180602001604052806000815250905090565b6060611df782611311565b6000611e01611dd5565b90506000815111611e215760405180602001604052806000815250611e4c565b80611e2b84612093565b604051602001611e3c9291906130a2565b6040516020818303038152906040525b915050919050565b60007f01ffc9a7000000000000000000000000000000000000000000000000000000007bffffffffffffffffffffffffffffffffffffffffffffffffffffffff1916827bffffffffffffffffffffffffffffffffffffffffffffffffffffffff1916149050919050565b60008073ffffffffffffffffffffffffffffffffffffffff16611ee083611b09565b73ffffffffffffffffffffffffffffffffffffffff1614159050919050565b50505050565b50505050565b6000611f2c8473ffffffffffffffffffffffffffffffffffffffff1661216b565b15612086578373ffffffffffffffffffffffffffffffffffffffff1663150b7a02611f556116b9565b8786866040518563ffffffff1660e01b8152600401611f7794939291906135a5565b6020604051808303816000875af1925050508015611fb357506040513d601f19601f82011682018060405250810190611fb09190613606565b60015b612036573d8060008114611fe3576040519150601f19603f3d011682016040523d82523d6000602084013e611fe8565b606091505b5060008151141561202e576040517f08c379a000000000000000000000000000000000000000000000000000000000815260040161202590613530565b60405180910390fd5b805181602001fd5b63150b7a0260e01b7bffffffffffffffffffffffffffffffffffffffffffffffffffffffff1916817bffffffffffffffffffffffffffffffffffffffffffffffffffffffff19161491505061208b565b600190505b949350505050565b6060600060016120a28461218e565b01905060008167ffffffffffffffff8111156120c1576120c0612647565b5b6040519080825280601f01601f1916602001820160405280156120f35781602001600182028036833780820191505090505b509050600082602001820190505b600115612160578080600190039150507f3031323334353637383961626364656600000000000000000000000000000000600a86061a8153600a858161214a57612149613633565b5b049450600085141561215b57612160565b612101565b819350505050919050565b6000808273ffffffffffffffffffffffffffffffffffffffff163b119050919050565b600080600090507a184f03e93ff9f4daa797ed6e38ed64bf6a1f01000000000000000083106121ec577a184f03e93ff9f4daa797ed6e38ed64bf6a1f01000000000000000083816121e2576121e1613633565b5b0492506040810190505b6d04ee2d6d415b85acef81000000008310612229576d04ee2d6d415b85acef8100000000838161221f5761221e613633565b5b0492506020810190505b662386f26fc10000831061225857662386f26fc10000838161224e5761224d613633565b5b0492506010810190505b6305f5e1008310612281576305f5e100838161227757612276613633565b5b0492506008810190505b61271083106122a657612710838161229c5761229b613633565b5b0492506004810190505b606483106122c957606483816122bf576122be613633565b5b0492506002810190505b600a83106122d8576001810190505b80915050919050565b604051806040016040528060008152602001606081525090565b82805461230790612c83565b90600052602060002090601f0160209004810192826123295760008555612370565b82601f1061234257805160ff1916838001178555612370565b82800160010185558215612370579182015b8281111561236f578251825591602001919060010190612354565b5b50905061237d9190612381565b5090565b5b8082111561239a576000816000905550600101612382565b5090565b6000819050919050565b6123b18161239e565b82525050565b60006020820190506123cc60008301846123a8565b92915050565b6000604051905090565b600080fd5b600080fd5b60007fffffffff0000000000000000000000000000000000000000000000000000000082169050919050565b61241b816123e6565b811461242657600080fd5b50565b60008135905061243881612412565b92915050565b600060208284031215612454576124536123dc565b5b600061246284828501612429565b91505092915050565b60008115159050919050565b6124808161246b565b82525050565b600060208201905061249b6000830184612477565b92915050565b600081519050919050565b600082825260208201905092915050565b60005b838110156124db5780820151818401526020810190506124c0565b838111156124ea576000848401525b50505050565b6000601f19601f8301169050919050565b600061250c826124a1565b61251681856124ac565b93506125268185602086016124bd565b61252f816124f0565b840191505092915050565b600060208201905081810360008301526125548184612501565b905092915050565b6125658161239e565b811461257057600080fd5b50565b6000813590506125828161255c565b92915050565b60006020828403121561259e5761259d6123dc565b5b60006125ac84828501612573565b91505092915050565b600073ffffffffffffffffffffffffffffffffffffffff82169050919050565b60006125e0826125b5565b9050919050565b6125f0816125d5565b82525050565b600060208201905061260b60008301846125e7565b92915050565b61261a816125d5565b811461262557600080fd5b50565b60008135905061263781612611565b92915050565b600080fd5b600080fd5b7f4e487b7100000000000000000000000000000000000000000000000000000000600052604160045260246000fd5b61267f826124f0565b810181811067ffffffffffffffff8211171561269e5761269d612647565b5b80604052505050565b60006126b16123d2565b90506126bd8282612676565b919050565b600067ffffffffffffffff8211156126dd576126dc612647565b5b6126e6826124f0565b9050602081019050919050565b82818337600083830152505050565b6000612715612710846126c2565b6126a7565b90508281526020810184848401111561273157612730612642565b5b61273c8482856126f3565b509392505050565b600082601f8301126127595761275861263d565b5b8135612769848260208601612702565b91505092915050565b60008060006060848603121561278b5761278a6123dc565b5b600061279986828701612628565b935050602084013567ffffffffffffffff8111156127ba576127b96123e1565b5b6127c686828701612744565b92505060406127d786828701612573565b9150509250925092565b60006040820190506127f660008301856123a8565b61280360208301846123a8565b9392505050565b60008060408385031215612821576128206123dc565b5b600061282f85828601612628565b925050602061284085828601612573565b9150509250929050565b6000602082840312156128605761285f6123dc565b5b600061286e84828501612628565b91505092915050565b6000806000606084860312156128905761288f6123dc565b5b600061289e86828701612628565b93505060206128af86828701612628565b92505060406128c086828701612573565b9150509250925092565b600080604083850312156128e1576128e06123dc565b5b60006128ef85828601612573565b925050602061290085828601612573565b9150509250929050565b600081519050919050565b600082825260208201905092915050565b6000819050602082019050919050565b61293f8161239e565b82525050565b600082825260208201905092915050565b6000612961826124a1565b61296b8185612945565b935061297b8185602086016124bd565b612984816124f0565b840191505092915050565b60006040830160008301516129a76000860182612936565b50602083015184820360208601526129bf8282612956565b9150508091505092915050565b60006129d8838361298f565b905092915050565b6000602082019050919050565b60006129f88261290a565b612a028185612915565b935083602082028501612a1485612926565b8060005b85811015612a505784840389528151612a3185826129cc565b9450612a3c836129e0565b925060208a01995050600181019050612a18565b50829750879550505050505092915050565b60006020820190508181036000830152612a7c81846129ed565b905092915050565b612a8d8161246b565b8114612a9857600080fd5b50565b600081359050612aaa81612a84565b92915050565b60008060408385031215612ac757612ac66123dc565b5b6000612ad585828601612628565b9250506020612ae685828601612a9b565b9150509250929050565b600067ffffffffffffffff821115612b0b57612b0a612647565b5b612b14826124f0565b9050602081019050919050565b6000612b34612b2f84612af0565b6126a7565b905082815260208101848484011115612b5057612b4f612642565b5b612b5b8482856126f3565b509392505050565b600082601f830112612b7857612b7761263d565b5b8135612b88848260208601612b21565b91505092915050565b60008060008060808587031215612bab57612baa6123dc565b5b6000612bb987828801612628565b9450506020612bca87828801612628565b9350506040612bdb87828801612573565b925050606085013567ffffffffffffffff811115612bfc57612bfb6123e1565b5b612c0887828801612b63565b91505092959194509250565b60008060408385031215612c2b57612c2a6123dc565b5b6000612c3985828601612628565b9250506020612c4a85828601612628565b9150509250929050565b7f4e487b7100000000000000000000000000000000000000000000000000000000600052602260045260246000fd5b60006002820490506001821680612c9b57607f821691505b60208210811415612caf57612cae612c54565b5b50919050565b7f4552433732313a20617070726f76616c20746f2063757272656e74206f776e6560008201527f7200000000000000000000000000000000000000000000000000000000000000602082015250565b6000612d116021836124ac565b9150612d1c82612cb5565b604082019050919050565b60006020820190508181036000830152612d4081612d04565b9050919050565b7f4552433732313a20617070726f76652063616c6c6572206973206e6f7420746f60008201527f6b656e206f776e6572206f7220617070726f76656420666f7220616c6c000000602082015250565b6000612da3603d836124ac565b9150612dae82612d47565b604082019050919050565b60006020820190508181036000830152612dd281612d96565b9050919050565b7f4552433732313a2063616c6c6572206973206e6f7420746f6b656e206f776e6560008201527f72206f7220617070726f76656400000000000000000000000000000000000000602082015250565b6000612e35602d836124ac565b9150612e4082612dd9565b604082019050919050565b60006020820190508181036000830152612e6481612e28565b9050919050565b7f455243373231456e756d657261626c653a206f776e657220696e646578206f7560008201527f74206f6620626f756e6473000000000000000000000000000000000000000000602082015250565b6000612ec7602b836124ac565b9150612ed282612e6b565b604082019050919050565b60006020820190508181036000830152612ef681612eba565b9050919050565b7f4e487b7100000000000000000000000000000000000000000000000000000000600052601160045260246000fd5b6000612f378261239e565b91507fffffffffffffffffffffffffffffffffffffffffffffffffffffffffffffffff821415612f6a57612f69612efd565b5b600182019050919050565b7f4552433732313a20696e76616c696420746f6b656e2049440000000000000000600082015250565b6000612fab6018836124ac565b9150612fb682612f75565b602082019050919050565b60006020820190508181036000830152612fda81612f9e565b9050919050565b6000612fec8261239e565b9150612ff78361239e565b9250827fffffffffffffffffffffffffffffffffffffffffffffffffffffffffffffffff0382111561302c5761302b612efd565b5b828201905092915050565b7f4e487b7100000000000000000000000000000000000000000000000000000000600052603260045260246000fd5b600081905092915050565b600061307c826124a1565b6130868185613066565b93506130968185602086016124bd565b80840191505092915050565b60006130ae8285613071565b91506130ba8284613071565b91508190509392505050565b7f4f776e61626c653a206e6577206f776e657220697320746865207a65726f206160008201527f6464726573730000000000000000000000000000000000000000000000000000602082015250565b60006131226026836124ac565b915061312d826130c6565b604082019050919050565b6000602082019050818103600083015261315181613115565b9050919050565b7f4f776e61626c653a2063616c6c6572206973206e6f7420746865206f776e6572600082015250565b600061318e6020836124ac565b915061319982613158565b602082019050919050565b600060208201905081810360008301526131bd81613181565b9050919050565b7f4552433732313a206d696e7420746f20746865207a65726f2061646472657373600082015250565b60006131fa6020836124ac565b9150613205826131c4565b602082019050919050565b60006020820190508181036000830152613229816131ed565b9050919050565b7f4552433732313a20746f6b656e20616c7265616479206d696e74656400000000600082015250565b6000613266601c836124ac565b915061327182613230565b602082019050919050565b6000602082019050818103600083015261329581613259565b9050919050565b7f45524337323155524953746f726167653a2055524920736574206f66206e6f6e60008201527f6578697374656e7420746f6b656e000000000000000000000000000000000000602082015250565b60006132f8602e836124ac565b91506133038261329c565b604082019050919050565b60006020820190508181036000830152613327816132eb565b9050919050565b7f4552433732313a207472616e736665722066726f6d20696e636f72726563742060008201527f6f776e6572000000000000000000000000000000000000000000000000000000602082015250565b600061338a6025836124ac565b91506133958261332e565b604082019050919050565b600060208201905081810360008301526133b98161337d565b9050919050565b7f4552433732313a207472616e7366657220746f20746865207a65726f2061646460008201527f7265737300000000000000000000000000000000000000000000000000000000602082015250565b600061341c6024836124ac565b9150613427826133c0565b604082019050919050565b6000602082019050818103600083015261344b8161340f565b9050919050565b7f4552433732313a20617070726f766520746f2063616c6c657200000000000000600082015250565b60006134886019836124ac565b915061349382613452565b602082019050919050565b600060208201905081810360008301526134b78161347b565b9050919050565b7f4552433732313a207472616e7366657220746f206e6f6e20455243373231526560008201527f63656976657220696d706c656d656e7465720000000000000000000000000000602082015250565b600061351a6032836124ac565b9150613525826134be565b604082019050919050565b600060208201905081810360008301526135498161350d565b9050919050565b600081519050919050565b600082825260208201905092915050565b600061357782613550565b613581818561355b565b93506135918185602086016124bd565b61359a816124f0565b840191505092915050565b60006080820190506135ba60008301876125e7565b6135c760208301866125e7565b6135d460408301856123a8565b81810360608301526135e6818461356c565b905095945050505050565b60008151905061360081612412565b92915050565b60006020828403121561361c5761361b6123dc565b5b600061362a848285016135f1565b91505092915050565b7f4e487b7100000000000000000000000000000000000000000000000000000000600052601260045260246000fdfea2646970667358221220bcb3f4ce9d0d94f63215c6837603e6dfd94445b5950d663b4b8aebb60cc622f464736f6c634300080a0033",
  "linkReferences": {},
  "deployedLinkReferences": {}
}