{
  "_format": "hh-sol-artifact-1",
  "contractName": "MulX721",
  "sourceName": "contracts/MulX721.sol",
  "abi": [
    {
      "inputs": [],
      "stateMutability": "nonpayable",
      "type": "constructor"
    },
    {
      "anonymous": false,
      "inputs": [
        {
          "indexed": true,
          "internalType": "address",
          "name": "owner",
          "type": "address"
        },
        {
          "indexed": true,
          "internalType": "address",
          "name": "approved",
          "type": "address"
        },
        {
          "indexed": true,
          "internalType": "uint256",
          "name": "tokenId",
          "type": "uint256"
        }
      ],
      "name": "Approval",
      "type": "event"
    },
    {
      "anonymous": false,
      "inputs": [
        {
          "indexed": true,
          "internalType": "address",
          "name": "owner",
          "type": "address"
        },
        {
          "indexed": true,
          "internalType": "address",
          "name": "operator",
          "type": "address"
        },
        {
          "indexed": false,
          "internalType": "bool",
          "name": "approved",
          "type": "bool"
        }
      ],
      "name": "ApprovalForAll",
      "type": "event"
    },
    {
      "anonymous": false,
      "inputs": [
        {
          "indexed": false,
          "internalType": "uint256",
          "name": "_fromTokenId",
          "type": "uint256"
        },
        {
          "indexed": false,
          "internalType": "uint256",
          "name": "_toTokenId",
          "type": "uint256"
        }
      ],
      "name": "BatchMetadataUpdate",
      "type": "event"
    },
    {
      "anonymous": false,
      "inputs": [
        {
          "indexed": false,
          "internalType": "uint256",
          "name": "_tokenId",
          "type": "uint256"
        }
      ],
      "name": "MetadataUpdate",
      "type": "event"
    },
    {
      "anonymous": false,
      "inputs": [
        {
          "indexed": true,
          "internalType": "address",
          "name": "previousOwner",
          "type": "address"
        },
        {
          "indexed": true,
          "internalType": "address",
          "name": "newOwner",
          "type": "address"
        }
      ],
      "name": "OwnershipTransferred",
      "type": "event"
    },
    {
      "anonymous": false,
      "inputs": [
        {
          "indexed": true,
          "internalType": "address",
          "name": "from",
          "type": "address"
        },
        {
          "indexed": true,
          "internalType": "address",
          "name": "to",
          "type": "address"
        },
        {
          "indexed": true,
          "internalType": "uint256",
          "name": "tokenId",
          "type": "uint256"
        }
      ],
      "name": "Transfer",
      "type": "event"
    },
    {
      "inputs": [
        {
          "internalType": "uint256",
          "name": "",
          "type": "uint256"
        }
      ],
      "name": "NftPrice",
      "outputs": [
        {
          "internalType": "uint256",
          "name": "",
          "type": "uint256"
        }
      ],
      "stateMutability": "view",
      "type": "function"
    },
    {
      "inputs": [
        {
          "internalType": "address",
          "name": "to",
          "type": "address"
        },
        {
          "internalType": "uint256",
          "name": "tokenId",
          "type": "uint256"
        }
      ],
      "name": "approve",
      "outputs": [],
      "stateMutability": "nonpayable",
      "type": "function"
    },
    {
      "inputs": [
        {
          "internalType": "address",
          "name": "_owner",
          "type": "address"
        }
      ],
      "name": "balanceOf",
      "outputs": [
        {
          "internalType": "uint256",
          "name": "",
          "type": "uint256"
        }
      ],
      "stateMutability": "view",
      "type": "function"
    },
    {
      "inputs": [
        {
          "internalType": "uint256",
          "name": "_tokenId",
          "type": "uint256"
        }
      ],
      "name": "buyNFT",
      "outputs": [],
      "stateMutability": "nonpayable",
      "type": "function"
    },
    {
      "inputs": [],
      "name": "getAllNftList",
      "outputs": [
        {
          "components": [
            {
              "internalType": "uint256",
              "name": "nftTokenId",
              "type": "uint256"
            },
            {
              "internalType": "string",
              "name": "nftTokenURI",
              "type": "string"
            }
          ],
          "internalType": "struct MulX721.NftTokenData[]",
          "name": "",
          "type": "tuple[]"
        }
      ],
      "stateMutability": "view",
      "type": "function"
    },
    {
      "inputs": [
        {
          "internalType": "uint256",
          "name": "tokenId",
          "type": "uint256"
        }
      ],
      "name": "getApproved",
      "outputs": [
        {
          "internalType": "address",
          "name": "",
          "type": "address"
        }
      ],
      "stateMutability": "view",
      "type": "function"
    },
    {
      "inputs": [
        {
          "internalType": "uint256",
          "name": "_tokenId",
          "type": "uint256"
        }
      ],
      "name": "getNftPrice",
      "outputs": [
        {
          "internalType": "uint256",
          "name": "",
          "type": "uint256"
        }
      ],
      "stateMutability": "view",
      "type": "function"
    },
    {
      "inputs": [
        {
          "internalType": "address",
          "name": "_nftTokenOwner",
          "type": "address"
        }
      ],
      "name": "getNftTokenList",
      "outputs": [
        {
          "components": [
            {
              "internalType": "uint256",
              "name": "nftTokenId",
              "type": "uint256"
            },
            {
              "internalType": "string",
              "name": "nftTokenURI",
              "type": "string"
            }
          ],
          "internalType": "struct MulX721.NftTokenData[]",
          "name": "",
          "type": "tuple[]"
        }
      ],
      "stateMutability": "view",
      "type": "function"
    },
    {
      "inputs": [
        {
          "internalType": "uint256",
          "name": "tokenId",
          "type": "uint256"
        }
      ],
      "name": "getOwnerOfTokenId",
      "outputs": [
        {
          "internalType": "address",
          "name": "",
          "type": "address"
        }
      ],
      "stateMutability": "view",
      "type": "function"
    },
    {
      "inputs": [],
      "name": "getTokenId",
      "outputs": [
        {
          "internalType": "uint256",
          "name": "",
          "type": "uint256"
        }
      ],
      "stateMutability": "view",
      "type": "function"
    },
    {
      "inputs": [
        {
          "internalType": "address",
          "name": "owner",
          "type": "address"
        },
        {
          "internalType": "address",
          "name": "operator",
          "type": "address"
        }
      ],
      "name": "isApprovedForAll",
      "outputs": [
        {
          "internalType": "bool",
          "name": "",
          "type": "bool"
        }
      ],
      "stateMutability": "view",
      "type": "function"
    },
    {
      "inputs": [
        {
          "internalType": "uint256",
          "name": "",
          "type": "uint256"
        }
      ],
      "name": "metadataURIs",
      "outputs": [
        {
          "internalType": "string",
          "name": "",
          "type": "string"
        }
      ],
      "stateMutability": "view",
      "type": "function"
    },
    {
      "inputs": [
        {
          "internalType": "address",
          "name": "recipient",
          "type": "address"
        },
        {
          "internalType": "string",
          "name": "tokenURI",
          "type": "string"
        },
        {
          "internalType": "uint256",
          "name": "_nftPrice",
          "type": "uint256"
        }
      ],
      "name": "mintNFT",
      "outputs": [
        {
          "internalType": "uint256",
          "name": "",
          "type": "uint256"
        },
        {
          "internalType": "uint256",
          "name": "",
          "type": "uint256"
        }
      ],
      "stateMutability": "nonpayable",
      "type": "function"
    },
    {
      "inputs": [],
      "name": "name",
      "outputs": [
        {
          "internalType": "string",
          "name": "",
          "type": "string"
        }
      ],
      "stateMutability": "view",
      "type": "function"
    },
    {
      "inputs": [],
      "name": "owner",
      "outputs": [
        {
          "internalType": "address",
          "name": "",
          "type": "address"
        }
      ],
      "stateMutability": "view",
      "type": "function"
    },
    {
      "inputs": [
        {
          "internalType": "uint256",
          "name": "tokenId",
          "type": "uint256"
        }
      ],
      "name": "ownerOf",
      "outputs": [
        {
          "internalType": "address",
          "name": "",
          "type": "address"
        }
      ],
      "stateMutability": "view",
      "type": "function"
    },
    {
      "inputs": [],
      "name": "renounceOwnership",
      "outputs": [],
      "stateMutability": "nonpayable",
      "type": "function"
    },
    {
      "inputs": [
        {
          "internalType": "address",
          "name": "from",
          "type": "address"
        },
        {
          "internalType": "address",
          "name": "to",
          "type": "address"
        },
        {
          "internalType": "uint256",
          "name": "tokenId",
          "type": "uint256"
        }
      ],
      "name": "safeTransferFrom",
      "outputs": [],
      "stateMutability": "nonpayable",
      "type": "function"
    },
    {
      "inputs": [
        {
          "internalType": "address",
          "name": "from",
          "type": "address"
        },
        {
          "internalType": "address",
          "name": "to",
          "type": "address"
        },
        {
          "internalType": "uint256",
          "name": "tokenId",
          "type": "uint256"
        },
        {
          "internalType": "bytes",
          "name": "data",
          "type": "bytes"
        }
      ],
      "name": "safeTransferFrom",
      "outputs": [],
      "stateMutability": "nonpayable",
      "type": "function"
    },
    {
      "inputs": [
        {
          "internalType": "address",
          "name": "operator",
          "type": "address"
        },
        {
          "internalType": "bool",
          "name": "approved",
          "type": "bool"
        }
      ],
      "name": "setApprovalForAll",
      "outputs": [],
      "stateMutability": "nonpayable",
      "type": "function"
    },
    {
      "inputs": [
        {
          "internalType": "uint256",
          "name": "_tokenId",
          "type": "uint256"
        },
        {
          "internalType": "uint256",
          "name": "_price",
          "type": "uint256"
        }
      ],
      "name": "setNftPrice",
      "outputs": [
        {
          "internalType": "uint256",
          "name": "",
          "type": "uint256"
        }
      ],
      "stateMutability": "nonpayable",
      "type": "function"
    },
    {
      "inputs": [
        {
          "internalType": "address",
          "name": "tokenAddress",
          "type": "address"
        }
      ],
      "name": "setToken",
      "outputs": [
        {
          "internalType": "bool",
          "name": "",
          "type": "bool"
        }
      ],
      "stateMutability": "nonpayable",
      "type": "function"
    },
    {
      "inputs": [
        {
          "internalType": "bytes4",
          "name": "interfaceId",
          "type": "bytes4"
        }
      ],
      "name": "supportsInterface",
      "outputs": [
        {
          "internalType": "bool",
          "name": "",
          "type": "bool"
        }
      ],
      "stateMutability": "view",
      "type": "function"
    },
    {
      "inputs": [],
      "name": "symbol",
      "outputs": [
        {
          "internalType": "string",
          "name": "",
          "type": "string"
        }
      ],
      "stateMutability": "view",
      "type": "function"
    },
    {
      "inputs": [
        {
          "internalType": "address",
          "name": "_owner",
          "type": "address"
        },
        {
          "internalType": "uint256",
          "name": "_index",
          "type": "uint256"
        }
      ],
      "name": "tokenOfOwnerByIndex",
      "outputs": [
        {
          "internalType": "uint256",
          "name": "",
          "type": "uint256"
        }
      ],
      "stateMutability": "view",
      "type": "function"
    },
    {
      "inputs": [
        {
          "internalType": "uint256",
          "name": "tokenId",
          "type": "uint256"
        }
      ],
      "name": "tokenURI",
      "outputs": [
        {
          "internalType": "string",
          "name": "",
          "type": "string"
        }
      ],
      "stateMutability": "view",
      "type": "function"
    },
    {
      "inputs": [],
      "name": "totalSupply",
      "outputs": [
        {
          "internalType": "uint256",
          "name": "",
          "type": "uint256"
        }
      ],
      "stateMutability": "view",
      "type": "function"
    },
    {
      "inputs": [
        {
          "internalType": "address",
          "name": "from",
          "type": "address"
        },
        {
          "internalType": "address",
          "name": "to",
          "type": "address"
        },
        {
          "internalType": "uint256",
          "name": "tokenId",
          "type": "uint256"
        }
      ],
      "name": "transferFrom",
      "outputs": [],
      "stateMutability": "nonpayable",
      "type": "function"
    },
    {
      "inputs": [
        {
          "internalType": "address",
          "name": "newOwner",
          "type": "address"
        }
      ],
      "name": "transferOwnership",
      "outputs": [],
      "stateMutability": "nonpayable",
      "type": "function"
    }
  ],
  "bytecode": "0x60806040523480156200001157600080fd5b506040518060400160405280600681526020017f4d794e46547300000000000000000000000000000000000000000000000000008152506040518060400160405280600481526020017f4d4e465400000000000000000000000000000000000000000000000000000000815250816000908051906020019062000096929190620001b5565b508060019080519060200190620000af929190620001b5565b505050620000d2620000c6620000e760201b60201c565b620000ef60201b60201c565b67016345785d8a0000600a81905550620002ca565b600033905090565b6000600760009054906101000a900473ffffffffffffffffffffffffffffffffffffffff16905081600760006101000a81548173ffffffffffffffffffffffffffffffffffffffff021916908373ffffffffffffffffffffffffffffffffffffffff1602179055508173ffffffffffffffffffffffffffffffffffffffff168173ffffffffffffffffffffffffffffffffffffffff167f8be0079c531659141344cd1fd0a4f28419497f9722a3daafe3b4186f6b6457e060405160405180910390a35050565b828054620001c39062000294565b90600052602060002090601f016020900481019282620001e7576000855562000233565b82601f106200020257805160ff191683800117855562000233565b8280016001018555821562000233579182015b828111156200023257825182559160200191906001019062000215565b5b50905062000242919062000246565b5090565b5b808211156200026157600081600090555060010162000247565b5090565b7f4e487b7100000000000000000000000000000000000000000000000000000000600052602260045260246000fd5b60006002820490506001821680620002ad57607f821691505b60208210811415620002c457620002c362000265565b5b50919050565b6139f080620002da6000396000f3fe608060405234801561001057600080fd5b50600436106101cf5760003560e01c80636352211e1161010457806395d89b41116100a2578063b88d4fde11610071578063b88d4fde1461058f578063c87b56dd146105ab578063e985e9c5146105db578063f2fde38b1461060b576101cf565b806395d89b41146105075780639b934b5214610525578063a22cb46514610543578063af9030a11461055f576101cf565b80637a336a48116100de5780637a336a48146104595780637a61013f146104895780637bf0989a146104b95780638da5cb5b146104e9576101cf565b80636352211e146103ef57806370a082311461041f578063715018a61461044f576101cf565b806318160ddd1161017157806342842e0e1161014b57806342842e0e1461035757806348688b3c146103735780634ed5c558146103a357806351ed8288146103d3576101cf565b806318160ddd146102ed57806323b872dd1461030b5780632f745c5914610327576101cf565b8063081812fc116101ad578063081812fc1461024057806308598df014610270578063095ea7b3146102a1578063144fa6d7146102bd576101cf565b8063010a38f5146101d457806301ffc9a7146101f257806306fdde0314610222575b600080fd5b6101dc610627565b6040516101e991906125a2565b60405180910390f35b61020c60048036038101906102079190612629565b610638565b6040516102199190612671565b60405180910390f35b61022a610699565b6040516102379190612725565b60405180910390f35b61025a60048036038101906102559190612773565b61072b565b60405161026791906127e1565b60405180910390f35b61028a6004803603810190610285919061295d565b610771565b6040516102989291906129cc565b60405180910390f35b6102bb60048036038101906102b691906129f5565b6107e2565b005b6102d760048036038101906102d29190612a35565b6108fa565b6040516102e49190612671565b60405180910390f35b6102f5610988565b60405161030291906125a2565b60405180910390f35b61032560048036038101906103209190612a62565b610999565b005b610341600480360381019061033c91906129f5565b6109f9565b60405161034e91906125a2565b60405180910390f35b610371600480360381019061036c9190612a62565b610ad8565b005b61038d60048036038101906103889190612773565b610af8565b60405161039a91906127e1565b60405180910390f35b6103bd60048036038101906103b89190612773565b610b0a565b6040516103ca9190612725565b60405180910390f35b6103ed60048036038101906103e89190612773565b610baa565b005b61040960048036038101906104049190612773565b610d6e565b60405161041691906127e1565b60405180910390f35b61043960048036038101906104349190612a35565b610df5565b60405161044691906125a2565b60405180910390f35b610457610e79565b005b610473600480360381019061046e9190612773565b610e8d565b60405161048091906125a2565b60405180910390f35b6104a3600480360381019061049e9190612ab5565b610ea5565b6040516104b091906125a2565b60405180910390f35b6104d360048036038101906104ce9190612773565b610ece565b6040516104e091906125a2565b60405180910390f35b6104f1610eeb565b6040516104fe91906127e1565b60405180910390f35b61050f610f15565b60405161051c9190612725565b60405180910390f35b61052d610fa7565b60405161053a9190612c4d565b60405180910390f35b61055d60048036038101906105589190612c9b565b611089565b005b61057960048036038101906105749190612a35565b61109f565b6040516105869190612c4d565b60405180910390f35b6105a960048036038101906105a49190612d7c565b61117f565b005b6105c560048036038101906105c09190612773565b6111e1565b6040516105d29190612725565b60405180910390f35b6105f560048036038101906105f09190612dff565b6112f4565b6040516106029190612671565b60405180910390f35b61062560048036038101906106209190612a35565b611388565b005b6000610633600861140c565b905090565b6000634906490660e01b7bffffffffffffffffffffffffffffffffffffffffffffffffffffffff1916827bffffffffffffffffffffffffffffffffffffffffffffffffffffffff1916148061069257506106918261141a565b5b9050919050565b6060600080546106a890612e6e565b80601f01602080910402602001604051908101604052809291908181526020018280546106d490612e6e565b80156107215780601f106106f657610100808354040283529160200191610721565b820191906000526020600020905b81548152906001019060200180831161070457829003601f168201915b5050505050905090565b6000610736826114fc565b6004600083815260200190815260200160002060009054906101000a900473ffffffffffffffffffffffffffffffffffffffff169050919050565b60008061077c611547565b61078660086115c5565b6000610792600861140c565b905061079e86826115db565b6107a881866117f9565b83600c60008381526020019081526020016000208190555080600c6000838152602001908152602001600020549250925050935093915050565b60006107ed82610d6e565b90508073ffffffffffffffffffffffffffffffffffffffff168373ffffffffffffffffffffffffffffffffffffffff16141561085e576040517f08c379a000000000000000000000000000000000000000000000000000000000815260040161085590612f12565b60405180910390fd5b8073ffffffffffffffffffffffffffffffffffffffff1661087d6118a4565b73ffffffffffffffffffffffffffffffffffffffff1614806108ac57506108ab816108a66118a4565b6112f4565b5b6108eb576040517f08c379a00000000000000000000000000000000000000000000000000000000081526004016108e290612fa4565b60405180910390fd5b6108f583836118ac565b505050565b6000610904611547565b600073ffffffffffffffffffffffffffffffffffffffff168273ffffffffffffffffffffffffffffffffffffffff16141561093e57600080fd5b81600960006101000a81548173ffffffffffffffffffffffffffffffffffffffff021916908373ffffffffffffffffffffffffffffffffffffffff16021790555060019050919050565b6000610994600861140c565b905090565b6109aa6109a46118a4565b82611965565b6109e9576040517f08c379a00000000000000000000000000000000000000000000000000000000081526004016109e090613036565b60405180910390fd5b6109f48383836119fa565b505050565b6000610a0483610df5565b8210610a45576040517f08c379a0000000000000000000000000000000000000000000000000000000008152600401610a3c906130c8565b60405180910390fd5b600080600190505b610a55610988565b8111610acb578473ffffffffffffffffffffffffffffffffffffffff16610a7b82610d6e565b73ffffffffffffffffffffffffffffffffffffffff161415610ab85783821415610aa9578092505050610ad2565b8180610ab490613117565b9250505b8080610ac390613117565b915050610a4d565b5060009150505b92915050565b610af38383836040518060200160405280600081525061117f565b505050565b6000610b0382610d6e565b9050919050565b600b6020528060005260406000206000915090508054610b2990612e6e565b80601f0160208091040260200160405190810160405280929190818152602001828054610b5590612e6e565b8015610ba25780601f10610b7757610100808354040283529160200191610ba2565b820191906000526020600020905b815481529060010190602001808311610b8557829003601f168201915b505050505081565b600960009054906101000a900473ffffffffffffffffffffffffffffffffffffffff1673ffffffffffffffffffffffffffffffffffffffff166323b872dd3330600c6000868152602001908152602001600020546040518463ffffffff1660e01b8152600401610c1c93929190613160565b6020604051808303816000875af1158015610c3b573d6000803e3d6000fd5b505050506040513d601f19601f82011682018060405250810190610c5f91906131ac565b610c9e576040517f08c379a0000000000000000000000000000000000000000000000000000000008152600401610c9590613225565b60405180910390fd5b6000610ca982610d6e565b9050600960009054906101000a900473ffffffffffffffffffffffffffffffffffffffff1673ffffffffffffffffffffffffffffffffffffffff1663a9059cbb82600c6000868152602001908152602001600020546040518363ffffffff1660e01b8152600401610d1b9291906132a4565b6020604051808303816000875af1158015610d3a573d6000803e3d6000fd5b505050506040513d601f19601f82011682018060405250810190610d5e91906131ac565b50610d6a813384610ad8565b5050565b600080610d7a83611cf4565b9050600073ffffffffffffffffffffffffffffffffffffffff168173ffffffffffffffffffffffffffffffffffffffff161415610dec576040517f08c379a0000000000000000000000000000000000000000000000000000000008152600401610de390613319565b60405180910390fd5b80915050919050565b600080600090506000600190505b610e0b610988565b8111610e6f578373ffffffffffffffffffffffffffffffffffffffff16610e3182610d6e565b73ffffffffffffffffffffffffffffffffffffffff161415610e5c578180610e5890613117565b9250505b8080610e6790613117565b915050610e03565b5080915050919050565b610e81611547565b610e8b6000611d31565b565b600c6020528060005260406000206000915090505481565b6000610eaf611547565b81600c6000858152602001908152602001600020819055905092915050565b6000600c6000838152602001908152602001600020549050919050565b6000600760009054906101000a900473ffffffffffffffffffffffffffffffffffffffff16905090565b606060018054610f2490612e6e565b80601f0160208091040260200160405190810160405280929190818152602001828054610f5090612e6e565b8015610f9d5780601f10610f7257610100808354040283529160200191610f9d565b820191906000526020600020905b815481529060010190602001808311610f8057829003601f168201915b5050505050905090565b60606000610fb5600861140c565b905060008167ffffffffffffffff811115610fd357610fd2612832565b5b60405190808252806020026020018201604052801561100c57816020015b610ff96124cc565b815260200190600190039081610ff15790505b50905060005b828110156110805760006001826110299190613339565b90506000611036826111e1565b90506040518060400160405280838152602001828152508484815181106110605761105f61338f565b5b60200260200101819052505050808061107890613117565b915050611012565b50809250505090565b61109b6110946118a4565b8383611df7565b5050565b606060006110ac83610df5565b905060008167ffffffffffffffff8111156110ca576110c9612832565b5b60405190808252806020026020018201604052801561110357816020015b6110f06124cc565b8152602001906001900390816110e85790505b50905060005b8281101561117457600061111d86836109f9565b9050600061112a826111e1565b90506040518060400160405280838152602001828152508484815181106111545761115361338f565b5b60200260200101819052505050808061116c90613117565b915050611109565b508092505050919050565b61119061118a6118a4565b83611965565b6111cf576040517f08c379a00000000000000000000000000000000000000000000000000000000081526004016111c690613036565b60405180910390fd5b6111db84848484611f64565b50505050565b60606111ec826114fc565b600060066000848152602001908152602001600020805461120c90612e6e565b80601f016020809104026020016040519081016040528092919081815260200182805461123890612e6e565b80156112855780601f1061125a57610100808354040283529160200191611285565b820191906000526020600020905b81548152906001019060200180831161126857829003601f168201915b505050505090506000611296611fc0565b90506000815114156112ac5781925050506112ef565b6000825111156112e15780826040516020016112c99291906133fa565b604051602081830303815290604052925050506112ef565b6112ea84611fd7565b925050505b919050565b6000600560008473ffffffffffffffffffffffffffffffffffffffff1673ffffffffffffffffffffffffffffffffffffffff16815260200190815260200160002060008373ffffffffffffffffffffffffffffffffffffffff1673ffffffffffffffffffffffffffffffffffffffff16815260200190815260200160002060009054906101000a900460ff16905092915050565b611390611547565b600073ffffffffffffffffffffffffffffffffffffffff168173ffffffffffffffffffffffffffffffffffffffff161415611400576040517f08c379a00000000000000000000000000000000000000000000000000000000081526004016113f790613490565b60405180910390fd5b61140981611d31565b50565b600081600001549050919050565b60007f80ac58cd000000000000000000000000000000000000000000000000000000007bffffffffffffffffffffffffffffffffffffffffffffffffffffffff1916827bffffffffffffffffffffffffffffffffffffffffffffffffffffffff191614806114e557507f5b5e139f000000000000000000000000000000000000000000000000000000007bffffffffffffffffffffffffffffffffffffffffffffffffffffffff1916827bffffffffffffffffffffffffffffffffffffffffffffffffffffffff1916145b806114f557506114f48261203f565b5b9050919050565b611505816120a9565b611544576040517f08c379a000000000000000000000000000000000000000000000000000000000815260040161153b90613319565b60405180910390fd5b50565b61154f6118a4565b73ffffffffffffffffffffffffffffffffffffffff1661156d610eeb565b73ffffffffffffffffffffffffffffffffffffffff16146115c3576040517f08c379a00000000000000000000000000000000000000000000000000000000081526004016115ba906134fc565b60405180910390fd5b565b6001816000016000828254019250508190555050565b600073ffffffffffffffffffffffffffffffffffffffff168273ffffffffffffffffffffffffffffffffffffffff16141561164b576040517f08c379a000000000000000000000000000000000000000000000000000000000815260040161164290613568565b60405180910390fd5b611654816120a9565b15611694576040517f08c379a000000000000000000000000000000000000000000000000000000000815260040161168b906135d4565b60405180910390fd5b6116a26000838360016120ea565b6116ab816120a9565b156116eb576040517f08c379a00000000000000000000000000000000000000000000000000000000081526004016116e2906135d4565b60405180910390fd5b6001600360008473ffffffffffffffffffffffffffffffffffffffff1673ffffffffffffffffffffffffffffffffffffffff16815260200190815260200160002060008282540192505081905550816002600083815260200190815260200160002060006101000a81548173ffffffffffffffffffffffffffffffffffffffff021916908373ffffffffffffffffffffffffffffffffffffffff160217905550808273ffffffffffffffffffffffffffffffffffffffff16600073ffffffffffffffffffffffffffffffffffffffff167fddf252ad1be2c89b69c2b068fc378daa952ba7f163c4a11628f55a4df523b3ef60405160405180910390a46117f56000838360016120f0565b5050565b611802826120a9565b611841576040517f08c379a000000000000000000000000000000000000000000000000000000000815260040161183890613666565b60405180910390fd5b806006600084815260200190815260200160002090805190602001906118689291906124e6565b507ff8e1a15aba9398e019f0b49df1a4fde98ee17ae345cb5f6b5e2c27f5033e8ce78260405161189891906125a2565b60405180910390a15050565b600033905090565b816004600083815260200190815260200160002060006101000a81548173ffffffffffffffffffffffffffffffffffffffff021916908373ffffffffffffffffffffffffffffffffffffffff160217905550808273ffffffffffffffffffffffffffffffffffffffff1661191f83610d6e565b73ffffffffffffffffffffffffffffffffffffffff167f8c5be1e5ebec7d5bd14f71427d1e84f3dd0314c0f7b2291e5b200ac8c7c3b92560405160405180910390a45050565b60008061197183610d6e565b90508073ffffffffffffffffffffffffffffffffffffffff168473ffffffffffffffffffffffffffffffffffffffff1614806119b357506119b281856112f4565b5b806119f157508373ffffffffffffffffffffffffffffffffffffffff166119d98461072b565b73ffffffffffffffffffffffffffffffffffffffff16145b91505092915050565b8273ffffffffffffffffffffffffffffffffffffffff16611a1a82610d6e565b73ffffffffffffffffffffffffffffffffffffffff1614611a70576040517f08c379a0000000000000000000000000000000000000000000000000000000008152600401611a67906136f8565b60405180910390fd5b600073ffffffffffffffffffffffffffffffffffffffff168273ffffffffffffffffffffffffffffffffffffffff161415611ae0576040517f08c379a0000000000000000000000000000000000000000000000000000000008152600401611ad79061378a565b60405180910390fd5b611aed83838360016120ea565b8273ffffffffffffffffffffffffffffffffffffffff16611b0d82610d6e565b73ffffffffffffffffffffffffffffffffffffffff1614611b63576040517f08c379a0000000000000000000000000000000000000000000000000000000008152600401611b5a906136f8565b60405180910390fd5b6004600082815260200190815260200160002060006101000a81549073ffffffffffffffffffffffffffffffffffffffff02191690556001600360008573ffffffffffffffffffffffffffffffffffffffff1673ffffffffffffffffffffffffffffffffffffffff168152602001908152602001600020600082825403925050819055506001600360008473ffffffffffffffffffffffffffffffffffffffff1673ffffffffffffffffffffffffffffffffffffffff16815260200190815260200160002060008282540192505081905550816002600083815260200190815260200160002060006101000a81548173ffffffffffffffffffffffffffffffffffffffff021916908373ffffffffffffffffffffffffffffffffffffffff160217905550808273ffffffffffffffffffffffffffffffffffffffff168473ffffffffffffffffffffffffffffffffffffffff167fddf252ad1be2c89b69c2b068fc378daa952ba7f163c4a11628f55a4df523b3ef60405160405180910390a4611cef83838360016120f0565b505050565b60006002600083815260200190815260200160002060009054906101000a900473ffffffffffffffffffffffffffffffffffffffff169050919050565b6000600760009054906101000a900473ffffffffffffffffffffffffffffffffffffffff16905081600760006101000a81548173ffffffffffffffffffffffffffffffffffffffff021916908373ffffffffffffffffffffffffffffffffffffffff1602179055508173ffffffffffffffffffffffffffffffffffffffff168173ffffffffffffffffffffffffffffffffffffffff167f8be0079c531659141344cd1fd0a4f28419497f9722a3daafe3b4186f6b6457e060405160405180910390a35050565b8173ffffffffffffffffffffffffffffffffffffffff168373ffffffffffffffffffffffffffffffffffffffff161415611e66576040517f08c379a0000000000000000000000000000000000000000000000000000000008152600401611e5d906137f6565b60405180910390fd5b80600560008573ffffffffffffffffffffffffffffffffffffffff1673ffffffffffffffffffffffffffffffffffffffff16815260200190815260200160002060008473ffffffffffffffffffffffffffffffffffffffff1673ffffffffffffffffffffffffffffffffffffffff16815260200190815260200160002060006101000a81548160ff0219169083151502179055508173ffffffffffffffffffffffffffffffffffffffff168373ffffffffffffffffffffffffffffffffffffffff167f17307eab39ab6107e8899845ad3d59bd9653f200f220920489ca2b5937696c3183604051611f579190612671565b60405180910390a3505050565b611f6f8484846119fa565b611f7b848484846120f6565b611fba576040517f08c379a0000000000000000000000000000000000000000000000000000000008152600401611fb190613888565b60405180910390fd5b50505050565b606060405180602001604052806000815250905090565b6060611fe2826114fc565b6000611fec611fc0565b9050600081511161200c5760405180602001604052806000815250612037565b806120168461227e565b6040516020016120279291906133fa565b6040516020818303038152906040525b915050919050565b60007f01ffc9a7000000000000000000000000000000000000000000000000000000007bffffffffffffffffffffffffffffffffffffffffffffffffffffffff1916827bffffffffffffffffffffffffffffffffffffffffffffffffffffffff1916149050919050565b60008073ffffffffffffffffffffffffffffffffffffffff166120cb83611cf4565b73ffffffffffffffffffffffffffffffffffffffff1614159050919050565b50505050565b50505050565b60006121178473ffffffffffffffffffffffffffffffffffffffff16612356565b15612271578373ffffffffffffffffffffffffffffffffffffffff1663150b7a026121406118a4565b8786866040518563ffffffff1660e01b815260040161216294939291906138fd565b6020604051808303816000875af192505050801561219e57506040513d601f19601f8201168201806040525081019061219b919061395e565b60015b612221573d80600081146121ce576040519150601f19603f3d011682016040523d82523d6000602084013e6121d3565b606091505b50600081511415612219576040517f08c379a000000000000000000000000000000000000000000000000000000000815260040161221090613888565b60405180910390fd5b805181602001fd5b63150b7a0260e01b7bffffffffffffffffffffffffffffffffffffffffffffffffffffffff1916817bffffffffffffffffffffffffffffffffffffffffffffffffffffffff191614915050612276565b600190505b949350505050565b60606000600161228d84612379565b01905060008167ffffffffffffffff8111156122ac576122ab612832565b5b6040519080825280601f01601f1916602001820160405280156122de5781602001600182028036833780820191505090505b509050600082602001820190505b60011561234b578080600190039150507f3031323334353637383961626364656600000000000000000000000000000000600a86061a8153600a85816123355761233461398b565b5b04945060008514156123465761234b565b6122ec565b819350505050919050565b6000808273ffffffffffffffffffffffffffffffffffffffff163b119050919050565b600080600090507a184f03e93ff9f4daa797ed6e38ed64bf6a1f01000000000000000083106123d7577a184f03e93ff9f4daa797ed6e38ed64bf6a1f01000000000000000083816123cd576123cc61398b565b5b0492506040810190505b6d04ee2d6d415b85acef81000000008310612414576d04ee2d6d415b85acef8100000000838161240a5761240961398b565b5b0492506020810190505b662386f26fc10000831061244357662386f26fc1000083816124395761243861398b565b5b0492506010810190505b6305f5e100831061246c576305f5e10083816124625761246161398b565b5b0492506008810190505b61271083106124915761271083816124875761248661398b565b5b0492506004810190505b606483106124b457606483816124aa576124a961398b565b5b0492506002810190505b600a83106124c3576001810190505b80915050919050565b604051806040016040528060008152602001606081525090565b8280546124f290612e6e565b90600052602060002090601f016020900481019282612514576000855561255b565b82601f1061252d57805160ff191683800117855561255b565b8280016001018555821561255b579182015b8281111561255a57825182559160200191906001019061253f565b5b509050612568919061256c565b5090565b5b8082111561258557600081600090555060010161256d565b5090565b6000819050919050565b61259c81612589565b82525050565b60006020820190506125b76000830184612593565b92915050565b6000604051905090565b600080fd5b600080fd5b60007fffffffff0000000000000000000000000000000000000000000000000000000082169050919050565b612606816125d1565b811461261157600080fd5b50565b600081359050612623816125fd565b92915050565b60006020828403121561263f5761263e6125c7565b5b600061264d84828501612614565b91505092915050565b60008115159050919050565b61266b81612656565b82525050565b60006020820190506126866000830184612662565b92915050565b600081519050919050565b600082825260208201905092915050565b60005b838110156126c65780820151818401526020810190506126ab565b838111156126d5576000848401525b50505050565b6000601f19601f8301169050919050565b60006126f78261268c565b6127018185612697565b93506127118185602086016126a8565b61271a816126db565b840191505092915050565b6000602082019050818103600083015261273f81846126ec565b905092915050565b61275081612589565b811461275b57600080fd5b50565b60008135905061276d81612747565b92915050565b600060208284031215612789576127886125c7565b5b60006127978482850161275e565b91505092915050565b600073ffffffffffffffffffffffffffffffffffffffff82169050919050565b60006127cb826127a0565b9050919050565b6127db816127c0565b82525050565b60006020820190506127f660008301846127d2565b92915050565b612805816127c0565b811461281057600080fd5b50565b600081359050612822816127fc565b92915050565b600080fd5b600080fd5b7f4e487b7100000000000000000000000000000000000000000000000000000000600052604160045260246000fd5b61286a826126db565b810181811067ffffffffffffffff8211171561288957612888612832565b5b80604052505050565b600061289c6125bd565b90506128a88282612861565b919050565b600067ffffffffffffffff8211156128c8576128c7612832565b5b6128d1826126db565b9050602081019050919050565b82818337600083830152505050565b60006129006128fb846128ad565b612892565b90508281526020810184848401111561291c5761291b61282d565b5b6129278482856128de565b509392505050565b600082601f83011261294457612943612828565b5b81356129548482602086016128ed565b91505092915050565b600080600060608486031215612976576129756125c7565b5b600061298486828701612813565b935050602084013567ffffffffffffffff8111156129a5576129a46125cc565b5b6129b18682870161292f565b92505060406129c28682870161275e565b9150509250925092565b60006040820190506129e16000830185612593565b6129ee6020830184612593565b9392505050565b60008060408385031215612a0c57612a0b6125c7565b5b6000612a1a85828601612813565b9250506020612a2b8582860161275e565b9150509250929050565b600060208284031215612a4b57612a4a6125c7565b5b6000612a5984828501612813565b91505092915050565b600080600060608486031215612a7b57612a7a6125c7565b5b6000612a8986828701612813565b9350506020612a9a86828701612813565b9250506040612aab8682870161275e565b9150509250925092565b60008060408385031215612acc57612acb6125c7565b5b6000612ada8582860161275e565b9250506020612aeb8582860161275e565b9150509250929050565b600081519050919050565b600082825260208201905092915050565b6000819050602082019050919050565b612b2a81612589565b82525050565b600082825260208201905092915050565b6000612b4c8261268c565b612b568185612b30565b9350612b668185602086016126a8565b612b6f816126db565b840191505092915050565b6000604083016000830151612b926000860182612b21565b5060208301518482036020860152612baa8282612b41565b9150508091505092915050565b6000612bc38383612b7a565b905092915050565b6000602082019050919050565b6000612be382612af5565b612bed8185612b00565b935083602082028501612bff85612b11565b8060005b85811015612c3b5784840389528151612c1c8582612bb7565b9450612c2783612bcb565b925060208a01995050600181019050612c03565b50829750879550505050505092915050565b60006020820190508181036000830152612c678184612bd8565b905092915050565b612c7881612656565b8114612c8357600080fd5b50565b600081359050612c9581612c6f565b92915050565b60008060408385031215612cb257612cb16125c7565b5b6000612cc085828601612813565b9250506020612cd185828601612c86565b9150509250929050565b600067ffffffffffffffff821115612cf657612cf5612832565b5b612cff826126db565b9050602081019050919050565b6000612d1f612d1a84612cdb565b612892565b905082815260208101848484011115612d3b57612d3a61282d565b5b612d468482856128de565b509392505050565b600082601f830112612d6357612d62612828565b5b8135612d73848260208601612d0c565b91505092915050565b60008060008060808587031215612d9657612d956125c7565b5b6000612da487828801612813565b9450506020612db587828801612813565b9350506040612dc68782880161275e565b925050606085013567ffffffffffffffff811115612de757612de66125cc565b5b612df387828801612d4e565b91505092959194509250565b60008060408385031215612e1657612e156125c7565b5b6000612e2485828601612813565b9250506020612e3585828601612813565b9150509250929050565b7f4e487b7100000000000000000000000000000000000000000000000000000000600052602260045260246000fd5b60006002820490506001821680612e8657607f821691505b60208210811415612e9a57612e99612e3f565b5b50919050565b7f4552433732313a20617070726f76616c20746f2063757272656e74206f776e6560008201527f7200000000000000000000000000000000000000000000000000000000000000602082015250565b6000612efc602183612697565b9150612f0782612ea0565b604082019050919050565b60006020820190508181036000830152612f2b81612eef565b9050919050565b7f4552433732313a20617070726f76652063616c6c6572206973206e6f7420746f60008201527f6b656e206f776e6572206f7220617070726f76656420666f7220616c6c000000602082015250565b6000612f8e603d83612697565b9150612f9982612f32565b604082019050919050565b60006020820190508181036000830152612fbd81612f81565b9050919050565b7f4552433732313a2063616c6c6572206973206e6f7420746f6b656e206f776e6560008201527f72206f7220617070726f76656400000000000000000000000000000000000000602082015250565b6000613020602d83612697565b915061302b82612fc4565b604082019050919050565b6000602082019050818103600083015261304f81613013565b9050919050565b7f455243373231456e756d657261626c653a206f776e657220696e646578206f7560008201527f74206f6620626f756e6473000000000000000000000000000000000000000000602082015250565b60006130b2602b83612697565b91506130bd82613056565b604082019050919050565b600060208201905081810360008301526130e1816130a5565b9050919050565b7f4e487b7100000000000000000000000000000000000000000000000000000000600052601160045260246000fd5b600061312282612589565b91507fffffffffffffffffffffffffffffffffffffffffffffffffffffffffffffffff821415613155576131546130e8565b5b600182019050919050565b600060608201905061317560008301866127d2565b61318260208301856127d2565b61318f6040830184612593565b949350505050565b6000815190506131a681612c6f565b92915050565b6000602082840312156131c2576131c16125c7565b5b60006131d084828501613197565b91505092915050565b7f546f6b656e207472616e73666572206661696c65640000000000000000000000600082015250565b600061320f601583612697565b915061321a826131d9565b602082019050919050565b6000602082019050818103600083015261323e81613202565b9050919050565b6000819050919050565b600061326a613265613260846127a0565b613245565b6127a0565b9050919050565b600061327c8261324f565b9050919050565b600061328e82613271565b9050919050565b61329e81613283565b82525050565b60006040820190506132b96000830185613295565b6132c66020830184612593565b9392505050565b7f4552433732313a20696e76616c696420746f6b656e2049440000000000000000600082015250565b6000613303601883612697565b915061330e826132cd565b602082019050919050565b60006020820190508181036000830152613332816132f6565b9050919050565b600061334482612589565b915061334f83612589565b9250827fffffffffffffffffffffffffffffffffffffffffffffffffffffffffffffffff03821115613384576133836130e8565b5b828201905092915050565b7f4e487b7100000000000000000000000000000000000000000000000000000000600052603260045260246000fd5b600081905092915050565b60006133d48261268c565b6133de81856133be565b93506133ee8185602086016126a8565b80840191505092915050565b600061340682856133c9565b915061341282846133c9565b91508190509392505050565b7f4f776e61626c653a206e6577206f776e657220697320746865207a65726f206160008201527f6464726573730000000000000000000000000000000000000000000000000000602082015250565b600061347a602683612697565b91506134858261341e565b604082019050919050565b600060208201905081810360008301526134a98161346d565b9050919050565b7f4f776e61626c653a2063616c6c6572206973206e6f7420746865206f776e6572600082015250565b60006134e6602083612697565b91506134f1826134b0565b602082019050919050565b60006020820190508181036000830152613515816134d9565b9050919050565b7f4552433732313a206d696e7420746f20746865207a65726f2061646472657373600082015250565b6000613552602083612697565b915061355d8261351c565b602082019050919050565b6000602082019050818103600083015261358181613545565b9050919050565b7f4552433732313a20746f6b656e20616c7265616479206d696e74656400000000600082015250565b60006135be601c83612697565b91506135c982613588565b602082019050919050565b600060208201905081810360008301526135ed816135b1565b9050919050565b7f45524337323155524953746f726167653a2055524920736574206f66206e6f6e60008201527f6578697374656e7420746f6b656e000000000000000000000000000000000000602082015250565b6000613650602e83612697565b915061365b826135f4565b604082019050919050565b6000602082019050818103600083015261367f81613643565b9050919050565b7f4552433732313a207472616e736665722066726f6d20696e636f72726563742060008201527f6f776e6572000000000000000000000000000000000000000000000000000000602082015250565b60006136e2602583612697565b91506136ed82613686565b604082019050919050565b60006020820190508181036000830152613711816136d5565b9050919050565b7f4552433732313a207472616e7366657220746f20746865207a65726f2061646460008201527f7265737300000000000000000000000000000000000000000000000000000000602082015250565b6000613774602483612697565b915061377f82613718565b604082019050919050565b600060208201905081810360008301526137a381613767565b9050919050565b7f4552433732313a20617070726f766520746f2063616c6c657200000000000000600082015250565b60006137e0601983612697565b91506137eb826137aa565b602082019050919050565b6000602082019050818103600083015261380f816137d3565b9050919050565b7f4552433732313a207472616e7366657220746f206e6f6e20455243373231526560008201527f63656976657220696d706c656d656e7465720000000000000000000000000000602082015250565b6000613872603283612697565b915061387d82613816565b604082019050919050565b600060208201905081810360008301526138a181613865565b9050919050565b600081519050919050565b600082825260208201905092915050565b60006138cf826138a8565b6138d981856138b3565b93506138e98185602086016126a8565b6138f2816126db565b840191505092915050565b600060808201905061391260008301876127d2565b61391f60208301866127d2565b61392c6040830185612593565b818103606083015261393e81846138c4565b905095945050505050565b600081519050613958816125fd565b92915050565b600060208284031215613974576139736125c7565b5b600061398284828501613949565b91505092915050565b7f4e487b7100000000000000000000000000000000000000000000000000000000600052601260045260246000fdfea2646970667358221220a8fffadb4e19c9798b471189a215f30bf12c9b25e675a34702c8fe84b57852ad64736f6c634300080a0033",
  "linkReferences": {},
  "deployedLinkReferences": {}
}