{
  "_format": "hh-sol-artifact-1",
  "contractName": "MulX721",
  "sourceName": "contracts/MulX721.sol",
  "abi": [
    {
      "inputs": [],
      "stateMutability": "payable",
      "type": "constructor"
    },
    {
      "anonymous": false,
      "inputs": [
        {
          "indexed": true,
          "internalType": "address",
          "name": "owner",
          "type": "address"
        },
        {
          "indexed": true,
          "internalType": "address",
          "name": "approved",
          "type": "address"
        },
        {
          "indexed": true,
          "internalType": "uint256",
          "name": "tokenId",
          "type": "uint256"
        }
      ],
      "name": "Approval",
      "type": "event"
    },
    {
      "anonymous": false,
      "inputs": [
        {
          "indexed": true,
          "internalType": "address",
          "name": "owner",
          "type": "address"
        },
        {
          "indexed": true,
          "internalType": "address",
          "name": "operator",
          "type": "address"
        },
        {
          "indexed": false,
          "internalType": "bool",
          "name": "approved",
          "type": "bool"
        }
      ],
      "name": "ApprovalForAll",
      "type": "event"
    },
    {
      "anonymous": false,
      "inputs": [
        {
          "indexed": false,
          "internalType": "uint256",
          "name": "_fromTokenId",
          "type": "uint256"
        },
        {
          "indexed": false,
          "internalType": "uint256",
          "name": "_toTokenId",
          "type": "uint256"
        }
      ],
      "name": "BatchMetadataUpdate",
      "type": "event"
    },
    {
      "anonymous": false,
      "inputs": [
        {
          "indexed": false,
          "internalType": "uint256",
          "name": "_tokenId",
          "type": "uint256"
        }
      ],
      "name": "MetadataUpdate",
      "type": "event"
    },
    {
      "anonymous": false,
      "inputs": [
        {
          "indexed": true,
          "internalType": "address",
          "name": "previousOwner",
          "type": "address"
        },
        {
          "indexed": true,
          "internalType": "address",
          "name": "newOwner",
          "type": "address"
        }
      ],
      "name": "OwnershipTransferred",
      "type": "event"
    },
    {
      "anonymous": false,
      "inputs": [
        {
          "indexed": true,
          "internalType": "address",
          "name": "from",
          "type": "address"
        },
        {
          "indexed": true,
          "internalType": "address",
          "name": "to",
          "type": "address"
        },
        {
          "indexed": true,
          "internalType": "uint256",
          "name": "tokenId",
          "type": "uint256"
        }
      ],
      "name": "Transfer",
      "type": "event"
    },
    {
      "inputs": [
        {
          "internalType": "uint256",
          "name": "",
          "type": "uint256"
        }
      ],
      "name": "NftPrice",
      "outputs": [
        {
          "internalType": "uint256",
          "name": "",
          "type": "uint256"
        }
      ],
      "stateMutability": "view",
      "type": "function"
    },
    {
      "inputs": [
        {
          "internalType": "address",
          "name": "_approved",
          "type": "address"
        },
        {
          "internalType": "uint256",
          "name": "_tokenId",
          "type": "uint256"
        }
      ],
      "name": "approve",
      "outputs": [],
      "stateMutability": "nonpayable",
      "type": "function"
    },
    {
      "inputs": [
        {
          "internalType": "address",
          "name": "_owner",
          "type": "address"
        }
      ],
      "name": "balanceOf",
      "outputs": [
        {
          "internalType": "uint256",
          "name": "",
          "type": "uint256"
        }
      ],
      "stateMutability": "view",
      "type": "function"
    },
    {
      "inputs": [
        {
          "internalType": "uint256",
          "name": "_tokenId",
          "type": "uint256"
        }
      ],
      "name": "buyNftToken",
      "outputs": [],
      "stateMutability": "nonpayable",
      "type": "function"
    },
    {
      "inputs": [],
      "name": "getAllNftList",
      "outputs": [
        {
          "components": [
            {
              "internalType": "uint256",
              "name": "nftTokenId",
              "type": "uint256"
            },
            {
              "internalType": "string",
              "name": "nftTokenURI",
              "type": "string"
            }
          ],
          "internalType": "struct MulX721.NftTokenData[]",
          "name": "",
          "type": "tuple[]"
        }
      ],
      "stateMutability": "view",
      "type": "function"
    },
    {
      "inputs": [
        {
          "internalType": "address",
          "name": "buyer",
          "type": "address"
        },
        {
          "internalType": "address",
          "name": "spender",
          "type": "address"
        }
      ],
      "name": "getAllowance",
      "outputs": [
        {
          "internalType": "uint256",
          "name": "",
          "type": "uint256"
        }
      ],
      "stateMutability": "view",
      "type": "function"
    },
    {
      "inputs": [
        {
          "internalType": "uint256",
          "name": "_tokenId",
          "type": "uint256"
        }
      ],
      "name": "getApproved",
      "outputs": [
        {
          "internalType": "address",
          "name": "",
          "type": "address"
        }
      ],
      "stateMutability": "view",
      "type": "function"
    },
    {
      "inputs": [
        {
          "internalType": "uint256",
          "name": "_tokenId",
          "type": "uint256"
        }
      ],
      "name": "getNftPrice",
      "outputs": [
        {
          "internalType": "uint256",
          "name": "",
          "type": "uint256"
        }
      ],
      "stateMutability": "view",
      "type": "function"
    },
    {
      "inputs": [
        {
          "internalType": "address",
          "name": "_nftTokenOwner",
          "type": "address"
        }
      ],
      "name": "getNftTokenList",
      "outputs": [
        {
          "components": [
            {
              "internalType": "uint256",
              "name": "nftTokenId",
              "type": "uint256"
            },
            {
              "internalType": "string",
              "name": "nftTokenURI",
              "type": "string"
            }
          ],
          "internalType": "struct MulX721.NftTokenData[]",
          "name": "",
          "type": "tuple[]"
        }
      ],
      "stateMutability": "view",
      "type": "function"
    },
    {
      "inputs": [
        {
          "internalType": "uint256",
          "name": "tokenId",
          "type": "uint256"
        }
      ],
      "name": "getOwnerOfTokenId",
      "outputs": [
        {
          "internalType": "address",
          "name": "",
          "type": "address"
        }
      ],
      "stateMutability": "view",
      "type": "function"
    },
    {
      "inputs": [],
      "name": "getToken",
      "outputs": [
        {
          "internalType": "address",
          "name": "",
          "type": "address"
        }
      ],
      "stateMutability": "view",
      "type": "function"
    },
    {
      "inputs": [],
      "name": "getTokenId",
      "outputs": [
        {
          "internalType": "uint256",
          "name": "",
          "type": "uint256"
        }
      ],
      "stateMutability": "view",
      "type": "function"
    },
    {
      "inputs": [
        {
          "internalType": "address",
          "name": "owner",
          "type": "address"
        },
        {
          "internalType": "address",
          "name": "operator",
          "type": "address"
        }
      ],
      "name": "isApprovedForAll",
      "outputs": [
        {
          "internalType": "bool",
          "name": "",
          "type": "bool"
        }
      ],
      "stateMutability": "view",
      "type": "function"
    },
    {
      "inputs": [
        {
          "internalType": "uint256",
          "name": "",
          "type": "uint256"
        }
      ],
      "name": "metadataURIs",
      "outputs": [
        {
          "internalType": "string",
          "name": "",
          "type": "string"
        }
      ],
      "stateMutability": "view",
      "type": "function"
    },
    {
      "inputs": [
        {
          "internalType": "address",
          "name": "recipient",
          "type": "address"
        },
        {
          "internalType": "string",
          "name": "tokenURI",
          "type": "string"
        },
        {
          "internalType": "uint256",
          "name": "_nftPrice",
          "type": "uint256"
        }
      ],
      "name": "mintNFT",
      "outputs": [
        {
          "internalType": "uint256",
          "name": "",
          "type": "uint256"
        },
        {
          "internalType": "uint256",
          "name": "",
          "type": "uint256"
        }
      ],
      "stateMutability": "nonpayable",
      "type": "function"
    },
    {
      "inputs": [],
      "name": "name",
      "outputs": [
        {
          "internalType": "string",
          "name": "",
          "type": "string"
        }
      ],
      "stateMutability": "view",
      "type": "function"
    },
    {
      "inputs": [],
      "name": "owner",
      "outputs": [
        {
          "internalType": "address",
          "name": "",
          "type": "address"
        }
      ],
      "stateMutability": "view",
      "type": "function"
    },
    {
      "inputs": [
        {
          "internalType": "uint256",
          "name": "tokenId",
          "type": "uint256"
        }
      ],
      "name": "ownerOf",
      "outputs": [
        {
          "internalType": "address",
          "name": "",
          "type": "address"
        }
      ],
      "stateMutability": "view",
      "type": "function"
    },
    {
      "inputs": [],
      "name": "renounceOwnership",
      "outputs": [],
      "stateMutability": "nonpayable",
      "type": "function"
    },
    {
      "inputs": [
        {
          "internalType": "address",
          "name": "from",
          "type": "address"
        },
        {
          "internalType": "address",
          "name": "to",
          "type": "address"
        },
        {
          "internalType": "uint256",
          "name": "tokenId",
          "type": "uint256"
        }
      ],
      "name": "safeTransferFrom",
      "outputs": [],
      "stateMutability": "nonpayable",
      "type": "function"
    },
    {
      "inputs": [
        {
          "internalType": "address",
          "name": "from",
          "type": "address"
        },
        {
          "internalType": "address",
          "name": "to",
          "type": "address"
        },
        {
          "internalType": "uint256",
          "name": "tokenId",
          "type": "uint256"
        },
        {
          "internalType": "bytes",
          "name": "data",
          "type": "bytes"
        }
      ],
      "name": "safeTransferFrom",
      "outputs": [],
      "stateMutability": "nonpayable",
      "type": "function"
    },
    {
      "inputs": [
        {
          "internalType": "address",
          "name": "operator",
          "type": "address"
        },
        {
          "internalType": "bool",
          "name": "approved",
          "type": "bool"
        }
      ],
      "name": "setApprovalForAll",
      "outputs": [],
      "stateMutability": "nonpayable",
      "type": "function"
    },
    {
      "inputs": [
        {
          "internalType": "address",
          "name": "sender",
          "type": "address"
        },
        {
          "internalType": "address",
          "name": "recipient",
          "type": "address"
        },
        {
          "internalType": "uint256",
          "name": "amount",
          "type": "uint256"
        }
      ],
      "name": "setMmulTransferFrom",
      "outputs": [
        {
          "internalType": "bool",
          "name": "",
          "type": "bool"
        }
      ],
      "stateMutability": "nonpayable",
      "type": "function"
    },
    {
      "inputs": [
        {
          "internalType": "uint256",
          "name": "_tokenId",
          "type": "uint256"
        },
        {
          "internalType": "uint256",
          "name": "_price",
          "type": "uint256"
        }
      ],
      "name": "setNftPrice",
      "outputs": [
        {
          "internalType": "uint256",
          "name": "",
          "type": "uint256"
        }
      ],
      "stateMutability": "nonpayable",
      "type": "function"
    },
    {
      "inputs": [
        {
          "internalType": "address",
          "name": "tokenAddress",
          "type": "address"
        }
      ],
      "name": "setToken",
      "outputs": [
        {
          "internalType": "bool",
          "name": "",
          "type": "bool"
        }
      ],
      "stateMutability": "nonpayable",
      "type": "function"
    },
    {
      "inputs": [
        {
          "internalType": "bytes4",
          "name": "interfaceId",
          "type": "bytes4"
        }
      ],
      "name": "supportsInterface",
      "outputs": [
        {
          "internalType": "bool",
          "name": "",
          "type": "bool"
        }
      ],
      "stateMutability": "view",
      "type": "function"
    },
    {
      "inputs": [],
      "name": "symbol",
      "outputs": [
        {
          "internalType": "string",
          "name": "",
          "type": "string"
        }
      ],
      "stateMutability": "view",
      "type": "function"
    },
    {
      "inputs": [
        {
          "internalType": "address",
          "name": "_owner",
          "type": "address"
        },
        {
          "internalType": "uint256",
          "name": "_index",
          "type": "uint256"
        }
      ],
      "name": "tokenOfOwnerByIndex",
      "outputs": [
        {
          "internalType": "uint256",
          "name": "",
          "type": "uint256"
        }
      ],
      "stateMutability": "view",
      "type": "function"
    },
    {
      "inputs": [
        {
          "internalType": "uint256",
          "name": "tokenId",
          "type": "uint256"
        }
      ],
      "name": "tokenURI",
      "outputs": [
        {
          "internalType": "string",
          "name": "",
          "type": "string"
        }
      ],
      "stateMutability": "view",
      "type": "function"
    },
    {
      "inputs": [],
      "name": "totalSupply",
      "outputs": [
        {
          "internalType": "uint256",
          "name": "",
          "type": "uint256"
        }
      ],
      "stateMutability": "view",
      "type": "function"
    },
    {
      "inputs": [
        {
          "internalType": "address",
          "name": "from",
          "type": "address"
        },
        {
          "internalType": "address",
          "name": "to",
          "type": "address"
        },
        {
          "internalType": "uint256",
          "name": "tokenId",
          "type": "uint256"
        }
      ],
      "name": "transferFrom",
      "outputs": [],
      "stateMutability": "nonpayable",
      "type": "function"
    },
    {
      "inputs": [
        {
          "internalType": "address",
          "name": "newOwner",
          "type": "address"
        }
      ],
      "name": "transferOwnership",
      "outputs": [],
      "stateMutability": "nonpayable",
      "type": "function"
    }
  ],
  "bytecode": "0x60806040526040518060400160405280600681526020017f4d794e46547300000000000000000000000000000000000000000000000000008152506040518060400160405280600481526020017f4d4e465400000000000000000000000000000000000000000000000000000000815250816000908051906020019062000088929190620001a7565b508060019080519060200190620000a1929190620001a7565b505050620000c4620000b8620000d960201b60201c565b620000e160201b60201c565b67016345785d8a0000600a81905550620002bc565b600033905090565b6000600760009054906101000a900473ffffffffffffffffffffffffffffffffffffffff16905081600760006101000a81548173ffffffffffffffffffffffffffffffffffffffff021916908373ffffffffffffffffffffffffffffffffffffffff1602179055508173ffffffffffffffffffffffffffffffffffffffff168173ffffffffffffffffffffffffffffffffffffffff167f8be0079c531659141344cd1fd0a4f28419497f9722a3daafe3b4186f6b6457e060405160405180910390a35050565b828054620001b59062000286565b90600052602060002090601f016020900481019282620001d9576000855562000225565b82601f10620001f457805160ff191683800117855562000225565b8280016001018555821562000225579182015b828111156200022457825182559160200191906001019062000207565b5b50905062000234919062000238565b5090565b5b808211156200025357600081600090555060010162000239565b5090565b7f4e487b7100000000000000000000000000000000000000000000000000000000600052602260045260246000fd5b600060028204905060018216806200029f57607f821691505b60208210811415620002b657620002b562000257565b5b50919050565b613e6880620002cc6000396000f3fe608060405234801561001057600080fd5b50600436106101f05760003560e01c806370a082311161010f5780639b934b52116100a2578063c87b56dd11610071578063c87b56dd1461062e578063da8cc6e81461065e578063e985e9c51461067a578063f2fde38b146106aa576101f0565b80639b934b52146105a8578063a22cb465146105c6578063af9030a1146105e2578063b88d4fde14610612576101f0565b80637bf0989a116100de5780637bf0989a1461050c5780638da5cb5b1461053c57806395d89b411461055a5780639b358e8914610578576101f0565b806370a0823114610472578063715018a6146104a25780637a336a48146104ac5780637a61013f146104dc576101f0565b806318160ddd1161018757806342842e0e1161015657806342842e0e146103c657806348688b3c146103e25780634ed5c558146104125780636352211e14610442576101f0565b806318160ddd1461033e57806321df0da71461035c57806323b872dd1461037a5780632f745c5914610396576101f0565b806308598df0116101c357806308598df014610291578063095ea7b3146102c25780630af4187d146102de578063144fa6d71461030e576101f0565b8063010a38f5146101f557806301ffc9a71461021357806306fdde0314610243578063081812fc14610261575b600080fd5b6101fd6106c6565b60405161020a9190612873565b60405180910390f35b61022d600480360381019061022891906128fa565b6106d7565b60405161023a9190612942565b60405180910390f35b61024b610738565b60405161025891906129f6565b60405180910390f35b61027b60048036038101906102769190612a44565b6107ca565b6040516102889190612ab2565b60405180910390f35b6102ab60048036038101906102a69190612c2e565b61084f565b6040516102b9929190612c9d565b60405180910390f35b6102dc60048036038101906102d79190612cc6565b6108c2565b005b6102f860048036038101906102f39190612d06565b6109cc565b6040516103059190612873565b60405180910390f35b61032860048036038101906103239190612d46565b610a74565b6040516103359190612942565b60405180910390f35b610346610af9565b6040516103539190612873565b60405180910390f35b610364610b0a565b6040516103719190612ab2565b60405180910390f35b610394600480360381019061038f9190612d73565b610b34565b005b6103b060048036038101906103ab9190612cc6565b610b94565b6040516103bd9190612873565b60405180910390f35b6103e060048036038101906103db9190612d73565b610c73565b005b6103fc60048036038101906103f79190612a44565b610c93565b6040516104099190612ab2565b60405180910390f35b61042c60048036038101906104279190612a44565b610ca5565b60405161043991906129f6565b60405180910390f35b61045c60048036038101906104579190612a44565b610d45565b6040516104699190612ab2565b60405180910390f35b61048c60048036038101906104879190612d46565b610dcc565b6040516104999190612873565b60405180910390f35b6104aa610e50565b005b6104c660048036038101906104c19190612a44565b610e64565b6040516104d39190612873565b60405180910390f35b6104f660048036038101906104f19190612dc6565b610e7c565b6040516105039190612873565b60405180910390f35b61052660048036038101906105219190612a44565b610ea5565b6040516105339190612873565b60405180910390f35b610544610ec2565b6040516105519190612ab2565b60405180910390f35b610562610eec565b60405161056f91906129f6565b60405180910390f35b610592600480360381019061058d9190612d73565b610f7e565b60405161059f9190612942565b60405180910390f35b6105b061102b565b6040516105bd9190612f5e565b60405180910390f35b6105e060048036038101906105db9190612fac565b61110d565b005b6105fc60048036038101906105f79190612d46565b611123565b6040516106099190612f5e565b60405180910390f35b61062c6004803603810190610627919061308d565b611203565b005b61064860048036038101906106439190612a44565b611265565b60405161065591906129f6565b60405180910390f35b61067860048036038101906106739190612a44565b611378565b005b610694600480360381019061068f9190612d06565b611628565b6040516106a19190612942565b60405180910390f35b6106c460048036038101906106bf9190612d46565b6116bc565b005b60006106d26008611740565b905090565b6000634906490660e01b7bffffffffffffffffffffffffffffffffffffffffffffffffffffffff1916827bffffffffffffffffffffffffffffffffffffffffffffffffffffffff1916148061073157506107308261174e565b5b9050919050565b6060600080546107479061313f565b80601f01602080910402602001604051908101604052809291908181526020018280546107739061313f565b80156107c05780601f10610795576101008083540402835291602001916107c0565b820191906000526020600020905b8154815290600101906020018083116107a357829003601f168201915b5050505050905090565b60006107d582611830565b610814576040517f08c379a000000000000000000000000000000000000000000000000000000000815260040161080b906131e3565b60405180910390fd5b600d600083815260200190815260200160002060009054906101000a900473ffffffffffffffffffffffffffffffffffffffff169050919050565b60008061085c6008611871565b60006108686008611740565b90506108748682611887565b61087e30826108c2565b6108888186611aa5565b83600c60008381526020019081526020016000208190555080600c6000838152602001908152602001600020549250925050935093915050565b60006108cd82610d45565b90508073ffffffffffffffffffffffffffffffffffffffff168373ffffffffffffffffffffffffffffffffffffffff16141561093e576040517f08c379a000000000000000000000000000000000000000000000000000000000815260040161093590613275565b60405180910390fd5b8073ffffffffffffffffffffffffffffffffffffffff163373ffffffffffffffffffffffffffffffffffffffff16148061097e575061097d8133611628565b5b6109bd576040517f08c379a00000000000000000000000000000000000000000000000000000000081526004016109b490613307565b60405180910390fd5b6109c78383611b50565b505050565b6000600960009054906101000a900473ffffffffffffffffffffffffffffffffffffffff1673ffffffffffffffffffffffffffffffffffffffff1663dd62ed3e84846040518363ffffffff1660e01b8152600401610a2b929190613327565b602060405180830381865afa158015610a48573d6000803e3d6000fd5b505050506040513d601f19601f82011682018060405250810190610a6c9190613365565b905092915050565b60008073ffffffffffffffffffffffffffffffffffffffff168273ffffffffffffffffffffffffffffffffffffffff161415610aaf57600080fd5b81600960006101000a81548173ffffffffffffffffffffffffffffffffffffffff021916908373ffffffffffffffffffffffffffffffffffffffff16021790555060019050919050565b6000610b056008611740565b905090565b6000600960009054906101000a900473ffffffffffffffffffffffffffffffffffffffff16905090565b610b45610b3f611ba6565b82611bae565b610b84576040517f08c379a0000000000000000000000000000000000000000000000000000000008152600401610b7b90613404565b60405180910390fd5b610b8f838383611c43565b505050565b6000610b9f83610dcc565b8210610be0576040517f08c379a0000000000000000000000000000000000000000000000000000000008152600401610bd790613496565b60405180910390fd5b600080600190505b610bf0610af9565b8111610c66578473ffffffffffffffffffffffffffffffffffffffff16610c1682610d45565b73ffffffffffffffffffffffffffffffffffffffff161415610c535783821415610c44578092505050610c6d565b8180610c4f906134e5565b9250505b8080610c5e906134e5565b915050610be8565b5060009150505b92915050565b610c8e83838360405180602001604052806000815250611203565b505050565b6000610c9e82610d45565b9050919050565b600b6020528060005260406000206000915090508054610cc49061313f565b80601f0160208091040260200160405190810160405280929190818152602001828054610cf09061313f565b8015610d3d5780601f10610d1257610100808354040283529160200191610d3d565b820191906000526020600020905b815481529060010190602001808311610d2057829003601f168201915b505050505081565b600080610d5183611f3d565b9050600073ffffffffffffffffffffffffffffffffffffffff168173ffffffffffffffffffffffffffffffffffffffff161415610dc3576040517f08c379a0000000000000000000000000000000000000000000000000000000008152600401610dba9061357a565b60405180910390fd5b80915050919050565b600080600090506000600190505b610de2610af9565b8111610e46578373ffffffffffffffffffffffffffffffffffffffff16610e0882610d45565b73ffffffffffffffffffffffffffffffffffffffff161415610e33578180610e2f906134e5565b9250505b8080610e3e906134e5565b915050610dda565b5080915050919050565b610e58611f7a565b610e626000611ff8565b565b600c6020528060005260406000206000915090505481565b6000610e86611f7a565b81600c6000858152602001908152602001600020819055905092915050565b6000600c6000838152602001908152602001600020549050919050565b6000600760009054906101000a900473ffffffffffffffffffffffffffffffffffffffff16905090565b606060018054610efb9061313f565b80601f0160208091040260200160405190810160405280929190818152602001828054610f279061313f565b8015610f745780601f10610f4957610100808354040283529160200191610f74565b820191906000526020600020905b815481529060010190602001808311610f5757829003601f168201915b5050505050905090565b6000600960009054906101000a900473ffffffffffffffffffffffffffffffffffffffff1673ffffffffffffffffffffffffffffffffffffffff166323b872dd8585856040518463ffffffff1660e01b8152600401610fdf9392919061359a565b6020604051808303816000875af1158015610ffe573d6000803e3d6000fd5b505050506040513d601f19601f8201168201806040525081019061102291906135e6565b90509392505050565b606060006110396008611740565b905060008167ffffffffffffffff81111561105757611056612b03565b5b60405190808252806020026020018201604052801561109057816020015b61107d61279d565b8152602001906001900390816110755790505b50905060005b828110156111045760006001826110ad9190613613565b905060006110ba82611265565b90506040518060400160405280838152602001828152508484815181106110e4576110e3613669565b5b6020026020010181905250505080806110fc906134e5565b915050611096565b50809250505090565b61111f611118611ba6565b83836120be565b5050565b6060600061113083610dcc565b905060008167ffffffffffffffff81111561114e5761114d612b03565b5b60405190808252806020026020018201604052801561118757816020015b61117461279d565b81526020019060019003908161116c5790505b50905060005b828110156111f85760006111a18683610b94565b905060006111ae82611265565b90506040518060400160405280838152602001828152508484815181106111d8576111d7613669565b5b6020026020010181905250505080806111f0906134e5565b91505061118d565b508092505050919050565b61121461120e611ba6565b83611bae565b611253576040517f08c379a000000000000000000000000000000000000000000000000000000000815260040161124a90613404565b60405180910390fd5b61125f8484848461222b565b50505050565b606061127082612287565b60006006600084815260200190815260200160002080546112909061313f565b80601f01602080910402602001604051908101604052809291908181526020018280546112bc9061313f565b80156113095780601f106112de57610100808354040283529160200191611309565b820191906000526020600020905b8154815290600101906020018083116112ec57829003601f168201915b50505050509050600061131a6122d2565b9050600081511415611330578192505050611373565b60008251111561136557808260405160200161134d9291906136d4565b60405160208183030381529060405292505050611373565b61136e846122e9565b925050505b919050565b6000670de0b6b3a7640000600c6000848152602001908152602001600020546113a191906136f8565b9050600081116113e6576040517f08c379a00000000000000000000000000000000000000000000000000000000081526004016113dd9061379e565b60405180910390fd5b80600960009054906101000a900473ffffffffffffffffffffffffffffffffffffffff1673ffffffffffffffffffffffffffffffffffffffff1663dd62ed3e33306040518363ffffffff1660e01b8152600401611444929190613327565b602060405180830381865afa158015611461573d6000803e3d6000fd5b505050506040513d601f19601f820116820180604052508101906114859190613365565b10156114c6576040517f08c379a00000000000000000000000000000000000000000000000000000000081526004016114bd9061380a565b60405180910390fd5b60006114d183610d45565b9050600960009054906101000a900473ffffffffffffffffffffffffffffffffffffffff1673ffffffffffffffffffffffffffffffffffffffff166323b872dd3383856040518463ffffffff1660e01b81526004016115329392919061359a565b6020604051808303816000875af1158015611551573d6000803e3d6000fd5b505050506040513d601f19601f8201168201806040525081019061157591906135e6565b6115b4576040517f08c379a00000000000000000000000000000000000000000000000000000000081526004016115ab90613876565b60405180910390fd5b3073ffffffffffffffffffffffffffffffffffffffff166342842e0e8233866040518463ffffffff1660e01b81526004016115f19392919061359a565b600060405180830381600087803b15801561160b57600080fd5b505af115801561161f573d6000803e3d6000fd5b50505050505050565b6000600560008473ffffffffffffffffffffffffffffffffffffffff1673ffffffffffffffffffffffffffffffffffffffff16815260200190815260200160002060008373ffffffffffffffffffffffffffffffffffffffff1673ffffffffffffffffffffffffffffffffffffffff16815260200190815260200160002060009054906101000a900460ff16905092915050565b6116c4611f7a565b600073ffffffffffffffffffffffffffffffffffffffff168173ffffffffffffffffffffffffffffffffffffffff161415611734576040517f08c379a000000000000000000000000000000000000000000000000000000000815260040161172b90613908565b60405180910390fd5b61173d81611ff8565b50565b600081600001549050919050565b60007f80ac58cd000000000000000000000000000000000000000000000000000000007bffffffffffffffffffffffffffffffffffffffffffffffffffffffff1916827bffffffffffffffffffffffffffffffffffffffffffffffffffffffff1916148061181957507f5b5e139f000000000000000000000000000000000000000000000000000000007bffffffffffffffffffffffffffffffffffffffffffffffffffffffff1916827bffffffffffffffffffffffffffffffffffffffffffffffffffffffff1916145b80611829575061182882612351565b5b9050919050565b60008073ffffffffffffffffffffffffffffffffffffffff1661185283611f3d565b73ffffffffffffffffffffffffffffffffffffffff1614159050919050565b6001816000016000828254019250508190555050565b600073ffffffffffffffffffffffffffffffffffffffff168273ffffffffffffffffffffffffffffffffffffffff1614156118f7576040517f08c379a00000000000000000000000000000000000000000000000000000000081526004016118ee90613974565b60405180910390fd5b61190081611830565b15611940576040517f08c379a0000000000000000000000000000000000000000000000000000000008152600401611937906139e0565b60405180910390fd5b61194e6000838360016123bb565b61195781611830565b15611997576040517f08c379a000000000000000000000000000000000000000000000000000000000815260040161198e906139e0565b60405180910390fd5b6001600360008473ffffffffffffffffffffffffffffffffffffffff1673ffffffffffffffffffffffffffffffffffffffff16815260200190815260200160002060008282540192505081905550816002600083815260200190815260200160002060006101000a81548173ffffffffffffffffffffffffffffffffffffffff021916908373ffffffffffffffffffffffffffffffffffffffff160217905550808273ffffffffffffffffffffffffffffffffffffffff16600073ffffffffffffffffffffffffffffffffffffffff167fddf252ad1be2c89b69c2b068fc378daa952ba7f163c4a11628f55a4df523b3ef60405160405180910390a4611aa16000838360016123c1565b5050565b611aae82611830565b611aed576040517f08c379a0000000000000000000000000000000000000000000000000000000008152600401611ae490613a72565b60405180910390fd5b80600660008481526020019081526020016000209080519060200190611b149291906127b7565b507ff8e1a15aba9398e019f0b49df1a4fde98ee17ae345cb5f6b5e2c27f5033e8ce782604051611b449190612873565b60405180910390a15050565b81600d600083815260200190815260200160002060006101000a81548173ffffffffffffffffffffffffffffffffffffffff021916908373ffffffffffffffffffffffffffffffffffffffff1602179055505050565b600033905090565b600080611bba83610d45565b90508073ffffffffffffffffffffffffffffffffffffffff168473ffffffffffffffffffffffffffffffffffffffff161480611bfc5750611bfb8185611628565b5b80611c3a57508373ffffffffffffffffffffffffffffffffffffffff16611c22846107ca565b73ffffffffffffffffffffffffffffffffffffffff16145b91505092915050565b8273ffffffffffffffffffffffffffffffffffffffff16611c6382610d45565b73ffffffffffffffffffffffffffffffffffffffff1614611cb9576040517f08c379a0000000000000000000000000000000000000000000000000000000008152600401611cb090613b04565b60405180910390fd5b600073ffffffffffffffffffffffffffffffffffffffff168273ffffffffffffffffffffffffffffffffffffffff161415611d29576040517f08c379a0000000000000000000000000000000000000000000000000000000008152600401611d2090613b96565b60405180910390fd5b611d3683838360016123bb565b8273ffffffffffffffffffffffffffffffffffffffff16611d5682610d45565b73ffffffffffffffffffffffffffffffffffffffff1614611dac576040517f08c379a0000000000000000000000000000000000000000000000000000000008152600401611da390613b04565b60405180910390fd5b6004600082815260200190815260200160002060006101000a81549073ffffffffffffffffffffffffffffffffffffffff02191690556001600360008573ffffffffffffffffffffffffffffffffffffffff1673ffffffffffffffffffffffffffffffffffffffff168152602001908152602001600020600082825403925050819055506001600360008473ffffffffffffffffffffffffffffffffffffffff1673ffffffffffffffffffffffffffffffffffffffff16815260200190815260200160002060008282540192505081905550816002600083815260200190815260200160002060006101000a81548173ffffffffffffffffffffffffffffffffffffffff021916908373ffffffffffffffffffffffffffffffffffffffff160217905550808273ffffffffffffffffffffffffffffffffffffffff168473ffffffffffffffffffffffffffffffffffffffff167fddf252ad1be2c89b69c2b068fc378daa952ba7f163c4a11628f55a4df523b3ef60405160405180910390a4611f3883838360016123c1565b505050565b60006002600083815260200190815260200160002060009054906101000a900473ffffffffffffffffffffffffffffffffffffffff169050919050565b611f82611ba6565b73ffffffffffffffffffffffffffffffffffffffff16611fa0610ec2565b73ffffffffffffffffffffffffffffffffffffffff1614611ff6576040517f08c379a0000000000000000000000000000000000000000000000000000000008152600401611fed90613c02565b60405180910390fd5b565b6000600760009054906101000a900473ffffffffffffffffffffffffffffffffffffffff16905081600760006101000a81548173ffffffffffffffffffffffffffffffffffffffff021916908373ffffffffffffffffffffffffffffffffffffffff1602179055508173ffffffffffffffffffffffffffffffffffffffff168173ffffffffffffffffffffffffffffffffffffffff167f8be0079c531659141344cd1fd0a4f28419497f9722a3daafe3b4186f6b6457e060405160405180910390a35050565b8173ffffffffffffffffffffffffffffffffffffffff168373ffffffffffffffffffffffffffffffffffffffff16141561212d576040517f08c379a000000000000000000000000000000000000000000000000000000000815260040161212490613c6e565b60405180910390fd5b80600560008573ffffffffffffffffffffffffffffffffffffffff1673ffffffffffffffffffffffffffffffffffffffff16815260200190815260200160002060008473ffffffffffffffffffffffffffffffffffffffff1673ffffffffffffffffffffffffffffffffffffffff16815260200190815260200160002060006101000a81548160ff0219169083151502179055508173ffffffffffffffffffffffffffffffffffffffff168373ffffffffffffffffffffffffffffffffffffffff167f17307eab39ab6107e8899845ad3d59bd9653f200f220920489ca2b5937696c318360405161221e9190612942565b60405180910390a3505050565b612236848484611c43565b612242848484846123c7565b612281576040517f08c379a000000000000000000000000000000000000000000000000000000000815260040161227890613d00565b60405180910390fd5b50505050565b61229081611830565b6122cf576040517f08c379a00000000000000000000000000000000000000000000000000000000081526004016122c69061357a565b60405180910390fd5b50565b606060405180602001604052806000815250905090565b60606122f482612287565b60006122fe6122d2565b9050600081511161231e5760405180602001604052806000815250612349565b806123288461254f565b6040516020016123399291906136d4565b6040516020818303038152906040525b915050919050565b60007f01ffc9a7000000000000000000000000000000000000000000000000000000007bffffffffffffffffffffffffffffffffffffffffffffffffffffffff1916827bffffffffffffffffffffffffffffffffffffffffffffffffffffffff1916149050919050565b50505050565b50505050565b60006123e88473ffffffffffffffffffffffffffffffffffffffff16612627565b15612542578373ffffffffffffffffffffffffffffffffffffffff1663150b7a02612411611ba6565b8786866040518563ffffffff1660e01b81526004016124339493929190613d75565b6020604051808303816000875af192505050801561246f57506040513d601f19601f8201168201806040525081019061246c9190613dd6565b60015b6124f2573d806000811461249f576040519150601f19603f3d011682016040523d82523d6000602084013e6124a4565b606091505b506000815114156124ea576040517f08c379a00000000000000000000000000000000000000000000000000000000081526004016124e190613d00565b60405180910390fd5b805181602001fd5b63150b7a0260e01b7bffffffffffffffffffffffffffffffffffffffffffffffffffffffff1916817bffffffffffffffffffffffffffffffffffffffffffffffffffffffff191614915050612547565b600190505b949350505050565b60606000600161255e8461264a565b01905060008167ffffffffffffffff81111561257d5761257c612b03565b5b6040519080825280601f01601f1916602001820160405280156125af5781602001600182028036833780820191505090505b509050600082602001820190505b60011561261c578080600190039150507f3031323334353637383961626364656600000000000000000000000000000000600a86061a8153600a858161260657612605613e03565b5b04945060008514156126175761261c565b6125bd565b819350505050919050565b6000808273ffffffffffffffffffffffffffffffffffffffff163b119050919050565b600080600090507a184f03e93ff9f4daa797ed6e38ed64bf6a1f01000000000000000083106126a8577a184f03e93ff9f4daa797ed6e38ed64bf6a1f010000000000000000838161269e5761269d613e03565b5b0492506040810190505b6d04ee2d6d415b85acef810000000083106126e5576d04ee2d6d415b85acef810000000083816126db576126da613e03565b5b0492506020810190505b662386f26fc10000831061271457662386f26fc10000838161270a57612709613e03565b5b0492506010810190505b6305f5e100831061273d576305f5e100838161273357612732613e03565b5b0492506008810190505b612710831061276257612710838161275857612757613e03565b5b0492506004810190505b60648310612785576064838161277b5761277a613e03565b5b0492506002810190505b600a8310612794576001810190505b80915050919050565b604051806040016040528060008152602001606081525090565b8280546127c39061313f565b90600052602060002090601f0160209004810192826127e5576000855561282c565b82601f106127fe57805160ff191683800117855561282c565b8280016001018555821561282c579182015b8281111561282b578251825591602001919060010190612810565b5b509050612839919061283d565b5090565b5b8082111561285657600081600090555060010161283e565b5090565b6000819050919050565b61286d8161285a565b82525050565b60006020820190506128886000830184612864565b92915050565b6000604051905090565b600080fd5b600080fd5b60007fffffffff0000000000000000000000000000000000000000000000000000000082169050919050565b6128d7816128a2565b81146128e257600080fd5b50565b6000813590506128f4816128ce565b92915050565b6000602082840312156129105761290f612898565b5b600061291e848285016128e5565b91505092915050565b60008115159050919050565b61293c81612927565b82525050565b60006020820190506129576000830184612933565b92915050565b600081519050919050565b600082825260208201905092915050565b60005b8381101561299757808201518184015260208101905061297c565b838111156129a6576000848401525b50505050565b6000601f19601f8301169050919050565b60006129c88261295d565b6129d28185612968565b93506129e2818560208601612979565b6129eb816129ac565b840191505092915050565b60006020820190508181036000830152612a1081846129bd565b905092915050565b612a218161285a565b8114612a2c57600080fd5b50565b600081359050612a3e81612a18565b92915050565b600060208284031215612a5a57612a59612898565b5b6000612a6884828501612a2f565b91505092915050565b600073ffffffffffffffffffffffffffffffffffffffff82169050919050565b6000612a9c82612a71565b9050919050565b612aac81612a91565b82525050565b6000602082019050612ac76000830184612aa3565b92915050565b612ad681612a91565b8114612ae157600080fd5b50565b600081359050612af381612acd565b92915050565b600080fd5b600080fd5b7f4e487b7100000000000000000000000000000000000000000000000000000000600052604160045260246000fd5b612b3b826129ac565b810181811067ffffffffffffffff82111715612b5a57612b59612b03565b5b80604052505050565b6000612b6d61288e565b9050612b798282612b32565b919050565b600067ffffffffffffffff821115612b9957612b98612b03565b5b612ba2826129ac565b9050602081019050919050565b82818337600083830152505050565b6000612bd1612bcc84612b7e565b612b63565b905082815260208101848484011115612bed57612bec612afe565b5b612bf8848285612baf565b509392505050565b600082601f830112612c1557612c14612af9565b5b8135612c25848260208601612bbe565b91505092915050565b600080600060608486031215612c4757612c46612898565b5b6000612c5586828701612ae4565b935050602084013567ffffffffffffffff811115612c7657612c7561289d565b5b612c8286828701612c00565b9250506040612c9386828701612a2f565b9150509250925092565b6000604082019050612cb26000830185612864565b612cbf6020830184612864565b9392505050565b60008060408385031215612cdd57612cdc612898565b5b6000612ceb85828601612ae4565b9250506020612cfc85828601612a2f565b9150509250929050565b60008060408385031215612d1d57612d1c612898565b5b6000612d2b85828601612ae4565b9250506020612d3c85828601612ae4565b9150509250929050565b600060208284031215612d5c57612d5b612898565b5b6000612d6a84828501612ae4565b91505092915050565b600080600060608486031215612d8c57612d8b612898565b5b6000612d9a86828701612ae4565b9350506020612dab86828701612ae4565b9250506040612dbc86828701612a2f565b9150509250925092565b60008060408385031215612ddd57612ddc612898565b5b6000612deb85828601612a2f565b9250506020612dfc85828601612a2f565b9150509250929050565b600081519050919050565b600082825260208201905092915050565b6000819050602082019050919050565b612e3b8161285a565b82525050565b600082825260208201905092915050565b6000612e5d8261295d565b612e678185612e41565b9350612e77818560208601612979565b612e80816129ac565b840191505092915050565b6000604083016000830151612ea36000860182612e32565b5060208301518482036020860152612ebb8282612e52565b9150508091505092915050565b6000612ed48383612e8b565b905092915050565b6000602082019050919050565b6000612ef482612e06565b612efe8185612e11565b935083602082028501612f1085612e22565b8060005b85811015612f4c5784840389528151612f2d8582612ec8565b9450612f3883612edc565b925060208a01995050600181019050612f14565b50829750879550505050505092915050565b60006020820190508181036000830152612f788184612ee9565b905092915050565b612f8981612927565b8114612f9457600080fd5b50565b600081359050612fa681612f80565b92915050565b60008060408385031215612fc357612fc2612898565b5b6000612fd185828601612ae4565b9250506020612fe285828601612f97565b9150509250929050565b600067ffffffffffffffff82111561300757613006612b03565b5b613010826129ac565b9050602081019050919050565b600061303061302b84612fec565b612b63565b90508281526020810184848401111561304c5761304b612afe565b5b613057848285612baf565b509392505050565b600082601f83011261307457613073612af9565b5b813561308484826020860161301d565b91505092915050565b600080600080608085870312156130a7576130a6612898565b5b60006130b587828801612ae4565b94505060206130c687828801612ae4565b93505060406130d787828801612a2f565b925050606085013567ffffffffffffffff8111156130f8576130f761289d565b5b6131048782880161305f565b91505092959194509250565b7f4e487b7100000000000000000000000000000000000000000000000000000000600052602260045260246000fd5b6000600282049050600182168061315757607f821691505b6020821081141561316b5761316a613110565b5b50919050565b7f4552433732313a20617070726f76656420717565727920666f72206e6f6e657860008201527f697374656e7420746f6b656e0000000000000000000000000000000000000000602082015250565b60006131cd602c83612968565b91506131d882613171565b604082019050919050565b600060208201905081810360008301526131fc816131c0565b9050919050565b7f4552433732313a20617070726f76616c20746f2063757272656e74206f776e6560008201527f7200000000000000000000000000000000000000000000000000000000000000602082015250565b600061325f602183612968565b915061326a82613203565b604082019050919050565b6000602082019050818103600083015261328e81613252565b9050919050565b7f4552433732313a20617070726f76652063616c6c6572206973206e6f74206f7760008201527f6e6572206e6f7220617070726f76656420666f7220616c6c0000000000000000602082015250565b60006132f1603883612968565b91506132fc82613295565b604082019050919050565b60006020820190508181036000830152613320816132e4565b9050919050565b600060408201905061333c6000830185612aa3565b6133496020830184612aa3565b9392505050565b60008151905061335f81612a18565b92915050565b60006020828403121561337b5761337a612898565b5b600061338984828501613350565b91505092915050565b7f4552433732313a2063616c6c6572206973206e6f7420746f6b656e206f776e6560008201527f72206f7220617070726f76656400000000000000000000000000000000000000602082015250565b60006133ee602d83612968565b91506133f982613392565b604082019050919050565b6000602082019050818103600083015261341d816133e1565b9050919050565b7f455243373231456e756d657261626c653a206f776e657220696e646578206f7560008201527f74206f6620626f756e6473000000000000000000000000000000000000000000602082015250565b6000613480602b83612968565b915061348b82613424565b604082019050919050565b600060208201905081810360008301526134af81613473565b9050919050565b7f4e487b7100000000000000000000000000000000000000000000000000000000600052601160045260246000fd5b60006134f08261285a565b91507fffffffffffffffffffffffffffffffffffffffffffffffffffffffffffffffff821415613523576135226134b6565b5b600182019050919050565b7f4552433732313a20696e76616c696420746f6b656e2049440000000000000000600082015250565b6000613564601883612968565b915061356f8261352e565b602082019050919050565b6000602082019050818103600083015261359381613557565b9050919050565b60006060820190506135af6000830186612aa3565b6135bc6020830185612aa3565b6135c96040830184612864565b949350505050565b6000815190506135e081612f80565b92915050565b6000602082840312156135fc576135fb612898565b5b600061360a848285016135d1565b91505092915050565b600061361e8261285a565b91506136298361285a565b9250827fffffffffffffffffffffffffffffffffffffffffffffffffffffffffffffffff0382111561365e5761365d6134b6565b5b828201905092915050565b7f4e487b7100000000000000000000000000000000000000000000000000000000600052603260045260246000fd5b600081905092915050565b60006136ae8261295d565b6136b88185613698565b93506136c8818560208601612979565b80840191505092915050565b60006136e082856136a3565b91506136ec82846136a3565b91508190509392505050565b60006137038261285a565b915061370e8361285a565b9250817fffffffffffffffffffffffffffffffffffffffffffffffffffffffffffffffff0483118215151615613747576137466134b6565b5b828202905092915050565b7f496e76616c6964204e4654207072696365000000000000000000000000000000600082015250565b6000613788601183612968565b915061379382613752565b602082019050919050565b600060208201905081810360008301526137b78161377b565b9050919050565b7f546f6b656e20616c6c6f77616e6365206e6f7420736574000000000000000000600082015250565b60006137f4601783612968565b91506137ff826137be565b602082019050919050565b60006020820190508181036000830152613823816137e7565b9050919050565b7f546f6b656e207472616e73666572206661696c65640000000000000000000000600082015250565b6000613860601583612968565b915061386b8261382a565b602082019050919050565b6000602082019050818103600083015261388f81613853565b9050919050565b7f4f776e61626c653a206e6577206f776e657220697320746865207a65726f206160008201527f6464726573730000000000000000000000000000000000000000000000000000602082015250565b60006138f2602683612968565b91506138fd82613896565b604082019050919050565b60006020820190508181036000830152613921816138e5565b9050919050565b7f4552433732313a206d696e7420746f20746865207a65726f2061646472657373600082015250565b600061395e602083612968565b915061396982613928565b602082019050919050565b6000602082019050818103600083015261398d81613951565b9050919050565b7f4552433732313a20746f6b656e20616c7265616479206d696e74656400000000600082015250565b60006139ca601c83612968565b91506139d582613994565b602082019050919050565b600060208201905081810360008301526139f9816139bd565b9050919050565b7f45524337323155524953746f726167653a2055524920736574206f66206e6f6e60008201527f6578697374656e7420746f6b656e000000000000000000000000000000000000602082015250565b6000613a5c602e83612968565b9150613a6782613a00565b604082019050919050565b60006020820190508181036000830152613a8b81613a4f565b9050919050565b7f4552433732313a207472616e736665722066726f6d20696e636f72726563742060008201527f6f776e6572000000000000000000000000000000000000000000000000000000602082015250565b6000613aee602583612968565b9150613af982613a92565b604082019050919050565b60006020820190508181036000830152613b1d81613ae1565b9050919050565b7f4552433732313a207472616e7366657220746f20746865207a65726f2061646460008201527f7265737300000000000000000000000000000000000000000000000000000000602082015250565b6000613b80602483612968565b9150613b8b82613b24565b604082019050919050565b60006020820190508181036000830152613baf81613b73565b9050919050565b7f4f776e61626c653a2063616c6c6572206973206e6f7420746865206f776e6572600082015250565b6000613bec602083612968565b9150613bf782613bb6565b602082019050919050565b60006020820190508181036000830152613c1b81613bdf565b9050919050565b7f4552433732313a20617070726f766520746f2063616c6c657200000000000000600082015250565b6000613c58601983612968565b9150613c6382613c22565b602082019050919050565b60006020820190508181036000830152613c8781613c4b565b9050919050565b7f4552433732313a207472616e7366657220746f206e6f6e20455243373231526560008201527f63656976657220696d706c656d656e7465720000000000000000000000000000602082015250565b6000613cea603283612968565b9150613cf582613c8e565b604082019050919050565b60006020820190508181036000830152613d1981613cdd565b9050919050565b600081519050919050565b600082825260208201905092915050565b6000613d4782613d20565b613d518185613d2b565b9350613d61818560208601612979565b613d6a816129ac565b840191505092915050565b6000608082019050613d8a6000830187612aa3565b613d976020830186612aa3565b613da46040830185612864565b8181036060830152613db68184613d3c565b905095945050505050565b600081519050613dd0816128ce565b92915050565b600060208284031215613dec57613deb612898565b5b6000613dfa84828501613dc1565b91505092915050565b7f4e487b7100000000000000000000000000000000000000000000000000000000600052601260045260246000fdfea2646970667358221220bc1dce366f0567421eb4047df1a59bd13fd5e50c228511a4589d9ae76275f45c64736f6c634300080a0033",
  "linkReferences": {},
  "deployedLinkReferences": {}
}