{
  "_format": "hh-sol-artifact-1",
  "contractName": "MulX721",
  "sourceName": "contracts/MulX721.sol",
  "abi": [
    {
      "inputs": [],
      "stateMutability": "payable",
      "type": "constructor"
    },
    {
      "anonymous": false,
      "inputs": [
        {
          "indexed": true,
          "internalType": "address",
          "name": "owner",
          "type": "address"
        },
        {
          "indexed": true,
          "internalType": "address",
          "name": "approved",
          "type": "address"
        },
        {
          "indexed": true,
          "internalType": "uint256",
          "name": "tokenId",
          "type": "uint256"
        }
      ],
      "name": "Approval",
      "type": "event"
    },
    {
      "anonymous": false,
      "inputs": [
        {
          "indexed": true,
          "internalType": "address",
          "name": "owner",
          "type": "address"
        },
        {
          "indexed": true,
          "internalType": "address",
          "name": "operator",
          "type": "address"
        },
        {
          "indexed": false,
          "internalType": "bool",
          "name": "approved",
          "type": "bool"
        }
      ],
      "name": "ApprovalForAll",
      "type": "event"
    },
    {
      "anonymous": false,
      "inputs": [
        {
          "indexed": false,
          "internalType": "uint256",
          "name": "_fromTokenId",
          "type": "uint256"
        },
        {
          "indexed": false,
          "internalType": "uint256",
          "name": "_toTokenId",
          "type": "uint256"
        }
      ],
      "name": "BatchMetadataUpdate",
      "type": "event"
    },
    {
      "anonymous": false,
      "inputs": [
        {
          "indexed": false,
          "internalType": "uint256",
          "name": "_tokenId",
          "type": "uint256"
        }
      ],
      "name": "MetadataUpdate",
      "type": "event"
    },
    {
      "anonymous": false,
      "inputs": [
        {
          "indexed": true,
          "internalType": "address",
          "name": "previousOwner",
          "type": "address"
        },
        {
          "indexed": true,
          "internalType": "address",
          "name": "newOwner",
          "type": "address"
        }
      ],
      "name": "OwnershipTransferred",
      "type": "event"
    },
    {
      "anonymous": false,
      "inputs": [
        {
          "indexed": true,
          "internalType": "address",
          "name": "from",
          "type": "address"
        },
        {
          "indexed": true,
          "internalType": "address",
          "name": "to",
          "type": "address"
        },
        {
          "indexed": true,
          "internalType": "uint256",
          "name": "tokenId",
          "type": "uint256"
        }
      ],
      "name": "Transfer",
      "type": "event"
    },
    {
      "inputs": [
        {
          "internalType": "uint256",
          "name": "",
          "type": "uint256"
        }
      ],
      "name": "NftPrice",
      "outputs": [
        {
          "internalType": "uint256",
          "name": "",
          "type": "uint256"
        }
      ],
      "stateMutability": "view",
      "type": "function"
    },
    {
      "inputs": [
        {
          "internalType": "address",
          "name": "to",
          "type": "address"
        },
        {
          "internalType": "uint256",
          "name": "tokenId",
          "type": "uint256"
        }
      ],
      "name": "approve",
      "outputs": [],
      "stateMutability": "nonpayable",
      "type": "function"
    },
    {
      "inputs": [
        {
          "internalType": "address",
          "name": "_owner",
          "type": "address"
        }
      ],
      "name": "balanceOf",
      "outputs": [
        {
          "internalType": "uint256",
          "name": "",
          "type": "uint256"
        }
      ],
      "stateMutability": "view",
      "type": "function"
    },
    {
      "inputs": [
        {
          "internalType": "uint256",
          "name": "_tokenId",
          "type": "uint256"
        },
        {
          "internalType": "address",
          "name": "_buyAddress",
          "type": "address"
        }
      ],
      "name": "buyNFT",
      "outputs": [],
      "stateMutability": "nonpayable",
      "type": "function"
    },
    {
      "inputs": [],
      "name": "getAllNftList",
      "outputs": [
        {
          "components": [
            {
              "internalType": "uint256",
              "name": "nftTokenId",
              "type": "uint256"
            },
            {
              "internalType": "string",
              "name": "nftTokenURI",
              "type": "string"
            }
          ],
          "internalType": "struct MulX721.NftTokenData[]",
          "name": "",
          "type": "tuple[]"
        }
      ],
      "stateMutability": "view",
      "type": "function"
    },
    {
      "inputs": [
        {
          "internalType": "uint256",
          "name": "tokenId",
          "type": "uint256"
        }
      ],
      "name": "getApproved",
      "outputs": [
        {
          "internalType": "address",
          "name": "",
          "type": "address"
        }
      ],
      "stateMutability": "view",
      "type": "function"
    },
    {
      "inputs": [
        {
          "internalType": "uint256",
          "name": "_tokenId",
          "type": "uint256"
        }
      ],
      "name": "getNftPrice",
      "outputs": [
        {
          "internalType": "uint256",
          "name": "",
          "type": "uint256"
        }
      ],
      "stateMutability": "view",
      "type": "function"
    },
    {
      "inputs": [
        {
          "internalType": "address",
          "name": "_nftTokenOwner",
          "type": "address"
        }
      ],
      "name": "getNftTokenList",
      "outputs": [
        {
          "components": [
            {
              "internalType": "uint256",
              "name": "nftTokenId",
              "type": "uint256"
            },
            {
              "internalType": "string",
              "name": "nftTokenURI",
              "type": "string"
            }
          ],
          "internalType": "struct MulX721.NftTokenData[]",
          "name": "",
          "type": "tuple[]"
        }
      ],
      "stateMutability": "view",
      "type": "function"
    },
    {
      "inputs": [
        {
          "internalType": "uint256",
          "name": "tokenId",
          "type": "uint256"
        }
      ],
      "name": "getOwnerOfTokenId",
      "outputs": [
        {
          "internalType": "address",
          "name": "",
          "type": "address"
        }
      ],
      "stateMutability": "view",
      "type": "function"
    },
    {
      "inputs": [],
      "name": "getTokenId",
      "outputs": [
        {
          "internalType": "uint256",
          "name": "",
          "type": "uint256"
        }
      ],
      "stateMutability": "view",
      "type": "function"
    },
    {
      "inputs": [
        {
          "internalType": "address",
          "name": "owner",
          "type": "address"
        },
        {
          "internalType": "address",
          "name": "operator",
          "type": "address"
        }
      ],
      "name": "isApprovedForAll",
      "outputs": [
        {
          "internalType": "bool",
          "name": "",
          "type": "bool"
        }
      ],
      "stateMutability": "view",
      "type": "function"
    },
    {
      "inputs": [
        {
          "internalType": "uint256",
          "name": "",
          "type": "uint256"
        }
      ],
      "name": "metadataURIs",
      "outputs": [
        {
          "internalType": "string",
          "name": "",
          "type": "string"
        }
      ],
      "stateMutability": "view",
      "type": "function"
    },
    {
      "inputs": [
        {
          "internalType": "address",
          "name": "recipient",
          "type": "address"
        },
        {
          "internalType": "string",
          "name": "tokenURI",
          "type": "string"
        },
        {
          "internalType": "uint256",
          "name": "_nftPrice",
          "type": "uint256"
        }
      ],
      "name": "mintNFT",
      "outputs": [
        {
          "internalType": "uint256",
          "name": "",
          "type": "uint256"
        },
        {
          "internalType": "uint256",
          "name": "",
          "type": "uint256"
        }
      ],
      "stateMutability": "nonpayable",
      "type": "function"
    },
    {
      "inputs": [],
      "name": "name",
      "outputs": [
        {
          "internalType": "string",
          "name": "",
          "type": "string"
        }
      ],
      "stateMutability": "view",
      "type": "function"
    },
    {
      "inputs": [],
      "name": "owner",
      "outputs": [
        {
          "internalType": "address",
          "name": "",
          "type": "address"
        }
      ],
      "stateMutability": "view",
      "type": "function"
    },
    {
      "inputs": [
        {
          "internalType": "uint256",
          "name": "tokenId",
          "type": "uint256"
        }
      ],
      "name": "ownerOf",
      "outputs": [
        {
          "internalType": "address",
          "name": "",
          "type": "address"
        }
      ],
      "stateMutability": "view",
      "type": "function"
    },
    {
      "inputs": [],
      "name": "renounceOwnership",
      "outputs": [],
      "stateMutability": "nonpayable",
      "type": "function"
    },
    {
      "inputs": [
        {
          "internalType": "address",
          "name": "from",
          "type": "address"
        },
        {
          "internalType": "address",
          "name": "to",
          "type": "address"
        },
        {
          "internalType": "uint256",
          "name": "tokenId",
          "type": "uint256"
        }
      ],
      "name": "safeTransferFrom",
      "outputs": [],
      "stateMutability": "nonpayable",
      "type": "function"
    },
    {
      "inputs": [
        {
          "internalType": "address",
          "name": "from",
          "type": "address"
        },
        {
          "internalType": "address",
          "name": "to",
          "type": "address"
        },
        {
          "internalType": "uint256",
          "name": "tokenId",
          "type": "uint256"
        },
        {
          "internalType": "bytes",
          "name": "data",
          "type": "bytes"
        }
      ],
      "name": "safeTransferFrom",
      "outputs": [],
      "stateMutability": "nonpayable",
      "type": "function"
    },
    {
      "inputs": [
        {
          "internalType": "address",
          "name": "operator",
          "type": "address"
        },
        {
          "internalType": "bool",
          "name": "approved",
          "type": "bool"
        }
      ],
      "name": "setApprovalForAll",
      "outputs": [],
      "stateMutability": "nonpayable",
      "type": "function"
    },
    {
      "inputs": [
        {
          "internalType": "uint256",
          "name": "_tokenId",
          "type": "uint256"
        },
        {
          "internalType": "uint256",
          "name": "_price",
          "type": "uint256"
        }
      ],
      "name": "setNftPrice",
      "outputs": [
        {
          "internalType": "uint256",
          "name": "",
          "type": "uint256"
        }
      ],
      "stateMutability": "nonpayable",
      "type": "function"
    },
    {
      "inputs": [
        {
          "internalType": "address",
          "name": "tokenAddress",
          "type": "address"
        }
      ],
      "name": "setToken",
      "outputs": [
        {
          "internalType": "bool",
          "name": "",
          "type": "bool"
        }
      ],
      "stateMutability": "nonpayable",
      "type": "function"
    },
    {
      "inputs": [
        {
          "internalType": "bytes4",
          "name": "interfaceId",
          "type": "bytes4"
        }
      ],
      "name": "supportsInterface",
      "outputs": [
        {
          "internalType": "bool",
          "name": "",
          "type": "bool"
        }
      ],
      "stateMutability": "view",
      "type": "function"
    },
    {
      "inputs": [],
      "name": "symbol",
      "outputs": [
        {
          "internalType": "string",
          "name": "",
          "type": "string"
        }
      ],
      "stateMutability": "view",
      "type": "function"
    },
    {
      "inputs": [
        {
          "internalType": "address",
          "name": "_owner",
          "type": "address"
        },
        {
          "internalType": "uint256",
          "name": "_index",
          "type": "uint256"
        }
      ],
      "name": "tokenOfOwnerByIndex",
      "outputs": [
        {
          "internalType": "uint256",
          "name": "",
          "type": "uint256"
        }
      ],
      "stateMutability": "view",
      "type": "function"
    },
    {
      "inputs": [
        {
          "internalType": "uint256",
          "name": "tokenId",
          "type": "uint256"
        }
      ],
      "name": "tokenURI",
      "outputs": [
        {
          "internalType": "string",
          "name": "",
          "type": "string"
        }
      ],
      "stateMutability": "view",
      "type": "function"
    },
    {
      "inputs": [],
      "name": "totalSupply",
      "outputs": [
        {
          "internalType": "uint256",
          "name": "",
          "type": "uint256"
        }
      ],
      "stateMutability": "view",
      "type": "function"
    },
    {
      "inputs": [
        {
          "internalType": "address",
          "name": "from",
          "type": "address"
        },
        {
          "internalType": "address",
          "name": "to",
          "type": "address"
        },
        {
          "internalType": "uint256",
          "name": "tokenId",
          "type": "uint256"
        }
      ],
      "name": "transferFrom",
      "outputs": [],
      "stateMutability": "nonpayable",
      "type": "function"
    },
    {
      "inputs": [
        {
          "internalType": "address",
          "name": "newOwner",
          "type": "address"
        }
      ],
      "name": "transferOwnership",
      "outputs": [],
      "stateMutability": "nonpayable",
      "type": "function"
    }
  ],
  "bytecode": "0x60806040526040518060400160405280600681526020017f4d794e46547300000000000000000000000000000000000000000000000000008152506040518060400160405280600481526020017f4d4e465400000000000000000000000000000000000000000000000000000000815250816000908051906020019062000088929190620001a7565b508060019080519060200190620000a1929190620001a7565b505050620000c4620000b8620000d960201b60201c565b620000e160201b60201c565b67016345785d8a0000600a81905550620002bc565b600033905090565b6000600760009054906101000a900473ffffffffffffffffffffffffffffffffffffffff16905081600760006101000a81548173ffffffffffffffffffffffffffffffffffffffff021916908373ffffffffffffffffffffffffffffffffffffffff1602179055508173ffffffffffffffffffffffffffffffffffffffff168173ffffffffffffffffffffffffffffffffffffffff167f8be0079c531659141344cd1fd0a4f28419497f9722a3daafe3b4186f6b6457e060405160405180910390a35050565b828054620001b59062000286565b90600052602060002090601f016020900481019282620001d9576000855562000225565b82601f10620001f457805160ff191683800117855562000225565b8280016001018555821562000225579182015b828111156200022457825182559160200191906001019062000207565b5b50905062000234919062000238565b5090565b5b808211156200025357600081600090555060010162000239565b5090565b7f4e487b7100000000000000000000000000000000000000000000000000000000600052602260045260246000fd5b600060028204905060018216806200029f57607f821691505b60208210811415620002b657620002b562000257565b5b50919050565b613cc880620002cc6000396000f3fe608060405234801561001057600080fd5b50600436106101cf5760003560e01c806370a08231116101045780639b934b52116100a2578063c87b56dd11610071578063c87b56dd1461058f578063d8db47a7146105bf578063e985e9c5146105db578063f2fde38b1461060b576101cf565b80639b934b5214610509578063a22cb46514610527578063af9030a114610543578063b88d4fde14610573576101cf565b80637a61013f116100de5780637a61013f1461046d5780637bf0989a1461049d5780638da5cb5b146104cd57806395d89b41146104eb576101cf565b806370a0823114610403578063715018a6146104335780637a336a481461043d576101cf565b806318160ddd1161017157806342842e0e1161014b57806342842e0e1461035757806348688b3c146103735780634ed5c558146103a35780636352211e146103d3576101cf565b806318160ddd146102ed57806323b872dd1461030b5780632f745c5914610327576101cf565b8063081812fc116101ad578063081812fc1461024057806308598df014610270578063095ea7b3146102a1578063144fa6d7146102bd576101cf565b8063010a38f5146101d457806301ffc9a7146101f257806306fdde0314610222575b600080fd5b6101dc610627565b6040516101e991906126f7565b60405180910390f35b61020c6004803603810190610207919061277e565b610638565b60405161021991906127c6565b60405180910390f35b61022a610699565b604051610237919061287a565b60405180910390f35b61025a600480360381019061025591906128c8565b61072b565b6040516102679190612936565b60405180910390f35b61028a60048036038101906102859190612ab2565b610771565b604051610298929190612b21565b60405180910390f35b6102bb60048036038101906102b69190612b4a565b6107e2565b005b6102d760048036038101906102d29190612b8a565b6108fa565b6040516102e491906127c6565b60405180910390f35b6102f5610988565b60405161030291906126f7565b60405180910390f35b61032560048036038101906103209190612bb7565b610999565b005b610341600480360381019061033c9190612b4a565b6109f9565b60405161034e91906126f7565b60405180910390f35b610371600480360381019061036c9190612bb7565b610ad8565b005b61038d600480360381019061038891906128c8565b610af8565b60405161039a9190612936565b60405180910390f35b6103bd60048036038101906103b891906128c8565b610b0a565b6040516103ca919061287a565b60405180910390f35b6103ed60048036038101906103e891906128c8565b610baa565b6040516103fa9190612936565b60405180910390f35b61041d60048036038101906104189190612b8a565b610c31565b60405161042a91906126f7565b60405180910390f35b61043b610cb5565b005b610457600480360381019061045291906128c8565b610cc9565b60405161046491906126f7565b60405180910390f35b61048760048036038101906104829190612c0a565b610ce1565b60405161049491906126f7565b60405180910390f35b6104b760048036038101906104b291906128c8565b610d0a565b6040516104c491906126f7565b60405180910390f35b6104d5610d27565b6040516104e29190612936565b60405180910390f35b6104f3610d51565b604051610500919061287a565b60405180910390f35b610511610de3565b60405161051e9190612da2565b60405180910390f35b610541600480360381019061053c9190612df0565b610ec5565b005b61055d60048036038101906105589190612b8a565b610edb565b60405161056a9190612da2565b60405180910390f35b61058d60048036038101906105889190612ed1565b610fbb565b005b6105a960048036038101906105a491906128c8565b61101d565b6040516105b6919061287a565b60405180910390f35b6105d960048036038101906105d49190612f54565b611130565b005b6105f560048036038101906105f09190612f94565b611449565b60405161060291906127c6565b60405180910390f35b61062560048036038101906106209190612b8a565b6114dd565b005b60006106336008611561565b905090565b6000634906490660e01b7bffffffffffffffffffffffffffffffffffffffffffffffffffffffff1916827bffffffffffffffffffffffffffffffffffffffffffffffffffffffff1916148061069257506106918261156f565b5b9050919050565b6060600080546106a890613003565b80601f01602080910402602001604051908101604052809291908181526020018280546106d490613003565b80156107215780601f106106f657610100808354040283529160200191610721565b820191906000526020600020905b81548152906001019060200180831161070457829003601f168201915b5050505050905090565b600061073682611651565b6004600083815260200190815260200160002060009054906101000a900473ffffffffffffffffffffffffffffffffffffffff169050919050565b60008061077c61169c565b610786600861171a565b60006107926008611561565b905061079e8682611730565b6107a8818661194e565b83600c60008381526020019081526020016000208190555080600c6000838152602001908152602001600020549250925050935093915050565b60006107ed82610baa565b90508073ffffffffffffffffffffffffffffffffffffffff168373ffffffffffffffffffffffffffffffffffffffff16141561085e576040517f08c379a0000000000000000000000000000000000000000000000000000000008152600401610855906130a7565b60405180910390fd5b8073ffffffffffffffffffffffffffffffffffffffff1661087d6119f9565b73ffffffffffffffffffffffffffffffffffffffff1614806108ac57506108ab816108a66119f9565b611449565b5b6108eb576040517f08c379a00000000000000000000000000000000000000000000000000000000081526004016108e290613139565b60405180910390fd5b6108f58383611a01565b505050565b600061090461169c565b600073ffffffffffffffffffffffffffffffffffffffff168273ffffffffffffffffffffffffffffffffffffffff16141561093e57600080fd5b81600960006101000a81548173ffffffffffffffffffffffffffffffffffffffff021916908373ffffffffffffffffffffffffffffffffffffffff16021790555060019050919050565b60006109946008611561565b905090565b6109aa6109a46119f9565b82611aba565b6109e9576040517f08c379a00000000000000000000000000000000000000000000000000000000081526004016109e0906131cb565b60405180910390fd5b6109f4838383611b4f565b505050565b6000610a0483610c31565b8210610a45576040517f08c379a0000000000000000000000000000000000000000000000000000000008152600401610a3c9061325d565b60405180910390fd5b600080600190505b610a55610988565b8111610acb578473ffffffffffffffffffffffffffffffffffffffff16610a7b82610baa565b73ffffffffffffffffffffffffffffffffffffffff161415610ab85783821415610aa9578092505050610ad2565b8180610ab4906132ac565b9250505b8080610ac3906132ac565b915050610a4d565b5060009150505b92915050565b610af383838360405180602001604052806000815250610fbb565b505050565b6000610b0382610baa565b9050919050565b600b6020528060005260406000206000915090508054610b2990613003565b80601f0160208091040260200160405190810160405280929190818152602001828054610b5590613003565b8015610ba25780601f10610b7757610100808354040283529160200191610ba2565b820191906000526020600020905b815481529060010190602001808311610b8557829003601f168201915b505050505081565b600080610bb683611e49565b9050600073ffffffffffffffffffffffffffffffffffffffff168173ffffffffffffffffffffffffffffffffffffffff161415610c28576040517f08c379a0000000000000000000000000000000000000000000000000000000008152600401610c1f90613341565b60405180910390fd5b80915050919050565b600080600090506000600190505b610c47610988565b8111610cab578373ffffffffffffffffffffffffffffffffffffffff16610c6d82610baa565b73ffffffffffffffffffffffffffffffffffffffff161415610c98578180610c94906132ac565b9250505b8080610ca3906132ac565b915050610c3f565b5080915050919050565b610cbd61169c565b610cc76000611e86565b565b600c6020528060005260406000206000915090505481565b6000610ceb61169c565b81600c6000858152602001908152602001600020819055905092915050565b6000600c6000838152602001908152602001600020549050919050565b6000600760009054906101000a900473ffffffffffffffffffffffffffffffffffffffff16905090565b606060018054610d6090613003565b80601f0160208091040260200160405190810160405280929190818152602001828054610d8c90613003565b8015610dd95780601f10610dae57610100808354040283529160200191610dd9565b820191906000526020600020905b815481529060010190602001808311610dbc57829003601f168201915b5050505050905090565b60606000610df16008611561565b905060008167ffffffffffffffff811115610e0f57610e0e612987565b5b604051908082528060200260200182016040528015610e4857816020015b610e35612621565b815260200190600190039081610e2d5790505b50905060005b82811015610ebc576000600182610e659190613361565b90506000610e728261101d565b9050604051806040016040528083815260200182815250848481518110610e9c57610e9b6133b7565b5b602002602001018190525050508080610eb4906132ac565b915050610e4e565b50809250505090565b610ed7610ed06119f9565b8383611f4c565b5050565b60606000610ee883610c31565b905060008167ffffffffffffffff811115610f0657610f05612987565b5b604051908082528060200260200182016040528015610f3f57816020015b610f2c612621565b815260200190600190039081610f245790505b50905060005b82811015610fb0576000610f5986836109f9565b90506000610f668261101d565b9050604051806040016040528083815260200182815250848481518110610f9057610f8f6133b7565b5b602002602001018190525050508080610fa8906132ac565b915050610f45565b508092505050919050565b610fcc610fc66119f9565b83611aba565b61100b576040517f08c379a0000000000000000000000000000000000000000000000000000000008152600401611002906131cb565b60405180910390fd5b611017848484846120b9565b50505050565b606061102882611651565b600060066000848152602001908152602001600020805461104890613003565b80601f016020809104026020016040519081016040528092919081815260200182805461107490613003565b80156110c15780601f10611096576101008083540402835291602001916110c1565b820191906000526020600020905b8154815290600101906020018083116110a457829003601f168201915b5050505050905060006110d2612115565b90506000815114156110e857819250505061112b565b60008251111561111d578082604051602001611105929190613422565b6040516020818303038152906040529250505061112b565b6111268461212c565b925050505b919050565b6000600c60008481526020019081526020016000205490506000811161118b576040517f08c379a000000000000000000000000000000000000000000000000000000000815260040161118290613492565b60405180910390fd5b80600960009054906101000a900473ffffffffffffffffffffffffffffffffffffffff1673ffffffffffffffffffffffffffffffffffffffff1663dd62ed3e84306040518363ffffffff1660e01b81526004016111e99291906134b2565b602060405180830381865afa158015611206573d6000803e3d6000fd5b505050506040513d601f19601f8201168201806040525081019061122a91906134f0565b101561126b576040517f08c379a000000000000000000000000000000000000000000000000000000000815260040161126290613569565b60405180910390fd5b600960009054906101000a900473ffffffffffffffffffffffffffffffffffffffff1673ffffffffffffffffffffffffffffffffffffffff166323b872dd8330846040518463ffffffff1660e01b81526004016112ca93929190613589565b6020604051808303816000875af11580156112e9573d6000803e3d6000fd5b505050506040513d601f19601f8201168201806040525081019061130d91906135d5565b61134c576040517f08c379a00000000000000000000000000000000000000000000000000000000081526004016113439061364e565b60405180910390fd5b600061135784610baa565b9050600960009054906101000a900473ffffffffffffffffffffffffffffffffffffffff1673ffffffffffffffffffffffffffffffffffffffff1663a9059cbb82846040518363ffffffff1660e01b81526004016113b69291906136cd565b6020604051808303816000875af11580156113d5573d6000803e3d6000fd5b505050506040513d601f19601f820116820180604052508101906113f991906135d5565b611438576040517f08c379a000000000000000000000000000000000000000000000000000000000815260040161142f9061364e565b60405180910390fd5b611443818486610ad8565b50505050565b6000600560008473ffffffffffffffffffffffffffffffffffffffff1673ffffffffffffffffffffffffffffffffffffffff16815260200190815260200160002060008373ffffffffffffffffffffffffffffffffffffffff1673ffffffffffffffffffffffffffffffffffffffff16815260200190815260200160002060009054906101000a900460ff16905092915050565b6114e561169c565b600073ffffffffffffffffffffffffffffffffffffffff168173ffffffffffffffffffffffffffffffffffffffff161415611555576040517f08c379a000000000000000000000000000000000000000000000000000000000815260040161154c90613768565b60405180910390fd5b61155e81611e86565b50565b600081600001549050919050565b60007f80ac58cd000000000000000000000000000000000000000000000000000000007bffffffffffffffffffffffffffffffffffffffffffffffffffffffff1916827bffffffffffffffffffffffffffffffffffffffffffffffffffffffff1916148061163a57507f5b5e139f000000000000000000000000000000000000000000000000000000007bffffffffffffffffffffffffffffffffffffffffffffffffffffffff1916827bffffffffffffffffffffffffffffffffffffffffffffffffffffffff1916145b8061164a575061164982612194565b5b9050919050565b61165a816121fe565b611699576040517f08c379a000000000000000000000000000000000000000000000000000000000815260040161169090613341565b60405180910390fd5b50565b6116a46119f9565b73ffffffffffffffffffffffffffffffffffffffff166116c2610d27565b73ffffffffffffffffffffffffffffffffffffffff1614611718576040517f08c379a000000000000000000000000000000000000000000000000000000000815260040161170f906137d4565b60405180910390fd5b565b6001816000016000828254019250508190555050565b600073ffffffffffffffffffffffffffffffffffffffff168273ffffffffffffffffffffffffffffffffffffffff1614156117a0576040517f08c379a000000000000000000000000000000000000000000000000000000000815260040161179790613840565b60405180910390fd5b6117a9816121fe565b156117e9576040517f08c379a00000000000000000000000000000000000000000000000000000000081526004016117e0906138ac565b60405180910390fd5b6117f760008383600161223f565b611800816121fe565b15611840576040517f08c379a0000000000000000000000000000000000000000000000000000000008152600401611837906138ac565b60405180910390fd5b6001600360008473ffffffffffffffffffffffffffffffffffffffff1673ffffffffffffffffffffffffffffffffffffffff16815260200190815260200160002060008282540192505081905550816002600083815260200190815260200160002060006101000a81548173ffffffffffffffffffffffffffffffffffffffff021916908373ffffffffffffffffffffffffffffffffffffffff160217905550808273ffffffffffffffffffffffffffffffffffffffff16600073ffffffffffffffffffffffffffffffffffffffff167fddf252ad1be2c89b69c2b068fc378daa952ba7f163c4a11628f55a4df523b3ef60405160405180910390a461194a600083836001612245565b5050565b611957826121fe565b611996576040517f08c379a000000000000000000000000000000000000000000000000000000000815260040161198d9061393e565b60405180910390fd5b806006600084815260200190815260200160002090805190602001906119bd92919061263b565b507ff8e1a15aba9398e019f0b49df1a4fde98ee17ae345cb5f6b5e2c27f5033e8ce7826040516119ed91906126f7565b60405180910390a15050565b600033905090565b816004600083815260200190815260200160002060006101000a81548173ffffffffffffffffffffffffffffffffffffffff021916908373ffffffffffffffffffffffffffffffffffffffff160217905550808273ffffffffffffffffffffffffffffffffffffffff16611a7483610baa565b73ffffffffffffffffffffffffffffffffffffffff167f8c5be1e5ebec7d5bd14f71427d1e84f3dd0314c0f7b2291e5b200ac8c7c3b92560405160405180910390a45050565b600080611ac683610baa565b90508073ffffffffffffffffffffffffffffffffffffffff168473ffffffffffffffffffffffffffffffffffffffff161480611b085750611b078185611449565b5b80611b4657508373ffffffffffffffffffffffffffffffffffffffff16611b2e8461072b565b73ffffffffffffffffffffffffffffffffffffffff16145b91505092915050565b8273ffffffffffffffffffffffffffffffffffffffff16611b6f82610baa565b73ffffffffffffffffffffffffffffffffffffffff1614611bc5576040517f08c379a0000000000000000000000000000000000000000000000000000000008152600401611bbc906139d0565b60405180910390fd5b600073ffffffffffffffffffffffffffffffffffffffff168273ffffffffffffffffffffffffffffffffffffffff161415611c35576040517f08c379a0000000000000000000000000000000000000000000000000000000008152600401611c2c90613a62565b60405180910390fd5b611c42838383600161223f565b8273ffffffffffffffffffffffffffffffffffffffff16611c6282610baa565b73ffffffffffffffffffffffffffffffffffffffff1614611cb8576040517f08c379a0000000000000000000000000000000000000000000000000000000008152600401611caf906139d0565b60405180910390fd5b6004600082815260200190815260200160002060006101000a81549073ffffffffffffffffffffffffffffffffffffffff02191690556001600360008573ffffffffffffffffffffffffffffffffffffffff1673ffffffffffffffffffffffffffffffffffffffff168152602001908152602001600020600082825403925050819055506001600360008473ffffffffffffffffffffffffffffffffffffffff1673ffffffffffffffffffffffffffffffffffffffff16815260200190815260200160002060008282540192505081905550816002600083815260200190815260200160002060006101000a81548173ffffffffffffffffffffffffffffffffffffffff021916908373ffffffffffffffffffffffffffffffffffffffff160217905550808273ffffffffffffffffffffffffffffffffffffffff168473ffffffffffffffffffffffffffffffffffffffff167fddf252ad1be2c89b69c2b068fc378daa952ba7f163c4a11628f55a4df523b3ef60405160405180910390a4611e448383836001612245565b505050565b60006002600083815260200190815260200160002060009054906101000a900473ffffffffffffffffffffffffffffffffffffffff169050919050565b6000600760009054906101000a900473ffffffffffffffffffffffffffffffffffffffff16905081600760006101000a81548173ffffffffffffffffffffffffffffffffffffffff021916908373ffffffffffffffffffffffffffffffffffffffff1602179055508173ffffffffffffffffffffffffffffffffffffffff168173ffffffffffffffffffffffffffffffffffffffff167f8be0079c531659141344cd1fd0a4f28419497f9722a3daafe3b4186f6b6457e060405160405180910390a35050565b8173ffffffffffffffffffffffffffffffffffffffff168373ffffffffffffffffffffffffffffffffffffffff161415611fbb576040517f08c379a0000000000000000000000000000000000000000000000000000000008152600401611fb290613ace565b60405180910390fd5b80600560008573ffffffffffffffffffffffffffffffffffffffff1673ffffffffffffffffffffffffffffffffffffffff16815260200190815260200160002060008473ffffffffffffffffffffffffffffffffffffffff1673ffffffffffffffffffffffffffffffffffffffff16815260200190815260200160002060006101000a81548160ff0219169083151502179055508173ffffffffffffffffffffffffffffffffffffffff168373ffffffffffffffffffffffffffffffffffffffff167f17307eab39ab6107e8899845ad3d59bd9653f200f220920489ca2b5937696c31836040516120ac91906127c6565b60405180910390a3505050565b6120c4848484611b4f565b6120d08484848461224b565b61210f576040517f08c379a000000000000000000000000000000000000000000000000000000000815260040161210690613b60565b60405180910390fd5b50505050565b606060405180602001604052806000815250905090565b606061213782611651565b6000612141612115565b90506000815111612161576040518060200160405280600081525061218c565b8061216b846123d3565b60405160200161217c929190613422565b6040516020818303038152906040525b915050919050565b60007f01ffc9a7000000000000000000000000000000000000000000000000000000007bffffffffffffffffffffffffffffffffffffffffffffffffffffffff1916827bffffffffffffffffffffffffffffffffffffffffffffffffffffffff1916149050919050565b60008073ffffffffffffffffffffffffffffffffffffffff1661222083611e49565b73ffffffffffffffffffffffffffffffffffffffff1614159050919050565b50505050565b50505050565b600061226c8473ffffffffffffffffffffffffffffffffffffffff166124ab565b156123c6578373ffffffffffffffffffffffffffffffffffffffff1663150b7a026122956119f9565b8786866040518563ffffffff1660e01b81526004016122b79493929190613bd5565b6020604051808303816000875af19250505080156122f357506040513d601f19601f820116820180604052508101906122f09190613c36565b60015b612376573d8060008114612323576040519150601f19603f3d011682016040523d82523d6000602084013e612328565b606091505b5060008151141561236e576040517f08c379a000000000000000000000000000000000000000000000000000000000815260040161236590613b60565b60405180910390fd5b805181602001fd5b63150b7a0260e01b7bffffffffffffffffffffffffffffffffffffffffffffffffffffffff1916817bffffffffffffffffffffffffffffffffffffffffffffffffffffffff1916149150506123cb565b600190505b949350505050565b6060600060016123e2846124ce565b01905060008167ffffffffffffffff81111561240157612400612987565b5b6040519080825280601f01601f1916602001820160405280156124335781602001600182028036833780820191505090505b509050600082602001820190505b6001156124a0578080600190039150507f3031323334353637383961626364656600000000000000000000000000000000600a86061a8153600a858161248a57612489613c63565b5b049450600085141561249b576124a0565b612441565b819350505050919050565b6000808273ffffffffffffffffffffffffffffffffffffffff163b119050919050565b600080600090507a184f03e93ff9f4daa797ed6e38ed64bf6a1f010000000000000000831061252c577a184f03e93ff9f4daa797ed6e38ed64bf6a1f010000000000000000838161252257612521613c63565b5b0492506040810190505b6d04ee2d6d415b85acef81000000008310612569576d04ee2d6d415b85acef8100000000838161255f5761255e613c63565b5b0492506020810190505b662386f26fc10000831061259857662386f26fc10000838161258e5761258d613c63565b5b0492506010810190505b6305f5e10083106125c1576305f5e10083816125b7576125b6613c63565b5b0492506008810190505b61271083106125e65761271083816125dc576125db613c63565b5b0492506004810190505b6064831061260957606483816125ff576125fe613c63565b5b0492506002810190505b600a8310612618576001810190505b80915050919050565b604051806040016040528060008152602001606081525090565b82805461264790613003565b90600052602060002090601f01602090048101928261266957600085556126b0565b82601f1061268257805160ff19168380011785556126b0565b828001600101855582156126b0579182015b828111156126af578251825591602001919060010190612694565b5b5090506126bd91906126c1565b5090565b5b808211156126da5760008160009055506001016126c2565b5090565b6000819050919050565b6126f1816126de565b82525050565b600060208201905061270c60008301846126e8565b92915050565b6000604051905090565b600080fd5b600080fd5b60007fffffffff0000000000000000000000000000000000000000000000000000000082169050919050565b61275b81612726565b811461276657600080fd5b50565b60008135905061277881612752565b92915050565b6000602082840312156127945761279361271c565b5b60006127a284828501612769565b91505092915050565b60008115159050919050565b6127c0816127ab565b82525050565b60006020820190506127db60008301846127b7565b92915050565b600081519050919050565b600082825260208201905092915050565b60005b8381101561281b578082015181840152602081019050612800565b8381111561282a576000848401525b50505050565b6000601f19601f8301169050919050565b600061284c826127e1565b61285681856127ec565b93506128668185602086016127fd565b61286f81612830565b840191505092915050565b600060208201905081810360008301526128948184612841565b905092915050565b6128a5816126de565b81146128b057600080fd5b50565b6000813590506128c28161289c565b92915050565b6000602082840312156128de576128dd61271c565b5b60006128ec848285016128b3565b91505092915050565b600073ffffffffffffffffffffffffffffffffffffffff82169050919050565b6000612920826128f5565b9050919050565b61293081612915565b82525050565b600060208201905061294b6000830184612927565b92915050565b61295a81612915565b811461296557600080fd5b50565b60008135905061297781612951565b92915050565b600080fd5b600080fd5b7f4e487b7100000000000000000000000000000000000000000000000000000000600052604160045260246000fd5b6129bf82612830565b810181811067ffffffffffffffff821117156129de576129dd612987565b5b80604052505050565b60006129f1612712565b90506129fd82826129b6565b919050565b600067ffffffffffffffff821115612a1d57612a1c612987565b5b612a2682612830565b9050602081019050919050565b82818337600083830152505050565b6000612a55612a5084612a02565b6129e7565b905082815260208101848484011115612a7157612a70612982565b5b612a7c848285612a33565b509392505050565b600082601f830112612a9957612a9861297d565b5b8135612aa9848260208601612a42565b91505092915050565b600080600060608486031215612acb57612aca61271c565b5b6000612ad986828701612968565b935050602084013567ffffffffffffffff811115612afa57612af9612721565b5b612b0686828701612a84565b9250506040612b17868287016128b3565b9150509250925092565b6000604082019050612b3660008301856126e8565b612b4360208301846126e8565b9392505050565b60008060408385031215612b6157612b6061271c565b5b6000612b6f85828601612968565b9250506020612b80858286016128b3565b9150509250929050565b600060208284031215612ba057612b9f61271c565b5b6000612bae84828501612968565b91505092915050565b600080600060608486031215612bd057612bcf61271c565b5b6000612bde86828701612968565b9350506020612bef86828701612968565b9250506040612c00868287016128b3565b9150509250925092565b60008060408385031215612c2157612c2061271c565b5b6000612c2f858286016128b3565b9250506020612c40858286016128b3565b9150509250929050565b600081519050919050565b600082825260208201905092915050565b6000819050602082019050919050565b612c7f816126de565b82525050565b600082825260208201905092915050565b6000612ca1826127e1565b612cab8185612c85565b9350612cbb8185602086016127fd565b612cc481612830565b840191505092915050565b6000604083016000830151612ce76000860182612c76565b5060208301518482036020860152612cff8282612c96565b9150508091505092915050565b6000612d188383612ccf565b905092915050565b6000602082019050919050565b6000612d3882612c4a565b612d428185612c55565b935083602082028501612d5485612c66565b8060005b85811015612d905784840389528151612d718582612d0c565b9450612d7c83612d20565b925060208a01995050600181019050612d58565b50829750879550505050505092915050565b60006020820190508181036000830152612dbc8184612d2d565b905092915050565b612dcd816127ab565b8114612dd857600080fd5b50565b600081359050612dea81612dc4565b92915050565b60008060408385031215612e0757612e0661271c565b5b6000612e1585828601612968565b9250506020612e2685828601612ddb565b9150509250929050565b600067ffffffffffffffff821115612e4b57612e4a612987565b5b612e5482612830565b9050602081019050919050565b6000612e74612e6f84612e30565b6129e7565b905082815260208101848484011115612e9057612e8f612982565b5b612e9b848285612a33565b509392505050565b600082601f830112612eb857612eb761297d565b5b8135612ec8848260208601612e61565b91505092915050565b60008060008060808587031215612eeb57612eea61271c565b5b6000612ef987828801612968565b9450506020612f0a87828801612968565b9350506040612f1b878288016128b3565b925050606085013567ffffffffffffffff811115612f3c57612f3b612721565b5b612f4887828801612ea3565b91505092959194509250565b60008060408385031215612f6b57612f6a61271c565b5b6000612f79858286016128b3565b9250506020612f8a85828601612968565b9150509250929050565b60008060408385031215612fab57612faa61271c565b5b6000612fb985828601612968565b9250506020612fca85828601612968565b9150509250929050565b7f4e487b7100000000000000000000000000000000000000000000000000000000600052602260045260246000fd5b6000600282049050600182168061301b57607f821691505b6020821081141561302f5761302e612fd4565b5b50919050565b7f4552433732313a20617070726f76616c20746f2063757272656e74206f776e6560008201527f7200000000000000000000000000000000000000000000000000000000000000602082015250565b60006130916021836127ec565b915061309c82613035565b604082019050919050565b600060208201905081810360008301526130c081613084565b9050919050565b7f4552433732313a20617070726f76652063616c6c6572206973206e6f7420746f60008201527f6b656e206f776e6572206f7220617070726f76656420666f7220616c6c000000602082015250565b6000613123603d836127ec565b915061312e826130c7565b604082019050919050565b6000602082019050818103600083015261315281613116565b9050919050565b7f4552433732313a2063616c6c6572206973206e6f7420746f6b656e206f776e6560008201527f72206f7220617070726f76656400000000000000000000000000000000000000602082015250565b60006131b5602d836127ec565b91506131c082613159565b604082019050919050565b600060208201905081810360008301526131e4816131a8565b9050919050565b7f455243373231456e756d657261626c653a206f776e657220696e646578206f7560008201527f74206f6620626f756e6473000000000000000000000000000000000000000000602082015250565b6000613247602b836127ec565b9150613252826131eb565b604082019050919050565b600060208201905081810360008301526132768161323a565b9050919050565b7f4e487b7100000000000000000000000000000000000000000000000000000000600052601160045260246000fd5b60006132b7826126de565b91507fffffffffffffffffffffffffffffffffffffffffffffffffffffffffffffffff8214156132ea576132e961327d565b5b600182019050919050565b7f4552433732313a20696e76616c696420746f6b656e2049440000000000000000600082015250565b600061332b6018836127ec565b9150613336826132f5565b602082019050919050565b6000602082019050818103600083015261335a8161331e565b9050919050565b600061336c826126de565b9150613377836126de565b9250827fffffffffffffffffffffffffffffffffffffffffffffffffffffffffffffffff038211156133ac576133ab61327d565b5b828201905092915050565b7f4e487b7100000000000000000000000000000000000000000000000000000000600052603260045260246000fd5b600081905092915050565b60006133fc826127e1565b61340681856133e6565b93506134168185602086016127fd565b80840191505092915050565b600061342e82856133f1565b915061343a82846133f1565b91508190509392505050565b7f496e76616c6964204e4654207072696365000000000000000000000000000000600082015250565b600061347c6011836127ec565b915061348782613446565b602082019050919050565b600060208201905081810360008301526134ab8161346f565b9050919050565b60006040820190506134c76000830185612927565b6134d46020830184612927565b9392505050565b6000815190506134ea8161289c565b92915050565b6000602082840312156135065761350561271c565b5b6000613514848285016134db565b91505092915050565b7f546f6b656e20616c6c6f77616e6365206e6f7420736574000000000000000000600082015250565b60006135536017836127ec565b915061355e8261351d565b602082019050919050565b6000602082019050818103600083015261358281613546565b9050919050565b600060608201905061359e6000830186612927565b6135ab6020830185612927565b6135b860408301846126e8565b949350505050565b6000815190506135cf81612dc4565b92915050565b6000602082840312156135eb576135ea61271c565b5b60006135f9848285016135c0565b91505092915050565b7f546f6b656e207472616e73666572206661696c65640000000000000000000000600082015250565b60006136386015836127ec565b915061364382613602565b602082019050919050565b600060208201905081810360008301526136678161362b565b9050919050565b6000819050919050565b600061369361368e613689846128f5565b61366e565b6128f5565b9050919050565b60006136a582613678565b9050919050565b60006136b78261369a565b9050919050565b6136c7816136ac565b82525050565b60006040820190506136e260008301856136be565b6136ef60208301846126e8565b9392505050565b7f4f776e61626c653a206e6577206f776e657220697320746865207a65726f206160008201527f6464726573730000000000000000000000000000000000000000000000000000602082015250565b60006137526026836127ec565b915061375d826136f6565b604082019050919050565b6000602082019050818103600083015261378181613745565b9050919050565b7f4f776e61626c653a2063616c6c6572206973206e6f7420746865206f776e6572600082015250565b60006137be6020836127ec565b91506137c982613788565b602082019050919050565b600060208201905081810360008301526137ed816137b1565b9050919050565b7f4552433732313a206d696e7420746f20746865207a65726f2061646472657373600082015250565b600061382a6020836127ec565b9150613835826137f4565b602082019050919050565b600060208201905081810360008301526138598161381d565b9050919050565b7f4552433732313a20746f6b656e20616c7265616479206d696e74656400000000600082015250565b6000613896601c836127ec565b91506138a182613860565b602082019050919050565b600060208201905081810360008301526138c581613889565b9050919050565b7f45524337323155524953746f726167653a2055524920736574206f66206e6f6e60008201527f6578697374656e7420746f6b656e000000000000000000000000000000000000602082015250565b6000613928602e836127ec565b9150613933826138cc565b604082019050919050565b600060208201905081810360008301526139578161391b565b9050919050565b7f4552433732313a207472616e736665722066726f6d20696e636f72726563742060008201527f6f776e6572000000000000000000000000000000000000000000000000000000602082015250565b60006139ba6025836127ec565b91506139c58261395e565b604082019050919050565b600060208201905081810360008301526139e9816139ad565b9050919050565b7f4552433732313a207472616e7366657220746f20746865207a65726f2061646460008201527f7265737300000000000000000000000000000000000000000000000000000000602082015250565b6000613a4c6024836127ec565b9150613a57826139f0565b604082019050919050565b60006020820190508181036000830152613a7b81613a3f565b9050919050565b7f4552433732313a20617070726f766520746f2063616c6c657200000000000000600082015250565b6000613ab86019836127ec565b9150613ac382613a82565b602082019050919050565b60006020820190508181036000830152613ae781613aab565b9050919050565b7f4552433732313a207472616e7366657220746f206e6f6e20455243373231526560008201527f63656976657220696d706c656d656e7465720000000000000000000000000000602082015250565b6000613b4a6032836127ec565b9150613b5582613aee565b604082019050919050565b60006020820190508181036000830152613b7981613b3d565b9050919050565b600081519050919050565b600082825260208201905092915050565b6000613ba782613b80565b613bb18185613b8b565b9350613bc18185602086016127fd565b613bca81612830565b840191505092915050565b6000608082019050613bea6000830187612927565b613bf76020830186612927565b613c0460408301856126e8565b8181036060830152613c168184613b9c565b905095945050505050565b600081519050613c3081612752565b92915050565b600060208284031215613c4c57613c4b61271c565b5b6000613c5a84828501613c21565b91505092915050565b7f4e487b7100000000000000000000000000000000000000000000000000000000600052601260045260246000fdfea26469706673582212203bad4f808ebec6c2d9dc21979f273081965f7a70fe63b58f9e92b854acadb99864736f6c634300080a0033",
  "linkReferences": {},
  "deployedLinkReferences": {}
}