{
  "_format": "hh-sol-artifact-1",
  "contractName": "MulX721",
  "sourceName": "contracts/MulX721.sol",
  "abi": [
    {
      "inputs": [],
      "stateMutability": "payable",
      "type": "constructor"
    },
    {
      "anonymous": false,
      "inputs": [
        {
          "indexed": true,
          "internalType": "address",
          "name": "owner",
          "type": "address"
        },
        {
          "indexed": true,
          "internalType": "address",
          "name": "approved",
          "type": "address"
        },
        {
          "indexed": true,
          "internalType": "uint256",
          "name": "tokenId",
          "type": "uint256"
        }
      ],
      "name": "Approval",
      "type": "event"
    },
    {
      "anonymous": false,
      "inputs": [
        {
          "indexed": true,
          "internalType": "address",
          "name": "owner",
          "type": "address"
        },
        {
          "indexed": true,
          "internalType": "address",
          "name": "operator",
          "type": "address"
        },
        {
          "indexed": false,
          "internalType": "bool",
          "name": "approved",
          "type": "bool"
        }
      ],
      "name": "ApprovalForAll",
      "type": "event"
    },
    {
      "anonymous": false,
      "inputs": [
        {
          "indexed": false,
          "internalType": "uint256",
          "name": "_fromTokenId",
          "type": "uint256"
        },
        {
          "indexed": false,
          "internalType": "uint256",
          "name": "_toTokenId",
          "type": "uint256"
        }
      ],
      "name": "BatchMetadataUpdate",
      "type": "event"
    },
    {
      "anonymous": false,
      "inputs": [
        {
          "indexed": false,
          "internalType": "uint256",
          "name": "_tokenId",
          "type": "uint256"
        }
      ],
      "name": "MetadataUpdate",
      "type": "event"
    },
    {
      "anonymous": false,
      "inputs": [
        {
          "indexed": true,
          "internalType": "address",
          "name": "previousOwner",
          "type": "address"
        },
        {
          "indexed": true,
          "internalType": "address",
          "name": "newOwner",
          "type": "address"
        }
      ],
      "name": "OwnershipTransferred",
      "type": "event"
    },
    {
      "anonymous": false,
      "inputs": [
        {
          "indexed": true,
          "internalType": "address",
          "name": "from",
          "type": "address"
        },
        {
          "indexed": true,
          "internalType": "address",
          "name": "to",
          "type": "address"
        },
        {
          "indexed": true,
          "internalType": "uint256",
          "name": "tokenId",
          "type": "uint256"
        }
      ],
      "name": "Transfer",
      "type": "event"
    },
    {
      "inputs": [
        {
          "internalType": "uint256",
          "name": "",
          "type": "uint256"
        }
      ],
      "name": "NftPrice",
      "outputs": [
        {
          "internalType": "uint256",
          "name": "",
          "type": "uint256"
        }
      ],
      "stateMutability": "view",
      "type": "function"
    },
    {
      "inputs": [
        {
          "internalType": "address",
          "name": "_approved",
          "type": "address"
        },
        {
          "internalType": "uint256",
          "name": "_tokenId",
          "type": "uint256"
        }
      ],
      "name": "approve",
      "outputs": [],
      "stateMutability": "nonpayable",
      "type": "function"
    },
    {
      "inputs": [
        {
          "internalType": "address",
          "name": "_owner",
          "type": "address"
        }
      ],
      "name": "balanceOf",
      "outputs": [
        {
          "internalType": "uint256",
          "name": "",
          "type": "uint256"
        }
      ],
      "stateMutability": "view",
      "type": "function"
    },
    {
      "inputs": [
        {
          "internalType": "uint256",
          "name": "_tokenId",
          "type": "uint256"
        }
      ],
      "name": "buyNftToken",
      "outputs": [],
      "stateMutability": "nonpayable",
      "type": "function"
    },
    {
      "inputs": [],
      "name": "getAllNftList",
      "outputs": [
        {
          "components": [
            {
              "internalType": "uint256",
              "name": "nftTokenId",
              "type": "uint256"
            },
            {
              "internalType": "string",
              "name": "nftTokenURI",
              "type": "string"
            }
          ],
          "internalType": "struct MulX721.NftTokenData[]",
          "name": "",
          "type": "tuple[]"
        }
      ],
      "stateMutability": "view",
      "type": "function"
    },
    {
      "inputs": [
        {
          "internalType": "address",
          "name": "buyer",
          "type": "address"
        },
        {
          "internalType": "address",
          "name": "spender",
          "type": "address"
        }
      ],
      "name": "getAllowance",
      "outputs": [
        {
          "internalType": "uint256",
          "name": "",
          "type": "uint256"
        }
      ],
      "stateMutability": "view",
      "type": "function"
    },
    {
      "inputs": [
        {
          "internalType": "uint256",
          "name": "_tokenId",
          "type": "uint256"
        }
      ],
      "name": "getApproved",
      "outputs": [
        {
          "internalType": "address",
          "name": "",
          "type": "address"
        }
      ],
      "stateMutability": "view",
      "type": "function"
    },
    {
      "inputs": [
        {
          "internalType": "uint256",
          "name": "_tokenId",
          "type": "uint256"
        }
      ],
      "name": "getNftByTokenId",
      "outputs": [
        {
          "components": [
            {
              "internalType": "uint256",
              "name": "nftTokenId",
              "type": "uint256"
            },
            {
              "internalType": "string",
              "name": "nftTokenURI",
              "type": "string"
            }
          ],
          "internalType": "struct MulX721.NftTokenData",
          "name": "",
          "type": "tuple"
        }
      ],
      "stateMutability": "view",
      "type": "function"
    },
    {
      "inputs": [
        {
          "internalType": "uint256",
          "name": "_tokenId",
          "type": "uint256"
        }
      ],
      "name": "getNftPrice",
      "outputs": [
        {
          "internalType": "uint256",
          "name": "",
          "type": "uint256"
        }
      ],
      "stateMutability": "view",
      "type": "function"
    },
    {
      "inputs": [
        {
          "internalType": "address",
          "name": "_nftTokenOwner",
          "type": "address"
        }
      ],
      "name": "getNftTokenList",
      "outputs": [
        {
          "components": [
            {
              "internalType": "uint256",
              "name": "nftTokenId",
              "type": "uint256"
            },
            {
              "internalType": "string",
              "name": "nftTokenURI",
              "type": "string"
            }
          ],
          "internalType": "struct MulX721.NftTokenData[]",
          "name": "",
          "type": "tuple[]"
        }
      ],
      "stateMutability": "view",
      "type": "function"
    },
    {
      "inputs": [
        {
          "internalType": "uint256",
          "name": "tokenId",
          "type": "uint256"
        }
      ],
      "name": "getOwnerOfTokenId",
      "outputs": [
        {
          "internalType": "address",
          "name": "",
          "type": "address"
        }
      ],
      "stateMutability": "view",
      "type": "function"
    },
    {
      "inputs": [],
      "name": "getToken",
      "outputs": [
        {
          "internalType": "address",
          "name": "",
          "type": "address"
        }
      ],
      "stateMutability": "view",
      "type": "function"
    },
    {
      "inputs": [],
      "name": "getTokenId",
      "outputs": [
        {
          "internalType": "uint256",
          "name": "",
          "type": "uint256"
        }
      ],
      "stateMutability": "view",
      "type": "function"
    },
    {
      "inputs": [
        {
          "internalType": "address",
          "name": "owner",
          "type": "address"
        },
        {
          "internalType": "address",
          "name": "operator",
          "type": "address"
        }
      ],
      "name": "isApprovedForAll",
      "outputs": [
        {
          "internalType": "bool",
          "name": "",
          "type": "bool"
        }
      ],
      "stateMutability": "view",
      "type": "function"
    },
    {
      "inputs": [
        {
          "internalType": "uint256",
          "name": "",
          "type": "uint256"
        }
      ],
      "name": "metadataURIs",
      "outputs": [
        {
          "internalType": "string",
          "name": "",
          "type": "string"
        }
      ],
      "stateMutability": "view",
      "type": "function"
    },
    {
      "inputs": [
        {
          "internalType": "address",
          "name": "recipient",
          "type": "address"
        },
        {
          "internalType": "string",
          "name": "tokenURI",
          "type": "string"
        },
        {
          "internalType": "uint256",
          "name": "_nftPrice",
          "type": "uint256"
        }
      ],
      "name": "mintNFT",
      "outputs": [
        {
          "internalType": "uint256",
          "name": "",
          "type": "uint256"
        },
        {
          "internalType": "uint256",
          "name": "",
          "type": "uint256"
        }
      ],
      "stateMutability": "nonpayable",
      "type": "function"
    },
    {
      "inputs": [],
      "name": "name",
      "outputs": [
        {
          "internalType": "string",
          "name": "",
          "type": "string"
        }
      ],
      "stateMutability": "view",
      "type": "function"
    },
    {
      "inputs": [
        {
          "internalType": "uint256",
          "name": "",
          "type": "uint256"
        }
      ],
      "name": "nftTokens",
      "outputs": [
        {
          "internalType": "uint256",
          "name": "nftTokenId",
          "type": "uint256"
        },
        {
          "internalType": "string",
          "name": "nftTokenURI",
          "type": "string"
        }
      ],
      "stateMutability": "view",
      "type": "function"
    },
    {
      "inputs": [],
      "name": "owner",
      "outputs": [
        {
          "internalType": "address",
          "name": "",
          "type": "address"
        }
      ],
      "stateMutability": "view",
      "type": "function"
    },
    {
      "inputs": [
        {
          "internalType": "uint256",
          "name": "tokenId",
          "type": "uint256"
        }
      ],
      "name": "ownerOf",
      "outputs": [
        {
          "internalType": "address",
          "name": "",
          "type": "address"
        }
      ],
      "stateMutability": "view",
      "type": "function"
    },
    {
      "inputs": [],
      "name": "renounceOwnership",
      "outputs": [],
      "stateMutability": "nonpayable",
      "type": "function"
    },
    {
      "inputs": [
        {
          "internalType": "address",
          "name": "from",
          "type": "address"
        },
        {
          "internalType": "address",
          "name": "to",
          "type": "address"
        },
        {
          "internalType": "uint256",
          "name": "tokenId",
          "type": "uint256"
        }
      ],
      "name": "safeTransferFrom",
      "outputs": [],
      "stateMutability": "nonpayable",
      "type": "function"
    },
    {
      "inputs": [
        {
          "internalType": "address",
          "name": "from",
          "type": "address"
        },
        {
          "internalType": "address",
          "name": "to",
          "type": "address"
        },
        {
          "internalType": "uint256",
          "name": "tokenId",
          "type": "uint256"
        },
        {
          "internalType": "bytes",
          "name": "data",
          "type": "bytes"
        }
      ],
      "name": "safeTransferFrom",
      "outputs": [],
      "stateMutability": "nonpayable",
      "type": "function"
    },
    {
      "inputs": [
        {
          "internalType": "address",
          "name": "operator",
          "type": "address"
        },
        {
          "internalType": "bool",
          "name": "approved",
          "type": "bool"
        }
      ],
      "name": "setApprovalForAll",
      "outputs": [],
      "stateMutability": "nonpayable",
      "type": "function"
    },
    {
      "inputs": [
        {
          "internalType": "address",
          "name": "sender",
          "type": "address"
        },
        {
          "internalType": "address",
          "name": "recipient",
          "type": "address"
        },
        {
          "internalType": "uint256",
          "name": "amount",
          "type": "uint256"
        }
      ],
      "name": "setMmulTransferFrom",
      "outputs": [
        {
          "internalType": "bool",
          "name": "",
          "type": "bool"
        }
      ],
      "stateMutability": "nonpayable",
      "type": "function"
    },
    {
      "inputs": [
        {
          "internalType": "uint256",
          "name": "_tokenId",
          "type": "uint256"
        },
        {
          "internalType": "uint256",
          "name": "_price",
          "type": "uint256"
        }
      ],
      "name": "setNftPrice",
      "outputs": [
        {
          "internalType": "uint256",
          "name": "",
          "type": "uint256"
        }
      ],
      "stateMutability": "nonpayable",
      "type": "function"
    },
    {
      "inputs": [
        {
          "internalType": "address",
          "name": "tokenAddress",
          "type": "address"
        }
      ],
      "name": "setToken",
      "outputs": [
        {
          "internalType": "bool",
          "name": "",
          "type": "bool"
        }
      ],
      "stateMutability": "nonpayable",
      "type": "function"
    },
    {
      "inputs": [
        {
          "internalType": "bytes4",
          "name": "interfaceId",
          "type": "bytes4"
        }
      ],
      "name": "supportsInterface",
      "outputs": [
        {
          "internalType": "bool",
          "name": "",
          "type": "bool"
        }
      ],
      "stateMutability": "view",
      "type": "function"
    },
    {
      "inputs": [],
      "name": "symbol",
      "outputs": [
        {
          "internalType": "string",
          "name": "",
          "type": "string"
        }
      ],
      "stateMutability": "view",
      "type": "function"
    },
    {
      "inputs": [
        {
          "internalType": "address",
          "name": "_owner",
          "type": "address"
        },
        {
          "internalType": "uint256",
          "name": "_index",
          "type": "uint256"
        }
      ],
      "name": "tokenOfOwnerByIndex",
      "outputs": [
        {
          "internalType": "uint256",
          "name": "",
          "type": "uint256"
        }
      ],
      "stateMutability": "view",
      "type": "function"
    },
    {
      "inputs": [
        {
          "internalType": "uint256",
          "name": "tokenId",
          "type": "uint256"
        }
      ],
      "name": "tokenURI",
      "outputs": [
        {
          "internalType": "string",
          "name": "",
          "type": "string"
        }
      ],
      "stateMutability": "view",
      "type": "function"
    },
    {
      "inputs": [],
      "name": "totalSupply",
      "outputs": [
        {
          "internalType": "uint256",
          "name": "",
          "type": "uint256"
        }
      ],
      "stateMutability": "view",
      "type": "function"
    },
    {
      "inputs": [
        {
          "internalType": "address",
          "name": "from",
          "type": "address"
        },
        {
          "internalType": "address",
          "name": "to",
          "type": "address"
        },
        {
          "internalType": "uint256",
          "name": "tokenId",
          "type": "uint256"
        }
      ],
      "name": "transferFrom",
      "outputs": [],
      "stateMutability": "nonpayable",
      "type": "function"
    },
    {
      "inputs": [
        {
          "internalType": "address",
          "name": "newOwner",
          "type": "address"
        }
      ],
      "name": "transferOwnership",
      "outputs": [],
      "stateMutability": "nonpayable",
      "type": "function"
    }
  ],
  "bytecode": "0x60806040526040518060400160405280600681526020017f4d794e46547300000000000000000000000000000000000000000000000000008152506040518060400160405280600481526020017f4d4e465400000000000000000000000000000000000000000000000000000000815250816000908051906020019062000088929190620001a7565b508060019080519060200190620000a1929190620001a7565b505050620000c4620000b8620000d960201b60201c565b620000e160201b60201c565b67016345785d8a0000600a81905550620002bc565b600033905090565b6000600760009054906101000a900473ffffffffffffffffffffffffffffffffffffffff16905081600760006101000a81548173ffffffffffffffffffffffffffffffffffffffff021916908373ffffffffffffffffffffffffffffffffffffffff1602179055508173ffffffffffffffffffffffffffffffffffffffff168173ffffffffffffffffffffffffffffffffffffffff167f8be0079c531659141344cd1fd0a4f28419497f9722a3daafe3b4186f6b6457e060405160405180910390a35050565b828054620001b59062000286565b90600052602060002090601f016020900481019282620001d9576000855562000225565b82601f10620001f457805160ff191683800117855562000225565b8280016001018555821562000225579182015b828111156200022457825182559160200191906001019062000207565b5b50905062000234919062000238565b5090565b5b808211156200025357600081600090555060010162000239565b5090565b7f4e487b7100000000000000000000000000000000000000000000000000000000600052602260045260246000fd5b600060028204905060018216806200029f57607f821691505b60208210811415620002b657620002b562000257565b5b50919050565b61405280620002cc6000396000f3fe608060405234801561001057600080fd5b50600436106102065760003560e01c806370a082311161011a5780639b934b52116100ad578063c87b56dd1161007c578063c87b56dd14610674578063da8cc6e8146106a4578063e68b0944146106c0578063e985e9c5146106f1578063f2fde38b1461072157610206565b80639b934b52146105ee578063a22cb4651461060c578063af9030a114610628578063b88d4fde1461065857610206565b80637bf0989a116100e95780637bf0989a146105525780638da5cb5b1461058257806395d89b41146105a05780639b358e89146105be57610206565b806370a08231146104b8578063715018a6146104e85780637a336a48146104f25780637a61013f1461052257610206565b8063144fa6d71161019d5780632f745c591161016c5780632f745c59146103dc57806342842e0e1461040c57806348688b3c146104285780634ed5c558146104585780636352211e1461048857610206565b8063144fa6d71461035457806318160ddd1461038457806321df0da7146103a257806323b872dd146103c057610206565b806308214112116101d957806308214112146102a757806308598df0146102d7578063095ea7b3146103085780630af4187d1461032457610206565b8063010a38f51461020b57806301ffc9a71461022957806306fdde0314610259578063081812fc14610277575b600080fd5b61021361073d565b60405161022091906129ce565b60405180910390f35b610243600480360381019061023e9190612a55565b61074e565b6040516102509190612a9d565b60405180910390f35b6102616107af565b60405161026e9190612b51565b60405180910390f35b610291600480360381019061028c9190612b9f565b610841565b60405161029e9190612c0d565b60405180910390f35b6102c160048036038101906102bc9190612b9f565b6108c6565b6040516102ce9190612cbe565b60405180910390f35b6102f160048036038101906102ec9190612e41565b6108fe565b6040516102ff929190612eb0565b60405180910390f35b610322600480360381019061031d9190612ed9565b610971565b005b61033e60048036038101906103399190612f19565b610a7b565b60405161034b91906129ce565b60405180910390f35b61036e60048036038101906103699190612f59565b610b23565b60405161037b9190612a9d565b60405180910390f35b61038c610ba8565b60405161039991906129ce565b60405180910390f35b6103aa610bb9565b6040516103b79190612c0d565b60405180910390f35b6103da60048036038101906103d59190612f86565b610be3565b005b6103f660048036038101906103f19190612ed9565b610c43565b60405161040391906129ce565b60405180910390f35b61042660048036038101906104219190612f86565b610d22565b005b610442600480360381019061043d9190612b9f565b610d42565b60405161044f9190612c0d565b60405180910390f35b610472600480360381019061046d9190612b9f565b610d54565b60405161047f9190612b51565b60405180910390f35b6104a2600480360381019061049d9190612b9f565b610df4565b6040516104af9190612c0d565b60405180910390f35b6104d260048036038101906104cd9190612f59565b610e7b565b6040516104df91906129ce565b60405180910390f35b6104f0610eff565b005b61050c60048036038101906105079190612b9f565b610f13565b60405161051991906129ce565b60405180910390f35b61053c60048036038101906105379190612fd9565b610f2b565b60405161054991906129ce565b60405180910390f35b61056c60048036038101906105679190612b9f565b610f54565b60405161057991906129ce565b60405180910390f35b61058a610f71565b6040516105979190612c0d565b60405180910390f35b6105a8610f9b565b6040516105b59190612b51565b60405180910390f35b6105d860048036038101906105d39190612f86565b61102d565b6040516105e59190612a9d565b60405180910390f35b6105f66110da565b6040516106039190613118565b60405180910390f35b61062660048036038101906106219190613166565b6111bc565b005b610642600480360381019061063d9190612f59565b6111d2565b60405161064f9190613118565b60405180910390f35b610672600480360381019061066d9190613247565b6112b2565b005b61068e60048036038101906106899190612b9f565b611314565b60405161069b9190612b51565b60405180910390f35b6106be60048036038101906106b99190612b9f565b611427565b005b6106da60048036038101906106d59190612b9f565b6116d7565b6040516106e89291906132ca565b60405180910390f35b61070b60048036038101906107069190612f19565b611783565b6040516107189190612a9d565b60405180910390f35b61073b60048036038101906107369190612f59565b611817565b005b6000610749600861189b565b905090565b6000634906490660e01b7bffffffffffffffffffffffffffffffffffffffffffffffffffffffff1916827bffffffffffffffffffffffffffffffffffffffffffffffffffffffff191614806107a857506107a7826118a9565b5b9050919050565b6060600080546107be90613329565b80601f01602080910402602001604051908101604052809291908181526020018280546107ea90613329565b80156108375780601f1061080c57610100808354040283529160200191610837565b820191906000526020600020905b81548152906001019060200180831161081a57829003601f168201915b5050505050905090565b600061084c8261198b565b61088b576040517f08c379a0000000000000000000000000000000000000000000000000000000008152600401610882906133cd565b60405180910390fd5b600d600083815260200190815260200160002060009054906101000a900473ffffffffffffffffffffffffffffffffffffffff169050919050565b6108ce6128f8565b60006108d983611314565b9050600060405180604001604052808581526020018381525090508092505050919050565b60008061090b60086119cc565b6000610917600861189b565b905061092386826119e2565b61092d3082610971565b6109378186611c00565b83600c60008381526020019081526020016000208190555080600c6000838152602001908152602001600020549250925050935093915050565b600061097c82610df4565b90508073ffffffffffffffffffffffffffffffffffffffff168373ffffffffffffffffffffffffffffffffffffffff1614156109ed576040517f08c379a00000000000000000000000000000000000000000000000000000000081526004016109e49061345f565b60405180910390fd5b8073ffffffffffffffffffffffffffffffffffffffff163373ffffffffffffffffffffffffffffffffffffffff161480610a2d5750610a2c8133611783565b5b610a6c576040517f08c379a0000000000000000000000000000000000000000000000000000000008152600401610a63906134f1565b60405180910390fd5b610a768383611cab565b505050565b6000600960009054906101000a900473ffffffffffffffffffffffffffffffffffffffff1673ffffffffffffffffffffffffffffffffffffffff1663dd62ed3e84846040518363ffffffff1660e01b8152600401610ada929190613511565b602060405180830381865afa158015610af7573d6000803e3d6000fd5b505050506040513d601f19601f82011682018060405250810190610b1b919061354f565b905092915050565b60008073ffffffffffffffffffffffffffffffffffffffff168273ffffffffffffffffffffffffffffffffffffffff161415610b5e57600080fd5b81600960006101000a81548173ffffffffffffffffffffffffffffffffffffffff021916908373ffffffffffffffffffffffffffffffffffffffff16021790555060019050919050565b6000610bb4600861189b565b905090565b6000600960009054906101000a900473ffffffffffffffffffffffffffffffffffffffff16905090565b610bf4610bee611d01565b82611d09565b610c33576040517f08c379a0000000000000000000000000000000000000000000000000000000008152600401610c2a906135ee565b60405180910390fd5b610c3e838383611d9e565b505050565b6000610c4e83610e7b565b8210610c8f576040517f08c379a0000000000000000000000000000000000000000000000000000000008152600401610c8690613680565b60405180910390fd5b600080600190505b610c9f610ba8565b8111610d15578473ffffffffffffffffffffffffffffffffffffffff16610cc582610df4565b73ffffffffffffffffffffffffffffffffffffffff161415610d025783821415610cf3578092505050610d1c565b8180610cfe906136cf565b9250505b8080610d0d906136cf565b915050610c97565b5060009150505b92915050565b610d3d838383604051806020016040528060008152506112b2565b505050565b6000610d4d82610df4565b9050919050565b600b6020528060005260406000206000915090508054610d7390613329565b80601f0160208091040260200160405190810160405280929190818152602001828054610d9f90613329565b8015610dec5780601f10610dc157610100808354040283529160200191610dec565b820191906000526020600020905b815481529060010190602001808311610dcf57829003601f168201915b505050505081565b600080610e0083612098565b9050600073ffffffffffffffffffffffffffffffffffffffff168173ffffffffffffffffffffffffffffffffffffffff161415610e72576040517f08c379a0000000000000000000000000000000000000000000000000000000008152600401610e6990613764565b60405180910390fd5b80915050919050565b600080600090506000600190505b610e91610ba8565b8111610ef5578373ffffffffffffffffffffffffffffffffffffffff16610eb782610df4565b73ffffffffffffffffffffffffffffffffffffffff161415610ee2578180610ede906136cf565b9250505b8080610eed906136cf565b915050610e89565b5080915050919050565b610f076120d5565b610f116000612153565b565b600c6020528060005260406000206000915090505481565b6000610f356120d5565b81600c6000858152602001908152602001600020819055905092915050565b6000600c6000838152602001908152602001600020549050919050565b6000600760009054906101000a900473ffffffffffffffffffffffffffffffffffffffff16905090565b606060018054610faa90613329565b80601f0160208091040260200160405190810160405280929190818152602001828054610fd690613329565b80156110235780601f10610ff857610100808354040283529160200191611023565b820191906000526020600020905b81548152906001019060200180831161100657829003601f168201915b5050505050905090565b6000600960009054906101000a900473ffffffffffffffffffffffffffffffffffffffff1673ffffffffffffffffffffffffffffffffffffffff166323b872dd8585856040518463ffffffff1660e01b815260040161108e93929190613784565b6020604051808303816000875af11580156110ad573d6000803e3d6000fd5b505050506040513d601f19601f820116820180604052508101906110d191906137d0565b90509392505050565b606060006110e8600861189b565b905060008167ffffffffffffffff81111561110657611105612d16565b5b60405190808252806020026020018201604052801561113f57816020015b61112c6128f8565b8152602001906001900390816111245790505b50905060005b828110156111b357600060018261115c91906137fd565b9050600061116982611314565b905060405180604001604052808381526020018281525084848151811061119357611192613853565b5b6020026020010181905250505080806111ab906136cf565b915050611145565b50809250505090565b6111ce6111c7611d01565b8383612219565b5050565b606060006111df83610e7b565b905060008167ffffffffffffffff8111156111fd576111fc612d16565b5b60405190808252806020026020018201604052801561123657816020015b6112236128f8565b81526020019060019003908161121b5790505b50905060005b828110156112a75760006112508683610c43565b9050600061125d82611314565b905060405180604001604052808381526020018281525084848151811061128757611286613853565b5b60200260200101819052505050808061129f906136cf565b91505061123c565b508092505050919050565b6112c36112bd611d01565b83611d09565b611302576040517f08c379a00000000000000000000000000000000000000000000000000000000081526004016112f9906135ee565b60405180910390fd5b61130e84848484612386565b50505050565b606061131f826123e2565b600060066000848152602001908152602001600020805461133f90613329565b80601f016020809104026020016040519081016040528092919081815260200182805461136b90613329565b80156113b85780601f1061138d576101008083540402835291602001916113b8565b820191906000526020600020905b81548152906001019060200180831161139b57829003601f168201915b5050505050905060006113c961242d565b90506000815114156113df578192505050611422565b6000825111156114145780826040516020016113fc9291906138be565b60405160208183030381529060405292505050611422565b61141d84612444565b925050505b919050565b6000670de0b6b3a7640000600c60008481526020019081526020016000205461145091906138e2565b905060008111611495576040517f08c379a000000000000000000000000000000000000000000000000000000000815260040161148c90613988565b60405180910390fd5b80600960009054906101000a900473ffffffffffffffffffffffffffffffffffffffff1673ffffffffffffffffffffffffffffffffffffffff1663dd62ed3e33306040518363ffffffff1660e01b81526004016114f3929190613511565b602060405180830381865afa158015611510573d6000803e3d6000fd5b505050506040513d601f19601f82011682018060405250810190611534919061354f565b1015611575576040517f08c379a000000000000000000000000000000000000000000000000000000000815260040161156c906139f4565b60405180910390fd5b600061158083610df4565b9050600960009054906101000a900473ffffffffffffffffffffffffffffffffffffffff1673ffffffffffffffffffffffffffffffffffffffff166323b872dd3383856040518463ffffffff1660e01b81526004016115e193929190613784565b6020604051808303816000875af1158015611600573d6000803e3d6000fd5b505050506040513d601f19601f8201168201806040525081019061162491906137d0565b611663576040517f08c379a000000000000000000000000000000000000000000000000000000000815260040161165a90613a60565b60405180910390fd5b3073ffffffffffffffffffffffffffffffffffffffff166342842e0e8233866040518463ffffffff1660e01b81526004016116a093929190613784565b600060405180830381600087803b1580156116ba57600080fd5b505af11580156116ce573d6000803e3d6000fd5b50505050505050565b600e60205280600052604060002060009150905080600001549080600101805461170090613329565b80601f016020809104026020016040519081016040528092919081815260200182805461172c90613329565b80156117795780601f1061174e57610100808354040283529160200191611779565b820191906000526020600020905b81548152906001019060200180831161175c57829003601f168201915b5050505050905082565b6000600560008473ffffffffffffffffffffffffffffffffffffffff1673ffffffffffffffffffffffffffffffffffffffff16815260200190815260200160002060008373ffffffffffffffffffffffffffffffffffffffff1673ffffffffffffffffffffffffffffffffffffffff16815260200190815260200160002060009054906101000a900460ff16905092915050565b61181f6120d5565b600073ffffffffffffffffffffffffffffffffffffffff168173ffffffffffffffffffffffffffffffffffffffff16141561188f576040517f08c379a000000000000000000000000000000000000000000000000000000000815260040161188690613af2565b60405180910390fd5b61189881612153565b50565b600081600001549050919050565b60007f80ac58cd000000000000000000000000000000000000000000000000000000007bffffffffffffffffffffffffffffffffffffffffffffffffffffffff1916827bffffffffffffffffffffffffffffffffffffffffffffffffffffffff1916148061197457507f5b5e139f000000000000000000000000000000000000000000000000000000007bffffffffffffffffffffffffffffffffffffffffffffffffffffffff1916827bffffffffffffffffffffffffffffffffffffffffffffffffffffffff1916145b806119845750611983826124ac565b5b9050919050565b60008073ffffffffffffffffffffffffffffffffffffffff166119ad83612098565b73ffffffffffffffffffffffffffffffffffffffff1614159050919050565b6001816000016000828254019250508190555050565b600073ffffffffffffffffffffffffffffffffffffffff168273ffffffffffffffffffffffffffffffffffffffff161415611a52576040517f08c379a0000000000000000000000000000000000000000000000000000000008152600401611a4990613b5e565b60405180910390fd5b611a5b8161198b565b15611a9b576040517f08c379a0000000000000000000000000000000000000000000000000000000008152600401611a9290613bca565b60405180910390fd5b611aa9600083836001612516565b611ab28161198b565b15611af2576040517f08c379a0000000000000000000000000000000000000000000000000000000008152600401611ae990613bca565b60405180910390fd5b6001600360008473ffffffffffffffffffffffffffffffffffffffff1673ffffffffffffffffffffffffffffffffffffffff16815260200190815260200160002060008282540192505081905550816002600083815260200190815260200160002060006101000a81548173ffffffffffffffffffffffffffffffffffffffff021916908373ffffffffffffffffffffffffffffffffffffffff160217905550808273ffffffffffffffffffffffffffffffffffffffff16600073ffffffffffffffffffffffffffffffffffffffff167fddf252ad1be2c89b69c2b068fc378daa952ba7f163c4a11628f55a4df523b3ef60405160405180910390a4611bfc60008383600161251c565b5050565b611c098261198b565b611c48576040517f08c379a0000000000000000000000000000000000000000000000000000000008152600401611c3f90613c5c565b60405180910390fd5b80600660008481526020019081526020016000209080519060200190611c6f929190612912565b507ff8e1a15aba9398e019f0b49df1a4fde98ee17ae345cb5f6b5e2c27f5033e8ce782604051611c9f91906129ce565b60405180910390a15050565b81600d600083815260200190815260200160002060006101000a81548173ffffffffffffffffffffffffffffffffffffffff021916908373ffffffffffffffffffffffffffffffffffffffff1602179055505050565b600033905090565b600080611d1583610df4565b90508073ffffffffffffffffffffffffffffffffffffffff168473ffffffffffffffffffffffffffffffffffffffff161480611d575750611d568185611783565b5b80611d9557508373ffffffffffffffffffffffffffffffffffffffff16611d7d84610841565b73ffffffffffffffffffffffffffffffffffffffff16145b91505092915050565b8273ffffffffffffffffffffffffffffffffffffffff16611dbe82610df4565b73ffffffffffffffffffffffffffffffffffffffff1614611e14576040517f08c379a0000000000000000000000000000000000000000000000000000000008152600401611e0b90613cee565b60405180910390fd5b600073ffffffffffffffffffffffffffffffffffffffff168273ffffffffffffffffffffffffffffffffffffffff161415611e84576040517f08c379a0000000000000000000000000000000000000000000000000000000008152600401611e7b90613d80565b60405180910390fd5b611e918383836001612516565b8273ffffffffffffffffffffffffffffffffffffffff16611eb182610df4565b73ffffffffffffffffffffffffffffffffffffffff1614611f07576040517f08c379a0000000000000000000000000000000000000000000000000000000008152600401611efe90613cee565b60405180910390fd5b6004600082815260200190815260200160002060006101000a81549073ffffffffffffffffffffffffffffffffffffffff02191690556001600360008573ffffffffffffffffffffffffffffffffffffffff1673ffffffffffffffffffffffffffffffffffffffff168152602001908152602001600020600082825403925050819055506001600360008473ffffffffffffffffffffffffffffffffffffffff1673ffffffffffffffffffffffffffffffffffffffff16815260200190815260200160002060008282540192505081905550816002600083815260200190815260200160002060006101000a81548173ffffffffffffffffffffffffffffffffffffffff021916908373ffffffffffffffffffffffffffffffffffffffff160217905550808273ffffffffffffffffffffffffffffffffffffffff168473ffffffffffffffffffffffffffffffffffffffff167fddf252ad1be2c89b69c2b068fc378daa952ba7f163c4a11628f55a4df523b3ef60405160405180910390a4612093838383600161251c565b505050565b60006002600083815260200190815260200160002060009054906101000a900473ffffffffffffffffffffffffffffffffffffffff169050919050565b6120dd611d01565b73ffffffffffffffffffffffffffffffffffffffff166120fb610f71565b73ffffffffffffffffffffffffffffffffffffffff1614612151576040517f08c379a000000000000000000000000000000000000000000000000000000000815260040161214890613dec565b60405180910390fd5b565b6000600760009054906101000a900473ffffffffffffffffffffffffffffffffffffffff16905081600760006101000a81548173ffffffffffffffffffffffffffffffffffffffff021916908373ffffffffffffffffffffffffffffffffffffffff1602179055508173ffffffffffffffffffffffffffffffffffffffff168173ffffffffffffffffffffffffffffffffffffffff167f8be0079c531659141344cd1fd0a4f28419497f9722a3daafe3b4186f6b6457e060405160405180910390a35050565b8173ffffffffffffffffffffffffffffffffffffffff168373ffffffffffffffffffffffffffffffffffffffff161415612288576040517f08c379a000000000000000000000000000000000000000000000000000000000815260040161227f90613e58565b60405180910390fd5b80600560008573ffffffffffffffffffffffffffffffffffffffff1673ffffffffffffffffffffffffffffffffffffffff16815260200190815260200160002060008473ffffffffffffffffffffffffffffffffffffffff1673ffffffffffffffffffffffffffffffffffffffff16815260200190815260200160002060006101000a81548160ff0219169083151502179055508173ffffffffffffffffffffffffffffffffffffffff168373ffffffffffffffffffffffffffffffffffffffff167f17307eab39ab6107e8899845ad3d59bd9653f200f220920489ca2b5937696c31836040516123799190612a9d565b60405180910390a3505050565b612391848484611d9e565b61239d84848484612522565b6123dc576040517f08c379a00000000000000000000000000000000000000000000000000000000081526004016123d390613eea565b60405180910390fd5b50505050565b6123eb8161198b565b61242a576040517f08c379a000000000000000000000000000000000000000000000000000000000815260040161242190613764565b60405180910390fd5b50565b606060405180602001604052806000815250905090565b606061244f826123e2565b600061245961242d565b9050600081511161247957604051806020016040528060008152506124a4565b80612483846126aa565b6040516020016124949291906138be565b6040516020818303038152906040525b915050919050565b60007f01ffc9a7000000000000000000000000000000000000000000000000000000007bffffffffffffffffffffffffffffffffffffffffffffffffffffffff1916827bffffffffffffffffffffffffffffffffffffffffffffffffffffffff1916149050919050565b50505050565b50505050565b60006125438473ffffffffffffffffffffffffffffffffffffffff16612782565b1561269d578373ffffffffffffffffffffffffffffffffffffffff1663150b7a0261256c611d01565b8786866040518563ffffffff1660e01b815260040161258e9493929190613f5f565b6020604051808303816000875af19250505080156125ca57506040513d601f19601f820116820180604052508101906125c79190613fc0565b60015b61264d573d80600081146125fa576040519150601f19603f3d011682016040523d82523d6000602084013e6125ff565b606091505b50600081511415612645576040517f08c379a000000000000000000000000000000000000000000000000000000000815260040161263c90613eea565b60405180910390fd5b805181602001fd5b63150b7a0260e01b7bffffffffffffffffffffffffffffffffffffffffffffffffffffffff1916817bffffffffffffffffffffffffffffffffffffffffffffffffffffffff1916149150506126a2565b600190505b949350505050565b6060600060016126b9846127a5565b01905060008167ffffffffffffffff8111156126d8576126d7612d16565b5b6040519080825280601f01601f19166020018201604052801561270a5781602001600182028036833780820191505090505b509050600082602001820190505b600115612777578080600190039150507f3031323334353637383961626364656600000000000000000000000000000000600a86061a8153600a858161276157612760613fed565b5b049450600085141561277257612777565b612718565b819350505050919050565b6000808273ffffffffffffffffffffffffffffffffffffffff163b119050919050565b600080600090507a184f03e93ff9f4daa797ed6e38ed64bf6a1f0100000000000000008310612803577a184f03e93ff9f4daa797ed6e38ed64bf6a1f01000000000000000083816127f9576127f8613fed565b5b0492506040810190505b6d04ee2d6d415b85acef81000000008310612840576d04ee2d6d415b85acef8100000000838161283657612835613fed565b5b0492506020810190505b662386f26fc10000831061286f57662386f26fc10000838161286557612864613fed565b5b0492506010810190505b6305f5e1008310612898576305f5e100838161288e5761288d613fed565b5b0492506008810190505b61271083106128bd5761271083816128b3576128b2613fed565b5b0492506004810190505b606483106128e057606483816128d6576128d5613fed565b5b0492506002810190505b600a83106128ef576001810190505b80915050919050565b604051806040016040528060008152602001606081525090565b82805461291e90613329565b90600052602060002090601f0160209004810192826129405760008555612987565b82601f1061295957805160ff1916838001178555612987565b82800160010185558215612987579182015b8281111561298657825182559160200191906001019061296b565b5b5090506129949190612998565b5090565b5b808211156129b1576000816000905550600101612999565b5090565b6000819050919050565b6129c8816129b5565b82525050565b60006020820190506129e360008301846129bf565b92915050565b6000604051905090565b600080fd5b600080fd5b60007fffffffff0000000000000000000000000000000000000000000000000000000082169050919050565b612a32816129fd565b8114612a3d57600080fd5b50565b600081359050612a4f81612a29565b92915050565b600060208284031215612a6b57612a6a6129f3565b5b6000612a7984828501612a40565b91505092915050565b60008115159050919050565b612a9781612a82565b82525050565b6000602082019050612ab26000830184612a8e565b92915050565b600081519050919050565b600082825260208201905092915050565b60005b83811015612af2578082015181840152602081019050612ad7565b83811115612b01576000848401525b50505050565b6000601f19601f8301169050919050565b6000612b2382612ab8565b612b2d8185612ac3565b9350612b3d818560208601612ad4565b612b4681612b07565b840191505092915050565b60006020820190508181036000830152612b6b8184612b18565b905092915050565b612b7c816129b5565b8114612b8757600080fd5b50565b600081359050612b9981612b73565b92915050565b600060208284031215612bb557612bb46129f3565b5b6000612bc384828501612b8a565b91505092915050565b600073ffffffffffffffffffffffffffffffffffffffff82169050919050565b6000612bf782612bcc565b9050919050565b612c0781612bec565b82525050565b6000602082019050612c226000830184612bfe565b92915050565b612c31816129b5565b82525050565b600082825260208201905092915050565b6000612c5382612ab8565b612c5d8185612c37565b9350612c6d818560208601612ad4565b612c7681612b07565b840191505092915050565b6000604083016000830151612c996000860182612c28565b5060208301518482036020860152612cb18282612c48565b9150508091505092915050565b60006020820190508181036000830152612cd88184612c81565b905092915050565b612ce981612bec565b8114612cf457600080fd5b50565b600081359050612d0681612ce0565b92915050565b600080fd5b600080fd5b7f4e487b7100000000000000000000000000000000000000000000000000000000600052604160045260246000fd5b612d4e82612b07565b810181811067ffffffffffffffff82111715612d6d57612d6c612d16565b5b80604052505050565b6000612d806129e9565b9050612d8c8282612d45565b919050565b600067ffffffffffffffff821115612dac57612dab612d16565b5b612db582612b07565b9050602081019050919050565b82818337600083830152505050565b6000612de4612ddf84612d91565b612d76565b905082815260208101848484011115612e0057612dff612d11565b5b612e0b848285612dc2565b509392505050565b600082601f830112612e2857612e27612d0c565b5b8135612e38848260208601612dd1565b91505092915050565b600080600060608486031215612e5a57612e596129f3565b5b6000612e6886828701612cf7565b935050602084013567ffffffffffffffff811115612e8957612e886129f8565b5b612e9586828701612e13565b9250506040612ea686828701612b8a565b9150509250925092565b6000604082019050612ec560008301856129bf565b612ed260208301846129bf565b9392505050565b60008060408385031215612ef057612eef6129f3565b5b6000612efe85828601612cf7565b9250506020612f0f85828601612b8a565b9150509250929050565b60008060408385031215612f3057612f2f6129f3565b5b6000612f3e85828601612cf7565b9250506020612f4f85828601612cf7565b9150509250929050565b600060208284031215612f6f57612f6e6129f3565b5b6000612f7d84828501612cf7565b91505092915050565b600080600060608486031215612f9f57612f9e6129f3565b5b6000612fad86828701612cf7565b9350506020612fbe86828701612cf7565b9250506040612fcf86828701612b8a565b9150509250925092565b60008060408385031215612ff057612fef6129f3565b5b6000612ffe85828601612b8a565b925050602061300f85828601612b8a565b9150509250929050565b600081519050919050565b600082825260208201905092915050565b6000819050602082019050919050565b600060408301600083015161305d6000860182612c28565b50602083015184820360208601526130758282612c48565b9150508091505092915050565b600061308e8383613045565b905092915050565b6000602082019050919050565b60006130ae82613019565b6130b88185613024565b9350836020820285016130ca85613035565b8060005b8581101561310657848403895281516130e78582613082565b94506130f283613096565b925060208a019950506001810190506130ce565b50829750879550505050505092915050565b6000602082019050818103600083015261313281846130a3565b905092915050565b61314381612a82565b811461314e57600080fd5b50565b6000813590506131608161313a565b92915050565b6000806040838503121561317d5761317c6129f3565b5b600061318b85828601612cf7565b925050602061319c85828601613151565b9150509250929050565b600067ffffffffffffffff8211156131c1576131c0612d16565b5b6131ca82612b07565b9050602081019050919050565b60006131ea6131e5846131a6565b612d76565b90508281526020810184848401111561320657613205612d11565b5b613211848285612dc2565b509392505050565b600082601f83011261322e5761322d612d0c565b5b813561323e8482602086016131d7565b91505092915050565b60008060008060808587031215613261576132606129f3565b5b600061326f87828801612cf7565b945050602061328087828801612cf7565b935050604061329187828801612b8a565b925050606085013567ffffffffffffffff8111156132b2576132b16129f8565b5b6132be87828801613219565b91505092959194509250565b60006040820190506132df60008301856129bf565b81810360208301526132f18184612b18565b90509392505050565b7f4e487b7100000000000000000000000000000000000000000000000000000000600052602260045260246000fd5b6000600282049050600182168061334157607f821691505b60208210811415613355576133546132fa565b5b50919050565b7f4552433732313a20617070726f76656420717565727920666f72206e6f6e657860008201527f697374656e7420746f6b656e0000000000000000000000000000000000000000602082015250565b60006133b7602c83612ac3565b91506133c28261335b565b604082019050919050565b600060208201905081810360008301526133e6816133aa565b9050919050565b7f4552433732313a20617070726f76616c20746f2063757272656e74206f776e6560008201527f7200000000000000000000000000000000000000000000000000000000000000602082015250565b6000613449602183612ac3565b9150613454826133ed565b604082019050919050565b600060208201905081810360008301526134788161343c565b9050919050565b7f4552433732313a20617070726f76652063616c6c6572206973206e6f74206f7760008201527f6e6572206e6f7220617070726f76656420666f7220616c6c0000000000000000602082015250565b60006134db603883612ac3565b91506134e68261347f565b604082019050919050565b6000602082019050818103600083015261350a816134ce565b9050919050565b60006040820190506135266000830185612bfe565b6135336020830184612bfe565b9392505050565b60008151905061354981612b73565b92915050565b600060208284031215613565576135646129f3565b5b60006135738482850161353a565b91505092915050565b7f4552433732313a2063616c6c6572206973206e6f7420746f6b656e206f776e6560008201527f72206f7220617070726f76656400000000000000000000000000000000000000602082015250565b60006135d8602d83612ac3565b91506135e38261357c565b604082019050919050565b60006020820190508181036000830152613607816135cb565b9050919050565b7f455243373231456e756d657261626c653a206f776e657220696e646578206f7560008201527f74206f6620626f756e6473000000000000000000000000000000000000000000602082015250565b600061366a602b83612ac3565b91506136758261360e565b604082019050919050565b600060208201905081810360008301526136998161365d565b9050919050565b7f4e487b7100000000000000000000000000000000000000000000000000000000600052601160045260246000fd5b60006136da826129b5565b91507fffffffffffffffffffffffffffffffffffffffffffffffffffffffffffffffff82141561370d5761370c6136a0565b5b600182019050919050565b7f4552433732313a20696e76616c696420746f6b656e2049440000000000000000600082015250565b600061374e601883612ac3565b915061375982613718565b602082019050919050565b6000602082019050818103600083015261377d81613741565b9050919050565b60006060820190506137996000830186612bfe565b6137a66020830185612bfe565b6137b360408301846129bf565b949350505050565b6000815190506137ca8161313a565b92915050565b6000602082840312156137e6576137e56129f3565b5b60006137f4848285016137bb565b91505092915050565b6000613808826129b5565b9150613813836129b5565b9250827fffffffffffffffffffffffffffffffffffffffffffffffffffffffffffffffff03821115613848576138476136a0565b5b828201905092915050565b7f4e487b7100000000000000000000000000000000000000000000000000000000600052603260045260246000fd5b600081905092915050565b600061389882612ab8565b6138a28185613882565b93506138b2818560208601612ad4565b80840191505092915050565b60006138ca828561388d565b91506138d6828461388d565b91508190509392505050565b60006138ed826129b5565b91506138f8836129b5565b9250817fffffffffffffffffffffffffffffffffffffffffffffffffffffffffffffffff0483118215151615613931576139306136a0565b5b828202905092915050565b7f496e76616c6964204e4654207072696365000000000000000000000000000000600082015250565b6000613972601183612ac3565b915061397d8261393c565b602082019050919050565b600060208201905081810360008301526139a181613965565b9050919050565b7f546f6b656e20616c6c6f77616e6365206e6f7420736574000000000000000000600082015250565b60006139de601783612ac3565b91506139e9826139a8565b602082019050919050565b60006020820190508181036000830152613a0d816139d1565b9050919050565b7f546f6b656e207472616e73666572206661696c65640000000000000000000000600082015250565b6000613a4a601583612ac3565b9150613a5582613a14565b602082019050919050565b60006020820190508181036000830152613a7981613a3d565b9050919050565b7f4f776e61626c653a206e6577206f776e657220697320746865207a65726f206160008201527f6464726573730000000000000000000000000000000000000000000000000000602082015250565b6000613adc602683612ac3565b9150613ae782613a80565b604082019050919050565b60006020820190508181036000830152613b0b81613acf565b9050919050565b7f4552433732313a206d696e7420746f20746865207a65726f2061646472657373600082015250565b6000613b48602083612ac3565b9150613b5382613b12565b602082019050919050565b60006020820190508181036000830152613b7781613b3b565b9050919050565b7f4552433732313a20746f6b656e20616c7265616479206d696e74656400000000600082015250565b6000613bb4601c83612ac3565b9150613bbf82613b7e565b602082019050919050565b60006020820190508181036000830152613be381613ba7565b9050919050565b7f45524337323155524953746f726167653a2055524920736574206f66206e6f6e60008201527f6578697374656e7420746f6b656e000000000000000000000000000000000000602082015250565b6000613c46602e83612ac3565b9150613c5182613bea565b604082019050919050565b60006020820190508181036000830152613c7581613c39565b9050919050565b7f4552433732313a207472616e736665722066726f6d20696e636f72726563742060008201527f6f776e6572000000000000000000000000000000000000000000000000000000602082015250565b6000613cd8602583612ac3565b9150613ce382613c7c565b604082019050919050565b60006020820190508181036000830152613d0781613ccb565b9050919050565b7f4552433732313a207472616e7366657220746f20746865207a65726f2061646460008201527f7265737300000000000000000000000000000000000000000000000000000000602082015250565b6000613d6a602483612ac3565b9150613d7582613d0e565b604082019050919050565b60006020820190508181036000830152613d9981613d5d565b9050919050565b7f4f776e61626c653a2063616c6c6572206973206e6f7420746865206f776e6572600082015250565b6000613dd6602083612ac3565b9150613de182613da0565b602082019050919050565b60006020820190508181036000830152613e0581613dc9565b9050919050565b7f4552433732313a20617070726f766520746f2063616c6c657200000000000000600082015250565b6000613e42601983612ac3565b9150613e4d82613e0c565b602082019050919050565b60006020820190508181036000830152613e7181613e35565b9050919050565b7f4552433732313a207472616e7366657220746f206e6f6e20455243373231526560008201527f63656976657220696d706c656d656e7465720000000000000000000000000000602082015250565b6000613ed4603283612ac3565b9150613edf82613e78565b604082019050919050565b60006020820190508181036000830152613f0381613ec7565b9050919050565b600081519050919050565b600082825260208201905092915050565b6000613f3182613f0a565b613f3b8185613f15565b9350613f4b818560208601612ad4565b613f5481612b07565b840191505092915050565b6000608082019050613f746000830187612bfe565b613f816020830186612bfe565b613f8e60408301856129bf565b8181036060830152613fa08184613f26565b905095945050505050565b600081519050613fba81612a29565b92915050565b600060208284031215613fd657613fd56129f3565b5b6000613fe484828501613fab565b91505092915050565b7f4e487b7100000000000000000000000000000000000000000000000000000000600052601260045260246000fdfea2646970667358221220cca0be33f12f12fed3d69a5dbc10bffa55e129473fc0cbc2edf3603e41c14e3164736f6c634300080a0033",
  "linkReferences": {},
  "deployedLinkReferences": {}
}