{
  "_format": "hh-sol-artifact-1",
  "contractName": "MulX721",
  "sourceName": "contracts/MulX721.sol",
  "abi": [
    {
      "inputs": [],
      "stateMutability": "nonpayable",
      "type": "constructor"
    },
    {
      "anonymous": false,
      "inputs": [
        {
          "indexed": true,
          "internalType": "address",
          "name": "owner",
          "type": "address"
        },
        {
          "indexed": true,
          "internalType": "address",
          "name": "approved",
          "type": "address"
        },
        {
          "indexed": true,
          "internalType": "uint256",
          "name": "tokenId",
          "type": "uint256"
        }
      ],
      "name": "Approval",
      "type": "event"
    },
    {
      "anonymous": false,
      "inputs": [
        {
          "indexed": true,
          "internalType": "address",
          "name": "owner",
          "type": "address"
        },
        {
          "indexed": true,
          "internalType": "address",
          "name": "operator",
          "type": "address"
        },
        {
          "indexed": false,
          "internalType": "bool",
          "name": "approved",
          "type": "bool"
        }
      ],
      "name": "ApprovalForAll",
      "type": "event"
    },
    {
      "anonymous": false,
      "inputs": [
        {
          "indexed": false,
          "internalType": "uint256",
          "name": "_fromTokenId",
          "type": "uint256"
        },
        {
          "indexed": false,
          "internalType": "uint256",
          "name": "_toTokenId",
          "type": "uint256"
        }
      ],
      "name": "BatchMetadataUpdate",
      "type": "event"
    },
    {
      "anonymous": false,
      "inputs": [
        {
          "indexed": false,
          "internalType": "uint256",
          "name": "_tokenId",
          "type": "uint256"
        }
      ],
      "name": "MetadataUpdate",
      "type": "event"
    },
    {
      "anonymous": false,
      "inputs": [
        {
          "indexed": true,
          "internalType": "address",
          "name": "previousOwner",
          "type": "address"
        },
        {
          "indexed": true,
          "internalType": "address",
          "name": "newOwner",
          "type": "address"
        }
      ],
      "name": "OwnershipTransferred",
      "type": "event"
    },
    {
      "anonymous": false,
      "inputs": [
        {
          "indexed": true,
          "internalType": "address",
          "name": "from",
          "type": "address"
        },
        {
          "indexed": true,
          "internalType": "address",
          "name": "to",
          "type": "address"
        },
        {
          "indexed": true,
          "internalType": "uint256",
          "name": "tokenId",
          "type": "uint256"
        }
      ],
      "name": "Transfer",
      "type": "event"
    },
    {
      "inputs": [
        {
          "internalType": "address",
          "name": "to",
          "type": "address"
        },
        {
          "internalType": "uint256",
          "name": "tokenId",
          "type": "uint256"
        }
      ],
      "name": "approve",
      "outputs": [],
      "stateMutability": "nonpayable",
      "type": "function"
    },
    {
      "inputs": [
        {
          "internalType": "address",
          "name": "owner",
          "type": "address"
        }
      ],
      "name": "balanceOf",
      "outputs": [
        {
          "internalType": "uint256",
          "name": "",
          "type": "uint256"
        }
      ],
      "stateMutability": "view",
      "type": "function"
    },
    {
      "inputs": [
        {
          "internalType": "uint256",
          "name": "tokenId",
          "type": "uint256"
        }
      ],
      "name": "getApproved",
      "outputs": [
        {
          "internalType": "address",
          "name": "",
          "type": "address"
        }
      ],
      "stateMutability": "view",
      "type": "function"
    },
    {
      "inputs": [
        {
          "internalType": "address",
          "name": "owner",
          "type": "address"
        },
        {
          "internalType": "address",
          "name": "operator",
          "type": "address"
        }
      ],
      "name": "isApprovedForAll",
      "outputs": [
        {
          "internalType": "bool",
          "name": "",
          "type": "bool"
        }
      ],
      "stateMutability": "view",
      "type": "function"
    },
    {
      "inputs": [
        {
          "internalType": "address",
          "name": "recipient",
          "type": "address"
        },
        {
          "internalType": "string",
          "name": "tokenURI",
          "type": "string"
        }
      ],
      "name": "mintNFT",
      "outputs": [
        {
          "internalType": "uint256",
          "name": "",
          "type": "uint256"
        }
      ],
      "stateMutability": "nonpayable",
      "type": "function"
    },
    {
      "inputs": [],
      "name": "name",
      "outputs": [
        {
          "internalType": "string",
          "name": "",
          "type": "string"
        }
      ],
      "stateMutability": "view",
      "type": "function"
    },
    {
      "inputs": [],
      "name": "owner",
      "outputs": [
        {
          "internalType": "address",
          "name": "",
          "type": "address"
        }
      ],
      "stateMutability": "view",
      "type": "function"
    },
    {
      "inputs": [
        {
          "internalType": "uint256",
          "name": "tokenId",
          "type": "uint256"
        }
      ],
      "name": "ownerOf",
      "outputs": [
        {
          "internalType": "address",
          "name": "",
          "type": "address"
        }
      ],
      "stateMutability": "view",
      "type": "function"
    },
    {
      "inputs": [],
      "name": "renounceOwnership",
      "outputs": [],
      "stateMutability": "nonpayable",
      "type": "function"
    },
    {
      "inputs": [
        {
          "internalType": "address",
          "name": "from",
          "type": "address"
        },
        {
          "internalType": "address",
          "name": "to",
          "type": "address"
        },
        {
          "internalType": "uint256",
          "name": "tokenId",
          "type": "uint256"
        }
      ],
      "name": "safeTransferFrom",
      "outputs": [],
      "stateMutability": "nonpayable",
      "type": "function"
    },
    {
      "inputs": [
        {
          "internalType": "address",
          "name": "from",
          "type": "address"
        },
        {
          "internalType": "address",
          "name": "to",
          "type": "address"
        },
        {
          "internalType": "uint256",
          "name": "tokenId",
          "type": "uint256"
        },
        {
          "internalType": "bytes",
          "name": "data",
          "type": "bytes"
        }
      ],
      "name": "safeTransferFrom",
      "outputs": [],
      "stateMutability": "nonpayable",
      "type": "function"
    },
    {
      "inputs": [
        {
          "internalType": "address",
          "name": "operator",
          "type": "address"
        },
        {
          "internalType": "bool",
          "name": "approved",
          "type": "bool"
        }
      ],
      "name": "setApprovalForAll",
      "outputs": [],
      "stateMutability": "nonpayable",
      "type": "function"
    },
    {
      "inputs": [
        {
          "internalType": "address",
          "name": "tokenAddress",
          "type": "address"
        }
      ],
      "name": "setToken",
      "outputs": [
        {
          "internalType": "bool",
          "name": "",
          "type": "bool"
        }
      ],
      "stateMutability": "nonpayable",
      "type": "function"
    },
    {
      "inputs": [
        {
          "internalType": "bytes4",
          "name": "interfaceId",
          "type": "bytes4"
        }
      ],
      "name": "supportsInterface",
      "outputs": [
        {
          "internalType": "bool",
          "name": "",
          "type": "bool"
        }
      ],
      "stateMutability": "view",
      "type": "function"
    },
    {
      "inputs": [],
      "name": "symbol",
      "outputs": [
        {
          "internalType": "string",
          "name": "",
          "type": "string"
        }
      ],
      "stateMutability": "view",
      "type": "function"
    },
    {
      "inputs": [
        {
          "internalType": "uint256",
          "name": "tokenId",
          "type": "uint256"
        }
      ],
      "name": "tokenURI",
      "outputs": [
        {
          "internalType": "string",
          "name": "",
          "type": "string"
        }
      ],
      "stateMutability": "view",
      "type": "function"
    },
    {
      "inputs": [
        {
          "internalType": "address",
          "name": "from",
          "type": "address"
        },
        {
          "internalType": "address",
          "name": "to",
          "type": "address"
        },
        {
          "internalType": "uint256",
          "name": "tokenId",
          "type": "uint256"
        }
      ],
      "name": "transferFrom",
      "outputs": [],
      "stateMutability": "nonpayable",
      "type": "function"
    },
    {
      "inputs": [
        {
          "internalType": "address",
          "name": "newOwner",
          "type": "address"
        }
      ],
      "name": "transferOwnership",
      "outputs": [],
      "stateMutability": "nonpayable",
      "type": "function"
    }
  ],
  "bytecode": "0x60806040523480156200001157600080fd5b506040518060400160405280600681526020017f4d794e46547300000000000000000000000000000000000000000000000000008152506040518060400160405280600481526020017f4d4e465400000000000000000000000000000000000000000000000000000000815250816000908051906020019062000096929190620001b6565b508060019080519060200190620000af929190620001b6565b505050620000d2620000c6620000e860201b60201c565b620000f060201b60201c565b68056bc75e2d63100000600a81905550620002cb565b600033905090565b6000600760009054906101000a900473ffffffffffffffffffffffffffffffffffffffff16905081600760006101000a81548173ffffffffffffffffffffffffffffffffffffffff021916908373ffffffffffffffffffffffffffffffffffffffff1602179055508173ffffffffffffffffffffffffffffffffffffffff168173ffffffffffffffffffffffffffffffffffffffff167f8be0079c531659141344cd1fd0a4f28419497f9722a3daafe3b4186f6b6457e060405160405180910390a35050565b828054620001c49062000295565b90600052602060002090601f016020900481019282620001e8576000855562000234565b82601f106200020357805160ff191683800117855562000234565b8280016001018555821562000234579182015b828111156200023357825182559160200191906001019062000216565b5b50905062000243919062000247565b5090565b5b808211156200026257600081600090555060010162000248565b5090565b7f4e487b7100000000000000000000000000000000000000000000000000000000600052602260045260246000fd5b60006002820490506001821680620002ae57607f821691505b60208210811415620002c557620002c462000266565b5b50919050565b612f6b80620002db6000396000f3fe608060405234801561001057600080fd5b50600436106101165760003560e01c8063715018a6116100a2578063b88d4fde11610071578063b88d4fde146102df578063c87b56dd146102fb578063e985e9c51461032b578063eacabe141461035b578063f2fde38b1461038b57610116565b8063715018a61461027d5780638da5cb5b1461028757806395d89b41146102a5578063a22cb465146102c357610116565b8063144fa6d7116100e9578063144fa6d7146101b557806323b872dd146101e557806342842e0e146102015780636352211e1461021d57806370a082311461024d57610116565b806301ffc9a71461011b57806306fdde031461014b578063081812fc14610169578063095ea7b314610199575b600080fd5b61013560048036038101906101309190611f15565b6103a7565b6040516101429190611f5d565b60405180910390f35b610153610408565b6040516101609190612011565b60405180910390f35b610183600480360381019061017e9190612069565b61049a565b60405161019091906120d7565b60405180910390f35b6101b360048036038101906101ae919061211e565b6104e0565b005b6101cf60048036038101906101ca919061215e565b6105f8565b6040516101dc9190611f5d565b60405180910390f35b6101ff60048036038101906101fa919061218b565b610686565b005b61021b6004803603810190610216919061218b565b6106e6565b005b61023760048036038101906102329190612069565b610706565b60405161024491906120d7565b60405180910390f35b6102676004803603810190610262919061215e565b61078d565b60405161027491906121ed565b60405180910390f35b610285610845565b005b61028f610859565b60405161029c91906120d7565b60405180910390f35b6102ad610883565b6040516102ba9190612011565b60405180910390f35b6102dd60048036038101906102d89190612234565b610915565b005b6102f960048036038101906102f491906123a9565b61092b565b005b61031560048036038101906103109190612069565b61098d565b6040516103229190612011565b60405180910390f35b6103456004803603810190610340919061242c565b610aa0565b6040516103529190611f5d565b60405180910390f35b6103756004803603810190610370919061250d565b610b34565b60405161038291906121ed565b60405180910390f35b6103a560048036038101906103a0919061215e565b610cc2565b005b6000634906490660e01b7bffffffffffffffffffffffffffffffffffffffffffffffffffffffff1916827bffffffffffffffffffffffffffffffffffffffffffffffffffffffff19161480610401575061040082610d46565b5b9050919050565b60606000805461041790612598565b80601f016020809104026020016040519081016040528092919081815260200182805461044390612598565b80156104905780601f1061046557610100808354040283529160200191610490565b820191906000526020600020905b81548152906001019060200180831161047357829003601f168201915b5050505050905090565b60006104a582610e28565b6004600083815260200190815260200160002060009054906101000a900473ffffffffffffffffffffffffffffffffffffffff169050919050565b60006104eb82610706565b90508073ffffffffffffffffffffffffffffffffffffffff168373ffffffffffffffffffffffffffffffffffffffff16141561055c576040517f08c379a00000000000000000000000000000000000000000000000000000000081526004016105539061263c565b60405180910390fd5b8073ffffffffffffffffffffffffffffffffffffffff1661057b610e73565b73ffffffffffffffffffffffffffffffffffffffff1614806105aa57506105a9816105a4610e73565b610aa0565b5b6105e9576040517f08c379a00000000000000000000000000000000000000000000000000000000081526004016105e0906126ce565b60405180910390fd5b6105f38383610e7b565b505050565b6000610602610f34565b600073ffffffffffffffffffffffffffffffffffffffff168273ffffffffffffffffffffffffffffffffffffffff16141561063c57600080fd5b81600960006101000a81548173ffffffffffffffffffffffffffffffffffffffff021916908373ffffffffffffffffffffffffffffffffffffffff16021790555060019050919050565b610697610691610e73565b82610fb2565b6106d6576040517f08c379a00000000000000000000000000000000000000000000000000000000081526004016106cd90612760565b60405180910390fd5b6106e1838383611047565b505050565b6107018383836040518060200160405280600081525061092b565b505050565b60008061071283611341565b9050600073ffffffffffffffffffffffffffffffffffffffff168173ffffffffffffffffffffffffffffffffffffffff161415610784576040517f08c379a000000000000000000000000000000000000000000000000000000000815260040161077b906127cc565b60405180910390fd5b80915050919050565b60008073ffffffffffffffffffffffffffffffffffffffff168273ffffffffffffffffffffffffffffffffffffffff1614156107fe576040517f08c379a00000000000000000000000000000000000000000000000000000000081526004016107f59061285e565b60405180910390fd5b600360008373ffffffffffffffffffffffffffffffffffffffff1673ffffffffffffffffffffffffffffffffffffffff168152602001908152602001600020549050919050565b61084d610f34565b610857600061137e565b565b6000600760009054906101000a900473ffffffffffffffffffffffffffffffffffffffff16905090565b60606001805461089290612598565b80601f01602080910402602001604051908101604052809291908181526020018280546108be90612598565b801561090b5780601f106108e05761010080835404028352916020019161090b565b820191906000526020600020905b8154815290600101906020018083116108ee57829003601f168201915b5050505050905090565b610927610920610e73565b8383611444565b5050565b61093c610936610e73565b83610fb2565b61097b576040517f08c379a000000000000000000000000000000000000000000000000000000000815260040161097290612760565b60405180910390fd5b610987848484846115b1565b50505050565b606061099882610e28565b60006006600084815260200190815260200160002080546109b890612598565b80601f01602080910402602001604051908101604052809291908181526020018280546109e490612598565b8015610a315780601f10610a0657610100808354040283529160200191610a31565b820191906000526020600020905b815481529060010190602001808311610a1457829003601f168201915b505050505090506000610a4261160d565b9050600081511415610a58578192505050610a9b565b600082511115610a8d578082604051602001610a759291906128ba565b60405160208183030381529060405292505050610a9b565b610a9684611624565b925050505b919050565b6000600560008473ffffffffffffffffffffffffffffffffffffffff1673ffffffffffffffffffffffffffffffffffffffff16815260200190815260200160002060008373ffffffffffffffffffffffffffffffffffffffff1673ffffffffffffffffffffffffffffffffffffffff16815260200190815260200160002060009054906101000a900460ff16905092915050565b6000610b3e610f34565b600a54600960009054906101000a900473ffffffffffffffffffffffffffffffffffffffff1673ffffffffffffffffffffffffffffffffffffffff166370a08231856040518263ffffffff1660e01b8152600401610b9c91906120d7565b602060405180830381865afa158015610bb9573d6000803e3d6000fd5b505050506040513d601f19601f82011682018060405250810190610bdd91906128f3565b11610be757600080fd5b600960009054906101000a900473ffffffffffffffffffffffffffffffffffffffff1673ffffffffffffffffffffffffffffffffffffffff166323b872dd8433600a546040518463ffffffff1660e01b8152600401610c4893929190612920565b6020604051808303816000875af1158015610c67573d6000803e3d6000fd5b505050506040513d601f19601f82011682018060405250810190610c8b919061296c565b50610c96600861168c565b6000610ca260086116a2565b9050610cae84826116b0565b610cb881846118ce565b8091505092915050565b610cca610f34565b600073ffffffffffffffffffffffffffffffffffffffff168173ffffffffffffffffffffffffffffffffffffffff161415610d3a576040517f08c379a0000000000000000000000000000000000000000000000000000000008152600401610d3190612a0b565b60405180910390fd5b610d438161137e565b50565b60007f80ac58cd000000000000000000000000000000000000000000000000000000007bffffffffffffffffffffffffffffffffffffffffffffffffffffffff1916827bffffffffffffffffffffffffffffffffffffffffffffffffffffffff19161480610e1157507f5b5e139f000000000000000000000000000000000000000000000000000000007bffffffffffffffffffffffffffffffffffffffffffffffffffffffff1916827bffffffffffffffffffffffffffffffffffffffffffffffffffffffff1916145b80610e215750610e2082611979565b5b9050919050565b610e31816119e3565b610e70576040517f08c379a0000000000000000000000000000000000000000000000000000000008152600401610e67906127cc565b60405180910390fd5b50565b600033905090565b816004600083815260200190815260200160002060006101000a81548173ffffffffffffffffffffffffffffffffffffffff021916908373ffffffffffffffffffffffffffffffffffffffff160217905550808273ffffffffffffffffffffffffffffffffffffffff16610eee83610706565b73ffffffffffffffffffffffffffffffffffffffff167f8c5be1e5ebec7d5bd14f71427d1e84f3dd0314c0f7b2291e5b200ac8c7c3b92560405160405180910390a45050565b610f3c610e73565b73ffffffffffffffffffffffffffffffffffffffff16610f5a610859565b73ffffffffffffffffffffffffffffffffffffffff1614610fb0576040517f08c379a0000000000000000000000000000000000000000000000000000000008152600401610fa790612a77565b60405180910390fd5b565b600080610fbe83610706565b90508073ffffffffffffffffffffffffffffffffffffffff168473ffffffffffffffffffffffffffffffffffffffff1614806110005750610fff8185610aa0565b5b8061103e57508373ffffffffffffffffffffffffffffffffffffffff166110268461049a565b73ffffffffffffffffffffffffffffffffffffffff16145b91505092915050565b8273ffffffffffffffffffffffffffffffffffffffff1661106782610706565b73ffffffffffffffffffffffffffffffffffffffff16146110bd576040517f08c379a00000000000000000000000000000000000000000000000000000000081526004016110b490612b09565b60405180910390fd5b600073ffffffffffffffffffffffffffffffffffffffff168273ffffffffffffffffffffffffffffffffffffffff16141561112d576040517f08c379a000000000000000000000000000000000000000000000000000000000815260040161112490612b9b565b60405180910390fd5b61113a8383836001611a24565b8273ffffffffffffffffffffffffffffffffffffffff1661115a82610706565b73ffffffffffffffffffffffffffffffffffffffff16146111b0576040517f08c379a00000000000000000000000000000000000000000000000000000000081526004016111a790612b09565b60405180910390fd5b6004600082815260200190815260200160002060006101000a81549073ffffffffffffffffffffffffffffffffffffffff02191690556001600360008573ffffffffffffffffffffffffffffffffffffffff1673ffffffffffffffffffffffffffffffffffffffff168152602001908152602001600020600082825403925050819055506001600360008473ffffffffffffffffffffffffffffffffffffffff1673ffffffffffffffffffffffffffffffffffffffff16815260200190815260200160002060008282540192505081905550816002600083815260200190815260200160002060006101000a81548173ffffffffffffffffffffffffffffffffffffffff021916908373ffffffffffffffffffffffffffffffffffffffff160217905550808273ffffffffffffffffffffffffffffffffffffffff168473ffffffffffffffffffffffffffffffffffffffff167fddf252ad1be2c89b69c2b068fc378daa952ba7f163c4a11628f55a4df523b3ef60405160405180910390a461133c8383836001611a2a565b505050565b60006002600083815260200190815260200160002060009054906101000a900473ffffffffffffffffffffffffffffffffffffffff169050919050565b6000600760009054906101000a900473ffffffffffffffffffffffffffffffffffffffff16905081600760006101000a81548173ffffffffffffffffffffffffffffffffffffffff021916908373ffffffffffffffffffffffffffffffffffffffff1602179055508173ffffffffffffffffffffffffffffffffffffffff168173ffffffffffffffffffffffffffffffffffffffff167f8be0079c531659141344cd1fd0a4f28419497f9722a3daafe3b4186f6b6457e060405160405180910390a35050565b8173ffffffffffffffffffffffffffffffffffffffff168373ffffffffffffffffffffffffffffffffffffffff1614156114b3576040517f08c379a00000000000000000000000000000000000000000000000000000000081526004016114aa90612c07565b60405180910390fd5b80600560008573ffffffffffffffffffffffffffffffffffffffff1673ffffffffffffffffffffffffffffffffffffffff16815260200190815260200160002060008473ffffffffffffffffffffffffffffffffffffffff1673ffffffffffffffffffffffffffffffffffffffff16815260200190815260200160002060006101000a81548160ff0219169083151502179055508173ffffffffffffffffffffffffffffffffffffffff168373ffffffffffffffffffffffffffffffffffffffff167f17307eab39ab6107e8899845ad3d59bd9653f200f220920489ca2b5937696c31836040516115a49190611f5d565b60405180910390a3505050565b6115bc848484611047565b6115c884848484611a30565b611607576040517f08c379a00000000000000000000000000000000000000000000000000000000081526004016115fe90612c99565b60405180910390fd5b50505050565b606060405180602001604052806000815250905090565b606061162f82610e28565b600061163961160d565b905060008151116116595760405180602001604052806000815250611684565b8061166384611bb8565b6040516020016116749291906128ba565b6040516020818303038152906040525b915050919050565b6001816000016000828254019250508190555050565b600081600001549050919050565b600073ffffffffffffffffffffffffffffffffffffffff168273ffffffffffffffffffffffffffffffffffffffff161415611720576040517f08c379a000000000000000000000000000000000000000000000000000000000815260040161171790612d05565b60405180910390fd5b611729816119e3565b15611769576040517f08c379a000000000000000000000000000000000000000000000000000000000815260040161176090612d71565b60405180910390fd5b611777600083836001611a24565b611780816119e3565b156117c0576040517f08c379a00000000000000000000000000000000000000000000000000000000081526004016117b790612d71565b60405180910390fd5b6001600360008473ffffffffffffffffffffffffffffffffffffffff1673ffffffffffffffffffffffffffffffffffffffff16815260200190815260200160002060008282540192505081905550816002600083815260200190815260200160002060006101000a81548173ffffffffffffffffffffffffffffffffffffffff021916908373ffffffffffffffffffffffffffffffffffffffff160217905550808273ffffffffffffffffffffffffffffffffffffffff16600073ffffffffffffffffffffffffffffffffffffffff167fddf252ad1be2c89b69c2b068fc378daa952ba7f163c4a11628f55a4df523b3ef60405160405180910390a46118ca600083836001611a2a565b5050565b6118d7826119e3565b611916576040517f08c379a000000000000000000000000000000000000000000000000000000000815260040161190d90612e03565b60405180910390fd5b8060066000848152602001908152602001600020908051906020019061193d929190611e06565b507ff8e1a15aba9398e019f0b49df1a4fde98ee17ae345cb5f6b5e2c27f5033e8ce78260405161196d91906121ed565b60405180910390a15050565b60007f01ffc9a7000000000000000000000000000000000000000000000000000000007bffffffffffffffffffffffffffffffffffffffffffffffffffffffff1916827bffffffffffffffffffffffffffffffffffffffffffffffffffffffff1916149050919050565b60008073ffffffffffffffffffffffffffffffffffffffff16611a0583611341565b73ffffffffffffffffffffffffffffffffffffffff1614159050919050565b50505050565b50505050565b6000611a518473ffffffffffffffffffffffffffffffffffffffff16611c90565b15611bab578373ffffffffffffffffffffffffffffffffffffffff1663150b7a02611a7a610e73565b8786866040518563ffffffff1660e01b8152600401611a9c9493929190612e78565b6020604051808303816000875af1925050508015611ad857506040513d601f19601f82011682018060405250810190611ad59190612ed9565b60015b611b5b573d8060008114611b08576040519150601f19603f3d011682016040523d82523d6000602084013e611b0d565b606091505b50600081511415611b53576040517f08c379a0000000000000000000000000000000000000000000000000000000008152600401611b4a90612c99565b60405180910390fd5b805181602001fd5b63150b7a0260e01b7bffffffffffffffffffffffffffffffffffffffffffffffffffffffff1916817bffffffffffffffffffffffffffffffffffffffffffffffffffffffff191614915050611bb0565b600190505b949350505050565b606060006001611bc784611cb3565b01905060008167ffffffffffffffff811115611be657611be561227e565b5b6040519080825280601f01601f191660200182016040528015611c185781602001600182028036833780820191505090505b509050600082602001820190505b600115611c85578080600190039150507f3031323334353637383961626364656600000000000000000000000000000000600a86061a8153600a8581611c6f57611c6e612f06565b5b0494506000851415611c8057611c85565b611c26565b819350505050919050565b6000808273ffffffffffffffffffffffffffffffffffffffff163b119050919050565b600080600090507a184f03e93ff9f4daa797ed6e38ed64bf6a1f0100000000000000008310611d11577a184f03e93ff9f4daa797ed6e38ed64bf6a1f0100000000000000008381611d0757611d06612f06565b5b0492506040810190505b6d04ee2d6d415b85acef81000000008310611d4e576d04ee2d6d415b85acef81000000008381611d4457611d43612f06565b5b0492506020810190505b662386f26fc100008310611d7d57662386f26fc100008381611d7357611d72612f06565b5b0492506010810190505b6305f5e1008310611da6576305f5e1008381611d9c57611d9b612f06565b5b0492506008810190505b6127108310611dcb576127108381611dc157611dc0612f06565b5b0492506004810190505b60648310611dee5760648381611de457611de3612f06565b5b0492506002810190505b600a8310611dfd576001810190505b80915050919050565b828054611e1290612598565b90600052602060002090601f016020900481019282611e345760008555611e7b565b82601f10611e4d57805160ff1916838001178555611e7b565b82800160010185558215611e7b579182015b82811115611e7a578251825591602001919060010190611e5f565b5b509050611e889190611e8c565b5090565b5b80821115611ea5576000816000905550600101611e8d565b5090565b6000604051905090565b600080fd5b600080fd5b60007fffffffff0000000000000000000000000000000000000000000000000000000082169050919050565b611ef281611ebd565b8114611efd57600080fd5b50565b600081359050611f0f81611ee9565b92915050565b600060208284031215611f2b57611f2a611eb3565b5b6000611f3984828501611f00565b91505092915050565b60008115159050919050565b611f5781611f42565b82525050565b6000602082019050611f726000830184611f4e565b92915050565b600081519050919050565b600082825260208201905092915050565b60005b83811015611fb2578082015181840152602081019050611f97565b83811115611fc1576000848401525b50505050565b6000601f19601f8301169050919050565b6000611fe382611f78565b611fed8185611f83565b9350611ffd818560208601611f94565b61200681611fc7565b840191505092915050565b6000602082019050818103600083015261202b8184611fd8565b905092915050565b6000819050919050565b61204681612033565b811461205157600080fd5b50565b6000813590506120638161203d565b92915050565b60006020828403121561207f5761207e611eb3565b5b600061208d84828501612054565b91505092915050565b600073ffffffffffffffffffffffffffffffffffffffff82169050919050565b60006120c182612096565b9050919050565b6120d1816120b6565b82525050565b60006020820190506120ec60008301846120c8565b92915050565b6120fb816120b6565b811461210657600080fd5b50565b600081359050612118816120f2565b92915050565b6000806040838503121561213557612134611eb3565b5b600061214385828601612109565b925050602061215485828601612054565b9150509250929050565b60006020828403121561217457612173611eb3565b5b600061218284828501612109565b91505092915050565b6000806000606084860312156121a4576121a3611eb3565b5b60006121b286828701612109565b93505060206121c386828701612109565b92505060406121d486828701612054565b9150509250925092565b6121e781612033565b82525050565b600060208201905061220260008301846121de565b92915050565b61221181611f42565b811461221c57600080fd5b50565b60008135905061222e81612208565b92915050565b6000806040838503121561224b5761224a611eb3565b5b600061225985828601612109565b925050602061226a8582860161221f565b9150509250929050565b600080fd5b600080fd5b7f4e487b7100000000000000000000000000000000000000000000000000000000600052604160045260246000fd5b6122b682611fc7565b810181811067ffffffffffffffff821117156122d5576122d461227e565b5b80604052505050565b60006122e8611ea9565b90506122f482826122ad565b919050565b600067ffffffffffffffff8211156123145761231361227e565b5b61231d82611fc7565b9050602081019050919050565b82818337600083830152505050565b600061234c612347846122f9565b6122de565b90508281526020810184848401111561236857612367612279565b5b61237384828561232a565b509392505050565b600082601f8301126123905761238f612274565b5b81356123a0848260208601612339565b91505092915050565b600080600080608085870312156123c3576123c2611eb3565b5b60006123d187828801612109565b94505060206123e287828801612109565b93505060406123f387828801612054565b925050606085013567ffffffffffffffff81111561241457612413611eb8565b5b6124208782880161237b565b91505092959194509250565b6000806040838503121561244357612442611eb3565b5b600061245185828601612109565b925050602061246285828601612109565b9150509250929050565b600067ffffffffffffffff8211156124875761248661227e565b5b61249082611fc7565b9050602081019050919050565b60006124b06124ab8461246c565b6122de565b9050828152602081018484840111156124cc576124cb612279565b5b6124d784828561232a565b509392505050565b600082601f8301126124f4576124f3612274565b5b813561250484826020860161249d565b91505092915050565b6000806040838503121561252457612523611eb3565b5b600061253285828601612109565b925050602083013567ffffffffffffffff81111561255357612552611eb8565b5b61255f858286016124df565b9150509250929050565b7f4e487b7100000000000000000000000000000000000000000000000000000000600052602260045260246000fd5b600060028204905060018216806125b057607f821691505b602082108114156125c4576125c3612569565b5b50919050565b7f4552433732313a20617070726f76616c20746f2063757272656e74206f776e6560008201527f7200000000000000000000000000000000000000000000000000000000000000602082015250565b6000612626602183611f83565b9150612631826125ca565b604082019050919050565b6000602082019050818103600083015261265581612619565b9050919050565b7f4552433732313a20617070726f76652063616c6c6572206973206e6f7420746f60008201527f6b656e206f776e6572206f7220617070726f76656420666f7220616c6c000000602082015250565b60006126b8603d83611f83565b91506126c38261265c565b604082019050919050565b600060208201905081810360008301526126e7816126ab565b9050919050565b7f4552433732313a2063616c6c6572206973206e6f7420746f6b656e206f776e6560008201527f72206f7220617070726f76656400000000000000000000000000000000000000602082015250565b600061274a602d83611f83565b9150612755826126ee565b604082019050919050565b600060208201905081810360008301526127798161273d565b9050919050565b7f4552433732313a20696e76616c696420746f6b656e2049440000000000000000600082015250565b60006127b6601883611f83565b91506127c182612780565b602082019050919050565b600060208201905081810360008301526127e5816127a9565b9050919050565b7f4552433732313a2061646472657373207a65726f206973206e6f74206120766160008201527f6c6964206f776e65720000000000000000000000000000000000000000000000602082015250565b6000612848602983611f83565b9150612853826127ec565b604082019050919050565b600060208201905081810360008301526128778161283b565b9050919050565b600081905092915050565b600061289482611f78565b61289e818561287e565b93506128ae818560208601611f94565b80840191505092915050565b60006128c68285612889565b91506128d28284612889565b91508190509392505050565b6000815190506128ed8161203d565b92915050565b60006020828403121561290957612908611eb3565b5b6000612917848285016128de565b91505092915050565b600060608201905061293560008301866120c8565b61294260208301856120c8565b61294f60408301846121de565b949350505050565b60008151905061296681612208565b92915050565b60006020828403121561298257612981611eb3565b5b600061299084828501612957565b91505092915050565b7f4f776e61626c653a206e6577206f776e657220697320746865207a65726f206160008201527f6464726573730000000000000000000000000000000000000000000000000000602082015250565b60006129f5602683611f83565b9150612a0082612999565b604082019050919050565b60006020820190508181036000830152612a24816129e8565b9050919050565b7f4f776e61626c653a2063616c6c6572206973206e6f7420746865206f776e6572600082015250565b6000612a61602083611f83565b9150612a6c82612a2b565b602082019050919050565b60006020820190508181036000830152612a9081612a54565b9050919050565b7f4552433732313a207472616e736665722066726f6d20696e636f72726563742060008201527f6f776e6572000000000000000000000000000000000000000000000000000000602082015250565b6000612af3602583611f83565b9150612afe82612a97565b604082019050919050565b60006020820190508181036000830152612b2281612ae6565b9050919050565b7f4552433732313a207472616e7366657220746f20746865207a65726f2061646460008201527f7265737300000000000000000000000000000000000000000000000000000000602082015250565b6000612b85602483611f83565b9150612b9082612b29565b604082019050919050565b60006020820190508181036000830152612bb481612b78565b9050919050565b7f4552433732313a20617070726f766520746f2063616c6c657200000000000000600082015250565b6000612bf1601983611f83565b9150612bfc82612bbb565b602082019050919050565b60006020820190508181036000830152612c2081612be4565b9050919050565b7f4552433732313a207472616e7366657220746f206e6f6e20455243373231526560008201527f63656976657220696d706c656d656e7465720000000000000000000000000000602082015250565b6000612c83603283611f83565b9150612c8e82612c27565b604082019050919050565b60006020820190508181036000830152612cb281612c76565b9050919050565b7f4552433732313a206d696e7420746f20746865207a65726f2061646472657373600082015250565b6000612cef602083611f83565b9150612cfa82612cb9565b602082019050919050565b60006020820190508181036000830152612d1e81612ce2565b9050919050565b7f4552433732313a20746f6b656e20616c7265616479206d696e74656400000000600082015250565b6000612d5b601c83611f83565b9150612d6682612d25565b602082019050919050565b60006020820190508181036000830152612d8a81612d4e565b9050919050565b7f45524337323155524953746f726167653a2055524920736574206f66206e6f6e60008201527f6578697374656e7420746f6b656e000000000000000000000000000000000000602082015250565b6000612ded602e83611f83565b9150612df882612d91565b604082019050919050565b60006020820190508181036000830152612e1c81612de0565b9050919050565b600081519050919050565b600082825260208201905092915050565b6000612e4a82612e23565b612e548185612e2e565b9350612e64818560208601611f94565b612e6d81611fc7565b840191505092915050565b6000608082019050612e8d60008301876120c8565b612e9a60208301866120c8565b612ea760408301856121de565b8181036060830152612eb98184612e3f565b905095945050505050565b600081519050612ed381611ee9565b92915050565b600060208284031215612eef57612eee611eb3565b5b6000612efd84828501612ec4565b91505092915050565b7f4e487b7100000000000000000000000000000000000000000000000000000000600052601260045260246000fdfea2646970667358221220be5150d895e559d38165230e5e7b1ab1df829e9d7d7b9758fca950fc064bfc8264736f6c634300080a0033",
  "linkReferences": {},
  "deployedLinkReferences": {}
}